{"abi":[{"inputs":[{"internalType":"uint256","name":"minimum","type":"uint256"},{"internalType":"address","name":"creator","type":"address"}],"stateMutability":"nonpayable","type":"constructor"},{"inputs":[{"internalType":"uint256","name":"index","type":"uint256"}],"name":"approveRequest","outputs":[],"stateMutability":"nonpayable","type":"function"},{"inputs":[{"internalType":"address","name":"","type":"address"}],"name":"approvers","outputs":[{"internalType":"bool","name":"","type":"bool"}],"stateMutability":"view","type":"function"},{"inputs":[],"name":"approversCount","outputs":[{"internalType":"uint256","name":"","type":"uint256"}],"stateMutability":"view","type":"function"},{"inputs":[],"name":"contribute","outputs":[],"stateMutability":"payable","type":"function"},{"inputs":[{"internalType":"string","name":"description","type":"string"},{"internalType":"uint256","name":"value","type":"uint256"},{"internalType":"address payable","name":"recipient","type":"address"}],"name":"createRequest","outputs":[],"stateMutability":"nonpayable","type":"function"},{"inputs":[{"internalType":"uint256","name":"index","type":"uint256"}],"name":"finalizeRequest","outputs":[],"stateMutability":"nonpayable","type":"function"},{"inputs":[],"name":"getRequestsCounts","outputs":[{"internalType":"uint256","name":"","type":"uint256"}],"stateMutability":"view","type":"function"},{"inputs":[],"name":"getSummary","outputs":[{"internalType":"uint256","name":"","type":"uint256"},{"internalType":"uint256","name":"","type":"uint256"},{"internalType":"uint256","name":"","type":"uint256"},{"internalType":"uint256","name":"","type":"uint256"},{"internalType":"address","name":"","type":"address"}],"stateMutability":"view","type":"function"},{"inputs":[],"name":"manager","outputs":[{"internalType":"address","name":"","type":"address"}],"stateMutability":"view","type":"function"},{"inputs":[],"name":"minimumContribution","outputs":[{"internalType":"uint256","name":"","type":"uint256"}],"stateMutability":"view","type":"function"},{"inputs":[],"name":"numRequests","outputs":[{"internalType":"uint256","name":"","type":"uint256"}],"stateMutability":"view","type":"function"},{"inputs":[{"internalType":"uint256","name":"","type":"uint256"}],"name":"requests","outputs":[{"internalType":"string","name":"description","type":"string"},{"internalType":"uint256","name":"value","type":"uint256"},{"internalType":"address payable","name":"recipient","type":"address"},{"internalType":"bool","name":"complete","type":"bool"},{"internalType":"uint256","name":"approvalCount","type":"uint256"}],"stateMutability":"view","type":"function"}],"devdoc":{"kind":"dev","methods":{},"version":1},"evm":{"assembly":"    /* \"Campaign.sol\":454:4113  contract Campaign {... */\n  mstore(0x40, 0x80)\n    /* \"Campaign.sol\":1217:1336  constructor(uint minimum, address creator) {... */\n  callvalue\n  dup1\n  iszero\n  tag_1\n  jumpi\n  0x00\n  dup1\n  revert\ntag_1:\n  pop\n  mload(0x40)\n  sub(codesize, bytecodeSize)\n  dup1\n  bytecodeSize\n  dup4\n  codecopy\n  dup2\n  dup2\n  add\n  0x40\n  mstore\n  dup2\n  add\n  swap1\n  tag_2\n  swap2\n  swap1\n  tag_3\n  jump\t// in\ntag_2:\n    /* \"Campaign.sol\":1281:1288  creator */\n  dup1\n    /* \"Campaign.sol\":1271:1278  manager */\n  0x01\n  0x00\n    /* \"Campaign.sol\":1271:1288  manager = creator */\n  0x0100\n  exp\n  dup2\n  sload\n  dup2\n  0xffffffffffffffffffffffffffffffffffffffff\n  mul\n  not\n  and\n  swap1\n  dup4\n  0xffffffffffffffffffffffffffffffffffffffff\n  and\n  mul\n  or\n  swap1\n  sstore\n  pop\n    /* \"Campaign.sol\":1321:1328  minimum */\n  dup2\n    /* \"Campaign.sol\":1299:1318  minimumContribution */\n  0x03\n    /* \"Campaign.sol\":1299:1328  minimumContribution = minimum */\n  dup2\n  swap1\n  sstore\n  pop\n    /* \"Campaign.sol\":1217:1336  constructor(uint minimum, address creator) {... */\n  pop\n  pop\n    /* \"Campaign.sol\":454:4113  contract Campaign {... */\n  jump(tag_6)\n    /* \"#utility.yul\":88:205   */\ntag_8:\n    /* \"#utility.yul\":197:198   */\n  0x00\n    /* \"#utility.yul\":194:195   */\n  dup1\n    /* \"#utility.yul\":187:199   */\n  revert\n    /* \"#utility.yul\":334:411   */\ntag_10:\n    /* \"#utility.yul\":371:378   */\n  0x00\n    /* \"#utility.yul\":400:405   */\n  dup2\n    /* \"#utility.yul\":389:405   */\n  swap1\n  pop\n    /* \"#utility.yul\":334:411   */\n  swap2\n  swap1\n  pop\n  jump\t// out\n    /* \"#utility.yul\":417:539   */\ntag_11:\n    /* \"#utility.yul\":490:514   */\n  tag_23\n    /* \"#utility.yul\":508:513   */\n  dup2\n    /* \"#utility.yul\":490:514   */\n  tag_10\n  jump\t// in\ntag_23:\n    /* \"#utility.yul\":483:488   */\n  dup2\n    /* \"#utility.yul\":480:515   */\n  eq\n    /* \"#utility.yul\":470:533   */\n  tag_24\n  jumpi\n    /* \"#utility.yul\":529:530   */\n  0x00\n    /* \"#utility.yul\":526:527   */\n  dup1\n    /* \"#utility.yul\":519:531   */\n  revert\n    /* \"#utility.yul\":470:533   */\ntag_24:\n    /* \"#utility.yul\":417:539   */\n  pop\n  jump\t// out\n    /* \"#utility.yul\":545:688   */\ntag_12:\n    /* \"#utility.yul\":602:607   */\n  0x00\n    /* \"#utility.yul\":633:639   */\n  dup2\n    /* \"#utility.yul\":627:640   */\n  mload\n    /* \"#utility.yul\":618:640   */\n  swap1\n  pop\n    /* \"#utility.yul\":649:682   */\n  tag_26\n    /* \"#utility.yul\":676:681   */\n  dup2\n    /* \"#utility.yul\":649:682   */\n  tag_11\n  jump\t// in\ntag_26:\n    /* \"#utility.yul\":545:688   */\n  swap3\n  swap2\n  pop\n  pop\n  jump\t// out\n    /* \"#utility.yul\":694:820   */\ntag_13:\n    /* \"#utility.yul\":731:738   */\n  0x00\n    /* \"#utility.yul\":771:813   */\n  0xffffffffffffffffffffffffffffffffffffffff\n    /* \"#utility.yul\":764:769   */\n  dup3\n    /* \"#utility.yul\":760:814   */\n  and\n    /* \"#utility.yul\":749:814   */\n  swap1\n  pop\n    /* \"#utility.yul\":694:820   */\n  swap2\n  swap1\n  pop\n  jump\t// out\n    /* \"#utility.yul\":826:922   */\ntag_14:\n    /* \"#utility.yul\":863:870   */\n  0x00\n    /* \"#utility.yul\":892:916   */\n  tag_29\n    /* \"#utility.yul\":910:915   */\n  dup3\n    /* \"#utility.yul\":892:916   */\n  tag_13\n  jump\t// in\ntag_29:\n    /* \"#utility.yul\":881:916   */\n  swap1\n  pop\n    /* \"#utility.yul\":826:922   */\n  swap2\n  swap1\n  pop\n  jump\t// out\n    /* \"#utility.yul\":928:1050   */\ntag_15:\n    /* \"#utility.yul\":1001:1025   */\n  tag_31\n    /* \"#utility.yul\":1019:1024   */\n  dup2\n    /* \"#utility.yul\":1001:1025   */\n  tag_14\n  jump\t// in\ntag_31:\n    /* \"#utility.yul\":994:999   */\n  dup2\n    /* \"#utility.yul\":991:1026   */\n  eq\n    /* \"#utility.yul\":981:1044   */\n  tag_32\n  jumpi\n    /* \"#utility.yul\":1040:1041   */\n  0x00\n    /* \"#utility.yul\":1037:1038   */\n  dup1\n    /* \"#utility.yul\":1030:1042   */\n  revert\n    /* \"#utility.yul\":981:1044   */\ntag_32:\n    /* \"#utility.yul\":928:1050   */\n  pop\n  jump\t// out\n    /* \"#utility.yul\":1056:1199   */\ntag_16:\n    /* \"#utility.yul\":1113:1118   */\n  0x00\n    /* \"#utility.yul\":1144:1150   */\n  dup2\n    /* \"#utility.yul\":1138:1151   */\n  mload\n    /* \"#utility.yul\":1129:1151   */\n  swap1\n  pop\n    /* \"#utility.yul\":1160:1193   */\n  tag_34\n    /* \"#utility.yul\":1187:1192   */\n  dup2\n    /* \"#utility.yul\":1160:1193   */\n  tag_15\n  jump\t// in\ntag_34:\n    /* \"#utility.yul\":1056:1199   */\n  swap3\n  swap2\n  pop\n  pop\n  jump\t// out\n    /* \"#utility.yul\":1205:1712   */\ntag_3:\n    /* \"#utility.yul\":1284:1290   */\n  0x00\n    /* \"#utility.yul\":1292:1298   */\n  dup1\n    /* \"#utility.yul\":1341:1343   */\n  0x40\n    /* \"#utility.yul\":1329:1338   */\n  dup4\n    /* \"#utility.yul\":1320:1327   */\n  dup6\n    /* \"#utility.yul\":1316:1339   */\n  sub\n    /* \"#utility.yul\":1312:1344   */\n  slt\n    /* \"#utility.yul\":1309:1428   */\n  iszero\n  tag_36\n  jumpi\n    /* \"#utility.yul\":1347:1426   */\n  tag_37\n  tag_8\n  jump\t// in\ntag_37:\n    /* \"#utility.yul\":1309:1428   */\ntag_36:\n    /* \"#utility.yul\":1467:1468   */\n  0x00\n    /* \"#utility.yul\":1492:1556   */\n  tag_38\n    /* \"#utility.yul\":1548:1555   */\n  dup6\n    /* \"#utility.yul\":1539:1545   */\n  dup3\n    /* \"#utility.yul\":1528:1537   */\n  dup7\n    /* \"#utility.yul\":1524:1546   */\n  add\n    /* \"#utility.yul\":1492:1556   */\n  tag_12\n  jump\t// in\ntag_38:\n    /* \"#utility.yul\":1482:1556   */\n  swap3\n  pop\n    /* \"#utility.yul\":1438:1566   */\n  pop\n    /* \"#utility.yul\":1605:1607   */\n  0x20\n    /* \"#utility.yul\":1631:1695   */\n  tag_39\n    /* \"#utility.yul\":1687:1694   */\n  dup6\n    /* \"#utility.yul\":1678:1684   */\n  dup3\n    /* \"#utility.yul\":1667:1676   */\n  dup7\n    /* \"#utility.yul\":1663:1685   */\n  add\n    /* \"#utility.yul\":1631:1695   */\n  tag_16\n  jump\t// in\ntag_39:\n    /* \"#utility.yul\":1621:1695   */\n  swap2\n  pop\n    /* \"#utility.yul\":1576:1705   */\n  pop\n    /* \"#utility.yul\":1205:1712   */\n  swap3\n  pop\n  swap3\n  swap1\n  pop\n  jump\t// out\n    /* \"Campaign.sol\":454:4113  contract Campaign {... */\ntag_6:\n  dataSize(sub_0)\n  dup1\n  dataOffset(sub_0)\n  0x00\n  codecopy\n  0x00\n  return\nstop\n\nsub_0: assembly {\n        /* \"Campaign.sol\":454:4113  contract Campaign {... */\n      mstore(0x40, 0x80)\n      jumpi(tag_1, lt(calldatasize, 0x04))\n      shr(0xe0, calldataload(0x00))\n      dup1\n      0x8a9cfd55\n      gt\n      tag_14\n      jumpi\n      dup1\n      0x8a9cfd55\n      eq\n      tag_8\n      jumpi\n      dup1\n      0x937e09b1\n      eq\n      tag_9\n      jumpi\n      dup1\n      0x9fb42b1f\n      eq\n      tag_10\n      jumpi\n      dup1\n      0xbc24811f\n      eq\n      tag_11\n      jumpi\n      dup1\n      0xd7bb99ba\n      eq\n      tag_12\n      jumpi\n      dup1\n      0xd7d1bbdb\n      eq\n      tag_13\n      jumpi\n      jump(tag_1)\n    tag_14:\n      dup1\n      0x03441006\n      eq\n      tag_2\n      jumpi\n      dup1\n      0x0a144391\n      eq\n      tag_3\n      jumpi\n      dup1\n      0x4051ddac\n      eq\n      tag_4\n      jumpi\n      dup1\n      0x481c6a75\n      eq\n      tag_5\n      jumpi\n      dup1\n      0x81d12c58\n      eq\n      tag_6\n      jumpi\n      dup1\n      0x82fde093\n      eq\n      tag_7\n      jumpi\n    tag_1:\n      0x00\n      dup1\n      revert\n        /* \"Campaign.sol\":2917:3613  function finalizeRequest(uint index) public restricted... */\n    tag_2:\n      callvalue\n      dup1\n      iszero\n      tag_15\n      jumpi\n      0x00\n      dup1\n      revert\n    tag_15:\n      pop\n      tag_16\n      0x04\n      dup1\n      calldatasize\n      sub\n      dup2\n      add\n      swap1\n      tag_17\n      swap2\n      swap1\n      tag_18\n      jump\t// in\n    tag_17:\n      tag_19\n      jump\t// in\n    tag_16:\n      stop\n        /* \"Campaign.sol\":1163:1204  mapping(address => bool) public approvers */\n    tag_3:\n      callvalue\n      dup1\n      iszero\n      tag_20\n      jumpi\n      0x00\n      dup1\n      revert\n    tag_20:\n      pop\n      tag_21\n      0x04\n      dup1\n      calldatasize\n      sub\n      dup2\n      add\n      swap1\n      tag_22\n      swap2\n      swap1\n      tag_23\n      jump\t// in\n    tag_22:\n      tag_24\n      jump\t// in\n    tag_21:\n      mload(0x40)\n      tag_25\n      swap2\n      swap1\n      tag_26\n      jump\t// in\n    tag_25:\n      mload(0x40)\n      dup1\n      swap2\n      sub\n      swap1\n      return\n        /* \"Campaign.sol\":3621:4001  function getSummary()... */\n    tag_4:\n      callvalue\n      dup1\n      iszero\n      tag_27\n      jumpi\n      0x00\n      dup1\n      revert\n    tag_27:\n      pop\n      tag_28\n      tag_29\n      jump\t// in\n    tag_28:\n      mload(0x40)\n      tag_30\n      swap6\n      swap5\n      swap4\n      swap3\n      swap2\n      swap1\n      tag_31\n      jump\t// in\n    tag_30:\n      mload(0x40)\n      dup1\n      swap2\n      sub\n      swap1\n      return\n        /* \"Campaign.sol\":943:965  address public manager */\n    tag_5:\n      callvalue\n      dup1\n      iszero\n      tag_32\n      jumpi\n      0x00\n      dup1\n      revert\n    tag_32:\n      pop\n      tag_33\n      tag_34\n      jump\t// in\n    tag_33:\n      mload(0x40)\n      tag_35\n      swap2\n      swap1\n      tag_36\n      jump\t// in\n    tag_35:\n      mload(0x40)\n      dup1\n      swap2\n      sub\n      swap1\n      return\n        /* \"Campaign.sol\":896:936  mapping(uint => Request) public requests */\n    tag_6:\n      callvalue\n      dup1\n      iszero\n      tag_37\n      jumpi\n      0x00\n      dup1\n      revert\n    tag_37:\n      pop\n      tag_38\n      0x04\n      dup1\n      calldatasize\n      sub\n      dup2\n      add\n      swap1\n      tag_39\n      swap2\n      swap1\n      tag_18\n      jump\t// in\n    tag_39:\n      tag_40\n      jump\t// in\n    tag_38:\n      mload(0x40)\n      tag_41\n      swap6\n      swap5\n      swap4\n      swap3\n      swap2\n      swap1\n      tag_42\n      jump\t// in\n    tag_41:\n      mload(0x40)\n      dup1\n      swap2\n      sub\n      swap1\n      return\n        /* \"Campaign.sol\":1108:1134  uint public approversCount */\n    tag_7:\n      callvalue\n      dup1\n      iszero\n      tag_43\n      jumpi\n      0x00\n      dup1\n      revert\n    tag_43:\n      pop\n      tag_44\n      tag_45\n      jump\t// in\n    tag_44:\n      mload(0x40)\n      tag_46\n      swap2\n      swap1\n      tag_47\n      jump\t// in\n    tag_46:\n      mload(0x40)\n      dup1\n      swap2\n      sub\n      swap1\n      return\n        /* \"Campaign.sol\":1725:2138  function createRequest(... */\n    tag_8:\n      callvalue\n      dup1\n      iszero\n      tag_48\n      jumpi\n      0x00\n      dup1\n      revert\n    tag_48:\n      pop\n      tag_49\n      0x04\n      dup1\n      calldatasize\n      sub\n      dup2\n      add\n      swap1\n      tag_50\n      swap2\n      swap1\n      tag_51\n      jump\t// in\n    tag_50:\n      tag_52\n      jump\t// in\n    tag_49:\n      stop\n        /* \"Campaign.sol\":1027:1058  uint public minimumContribution */\n    tag_9:\n      callvalue\n      dup1\n      iszero\n      tag_53\n      jumpi\n      0x00\n      dup1\n      revert\n    tag_53:\n      pop\n      tag_54\n      tag_55\n      jump\t// in\n    tag_54:\n      mload(0x40)\n      tag_56\n      swap2\n      swap1\n      tag_47\n      jump\t// in\n    tag_56:\n      mload(0x40)\n      dup1\n      swap2\n      sub\n      swap1\n      return\n        /* \"Campaign.sol\":997:1020  uint public numRequests */\n    tag_10:\n      callvalue\n      dup1\n      iszero\n      tag_57\n      jumpi\n      0x00\n      dup1\n      revert\n    tag_57:\n      pop\n      tag_58\n      tag_59\n      jump\t// in\n    tag_58:\n      mload(0x40)\n      tag_60\n      swap2\n      swap1\n      tag_47\n      jump\t// in\n    tag_60:\n      mload(0x40)\n      dup1\n      swap2\n      sub\n      swap1\n      return\n        /* \"Campaign.sol\":4009:4108  function getRequestsCounts() public view returns (uint256){... */\n    tag_11:\n      callvalue\n      dup1\n      iszero\n      tag_61\n      jumpi\n      0x00\n      dup1\n      revert\n    tag_61:\n      pop\n      tag_62\n      tag_63\n      jump\t// in\n    tag_62:\n      mload(0x40)\n      tag_64\n      swap2\n      swap1\n      tag_47\n      jump\t// in\n    tag_64:\n      mload(0x40)\n      dup1\n      swap2\n      sub\n      swap1\n      return\n        /* \"Campaign.sol\":1410:1716  function contribute() public payable {... */\n    tag_12:\n      tag_65\n      tag_66\n      jump\t// in\n    tag_65:\n      stop\n        /* \"Campaign.sol\":2146:2909  function approveRequest(uint index) public restricted... */\n    tag_13:\n      callvalue\n      dup1\n      iszero\n      tag_67\n      jumpi\n      0x00\n      dup1\n      revert\n    tag_67:\n      pop\n      tag_68\n      0x04\n      dup1\n      calldatasize\n      sub\n      dup2\n      add\n      swap1\n      tag_69\n      swap2\n      swap1\n      tag_18\n      jump\t// in\n    tag_69:\n      tag_70\n      jump\t// in\n    tag_68:\n      stop\n        /* \"Campaign.sol\":2917:3613  function finalizeRequest(uint index) public restricted... */\n    tag_19:\n        /* \"Campaign.sol\":818:825  manager */\n      0x01\n      0x00\n      swap1\n      sload\n      swap1\n      0x0100\n      exp\n      swap1\n      div\n      0xffffffffffffffffffffffffffffffffffffffff\n      and\n        /* \"Campaign.sol\":804:825  msg.sender == manager */\n      0xffffffffffffffffffffffffffffffffffffffff\n      and\n        /* \"Campaign.sol\":804:814  msg.sender */\n      caller\n        /* \"Campaign.sol\":804:825  msg.sender == manager */\n      0xffffffffffffffffffffffffffffffffffffffff\n      and\n      eq\n        /* \"Campaign.sol\":782:868  require(... */\n      tag_72\n      jumpi\n      mload(0x40)\n      0x08c379a000000000000000000000000000000000000000000000000000000000\n      dup2\n      mstore\n      0x04\n      add\n      tag_73\n      swap1\n      tag_74\n      jump\t// in\n    tag_73:\n      mload(0x40)\n      dup1\n      swap2\n      sub\n      swap1\n      revert\n    tag_72:\n        /* \"Campaign.sol\":3085:3108  Request storage request */\n      0x00\n        /* \"Campaign.sol\":3111:3119  requests */\n      dup1\n        /* \"Campaign.sol\":3111:3126  requests[index] */\n      0x00\n        /* \"Campaign.sol\":3120:3125  index */\n      dup4\n        /* \"Campaign.sol\":3111:3126  requests[index] */\n      dup2\n      mstore\n      0x20\n      add\n      swap1\n      dup2\n      mstore\n      0x20\n      add\n      0x00\n      keccak256\n        /* \"Campaign.sol\":3085:3126  Request storage request = requests[index] */\n      swap1\n      pop\n        /* \"Campaign.sol\":3286:3287  2 */\n      0x02\n        /* \"Campaign.sol\":3269:3283  approversCount */\n      sload(0x04)\n        /* \"Campaign.sol\":3269:3287  approversCount / 2 */\n      tag_76\n      swap2\n      swap1\n      tag_77\n      jump\t// in\n    tag_76:\n        /* \"Campaign.sol\":3244:3251  request */\n      dup2\n        /* \"Campaign.sol\":3244:3265  request.approvalCount */\n      0x03\n      add\n      sload\n        /* \"Campaign.sol\":3244:3288  request.approvalCount > (approversCount / 2) */\n      gt\n        /* \"Campaign.sol\":3222:3336  require(... */\n      tag_78\n      jumpi\n      mload(0x40)\n      0x08c379a000000000000000000000000000000000000000000000000000000000\n      dup2\n      mstore\n      0x04\n      add\n      tag_79\n      swap1\n      tag_80\n      jump\t// in\n    tag_79:\n      mload(0x40)\n      dup1\n      swap2\n      sub\n      swap1\n      revert\n    tag_78:\n        /* \"Campaign.sol\":3439:3446  request */\n      dup1\n        /* \"Campaign.sol\":3439:3455  request.complete */\n      0x02\n      add\n      0x14\n      swap1\n      sload\n      swap1\n      0x0100\n      exp\n      swap1\n      div\n      0xff\n      and\n        /* \"Campaign.sol\":3438:3455  !request.complete */\n      iszero\n        /* \"Campaign.sol\":3416:3508  require(... */\n      tag_81\n      jumpi\n      mload(0x40)\n      0x08c379a000000000000000000000000000000000000000000000000000000000\n      dup2\n      mstore\n      0x04\n      add\n      tag_82\n      swap1\n      tag_83\n      jump\t// in\n    tag_82:\n      mload(0x40)\n      dup1\n      swap2\n      sub\n      swap1\n      revert\n    tag_81:\n        /* \"Campaign.sol\":3530:3537  request */\n      dup1\n        /* \"Campaign.sol\":3530:3547  request.recipient */\n      0x02\n      add\n      0x00\n      swap1\n      sload\n      swap1\n      0x0100\n      exp\n      swap1\n      div\n      0xffffffffffffffffffffffffffffffffffffffff\n      and\n        /* \"Campaign.sol\":3530:3556  request.recipient.transfer */\n      0xffffffffffffffffffffffffffffffffffffffff\n      and\n        /* \"Campaign.sol\":3530:3571  request.recipient.transfer(request.value) */\n      0x08fc\n        /* \"Campaign.sol\":3557:3564  request */\n      dup3\n        /* \"Campaign.sol\":3557:3570  request.value */\n      0x01\n      add\n      sload\n        /* \"Campaign.sol\":3530:3571  request.recipient.transfer(request.value) */\n      swap1\n      dup2\n      iszero\n      mul\n      swap1\n      mload(0x40)\n      0x00\n      mload(0x40)\n      dup1\n      dup4\n      sub\n      dup2\n      dup6\n      dup9\n      dup9\n      call\n      swap4\n      pop\n      pop\n      pop\n      pop\n      iszero\n      dup1\n      iszero\n      tag_85\n      jumpi\n      returndatasize\n      0x00\n      dup1\n      returndatacopy\n      revert(0x00, returndatasize)\n    tag_85:\n      pop\n        /* \"Campaign.sol\":3601:3605  true */\n      0x01\n        /* \"Campaign.sol\":3582:3589  request */\n      dup2\n        /* \"Campaign.sol\":3582:3598  request.complete */\n      0x02\n      add\n      0x14\n        /* \"Campaign.sol\":3582:3605  request.complete = true */\n      0x0100\n      exp\n      dup2\n      sload\n      dup2\n      0xff\n      mul\n      not\n      and\n      swap1\n      dup4\n      iszero\n      iszero\n      mul\n      or\n      swap1\n      sstore\n      pop\n        /* \"Campaign.sol\":2977:3613  {... */\n      pop\n        /* \"Campaign.sol\":2917:3613  function finalizeRequest(uint index) public restricted... */\n      pop\n      jump\t// out\n        /* \"Campaign.sol\":1163:1204  mapping(address => bool) public approvers */\n    tag_24:\n      mstore(0x20, 0x05)\n      dup1\n      0x00\n      mstore\n      keccak256(0x00, 0x40)\n      0x00\n      swap2\n      pop\n      sload\n      swap1\n      0x0100\n      exp\n      swap1\n      div\n      0xff\n      and\n      dup2\n      jump\t// out\n        /* \"Campaign.sol\":3621:4001  function getSummary()... */\n    tag_29:\n        /* \"Campaign.sol\":3705:3712  uint256 */\n      0x00\n        /* \"Campaign.sol\":3727:3734  uint256 */\n      dup1\n        /* \"Campaign.sol\":3749:3756  uint256 */\n      0x00\n        /* \"Campaign.sol\":3771:3778  uint256 */\n      dup1\n        /* \"Campaign.sol\":3793:3800  address */\n      0x00\n        /* \"Campaign.sol\":3850:3869  minimumContribution */\n      sload(0x03)\n        /* \"Campaign.sol\":3884:3905  address(this).balance */\n      selfbalance\n        /* \"Campaign.sol\":3920:3931  numRequests */\n      sload(0x02)\n        /* \"Campaign.sol\":3946:3960  approversCount */\n      sload(0x04)\n        /* \"Campaign.sol\":3975:3982  manager */\n      0x01\n      0x00\n      swap1\n      sload\n      swap1\n      0x0100\n      exp\n      swap1\n      div\n      0xffffffffffffffffffffffffffffffffffffffff\n      and\n        /* \"Campaign.sol\":3828:3993  return (... */\n      swap5\n      pop\n      swap5\n      pop\n      swap5\n      pop\n      swap5\n      pop\n      swap5\n      pop\n        /* \"Campaign.sol\":3621:4001  function getSummary()... */\n      swap1\n      swap2\n      swap3\n      swap4\n      swap5\n      jump\t// out\n        /* \"Campaign.sol\":943:965  address public manager */\n    tag_34:\n      0x01\n      0x00\n      swap1\n      sload\n      swap1\n      0x0100\n      exp\n      swap1\n      div\n      0xffffffffffffffffffffffffffffffffffffffff\n      and\n      dup2\n      jump\t// out\n        /* \"Campaign.sol\":896:936  mapping(uint => Request) public requests */\n    tag_40:\n      mstore(0x20, 0x00)\n      dup1\n      0x00\n      mstore\n      keccak256(0x00, 0x40)\n      0x00\n      swap2\n      pop\n      swap1\n      pop\n      dup1\n      0x00\n      add\n      dup1\n      sload\n      tag_87\n      swap1\n      tag_88\n      jump\t// in\n    tag_87:\n      dup1\n      0x1f\n      add\n      0x20\n      dup1\n      swap2\n      div\n      mul\n      0x20\n      add\n      mload(0x40)\n      swap1\n      dup2\n      add\n      0x40\n      mstore\n      dup1\n      swap3\n      swap2\n      swap1\n      dup2\n      dup2\n      mstore\n      0x20\n      add\n      dup3\n      dup1\n      sload\n      tag_89\n      swap1\n      tag_88\n      jump\t// in\n    tag_89:\n      dup1\n      iszero\n      tag_90\n      jumpi\n      dup1\n      0x1f\n      lt\n      tag_91\n      jumpi\n      0x0100\n      dup1\n      dup4\n      sload\n      div\n      mul\n      dup4\n      mstore\n      swap2\n      0x20\n      add\n      swap2\n      jump(tag_90)\n    tag_91:\n      dup3\n      add\n      swap2\n      swap1\n      0x00\n      mstore\n      keccak256(0x00, 0x20)\n      swap1\n    tag_92:\n      dup2\n      sload\n      dup2\n      mstore\n      swap1\n      0x01\n      add\n      swap1\n      0x20\n      add\n      dup1\n      dup4\n      gt\n      tag_92\n      jumpi\n      dup3\n      swap1\n      sub\n      0x1f\n      and\n      dup3\n      add\n      swap2\n    tag_90:\n      pop\n      pop\n      pop\n      pop\n      pop\n      swap1\n      dup1\n      0x01\n      add\n      sload\n      swap1\n      dup1\n      0x02\n      add\n      0x00\n      swap1\n      sload\n      swap1\n      0x0100\n      exp\n      swap1\n      div\n      0xffffffffffffffffffffffffffffffffffffffff\n      and\n      swap1\n      dup1\n      0x02\n      add\n      0x14\n      swap1\n      sload\n      swap1\n      0x0100\n      exp\n      swap1\n      div\n      0xff\n      and\n      swap1\n      dup1\n      0x03\n      add\n      sload\n      swap1\n      pop\n      dup6\n      jump\t// out\n        /* \"Campaign.sol\":1108:1134  uint public approversCount */\n    tag_45:\n      sload(0x04)\n      dup2\n      jump\t// out\n        /* \"Campaign.sol\":1725:2138  function createRequest(... */\n    tag_52:\n        /* \"Campaign.sol\":818:825  manager */\n      0x01\n      0x00\n      swap1\n      sload\n      swap1\n      0x0100\n      exp\n      swap1\n      div\n      0xffffffffffffffffffffffffffffffffffffffff\n      and\n        /* \"Campaign.sol\":804:825  msg.sender == manager */\n      0xffffffffffffffffffffffffffffffffffffffff\n      and\n        /* \"Campaign.sol\":804:814  msg.sender */\n      caller\n        /* \"Campaign.sol\":804:825  msg.sender == manager */\n      0xffffffffffffffffffffffffffffffffffffffff\n      and\n      eq\n        /* \"Campaign.sol\":782:868  require(... */\n      tag_94\n      jumpi\n      mload(0x40)\n      0x08c379a000000000000000000000000000000000000000000000000000000000\n      dup2\n      mstore\n      0x04\n      add\n      tag_95\n      swap1\n      tag_74\n      jump\t// in\n    tag_95:\n      mload(0x40)\n      dup1\n      swap2\n      sub\n      swap1\n      revert\n    tag_94:\n        /* \"Campaign.sol\":1879:1905  Request storage newRequest */\n      0x00\n        /* \"Campaign.sol\":1908:1916  requests */\n      dup1\n        /* \"Campaign.sol\":1908:1931  requests[numRequests++] */\n      0x00\n        /* \"Campaign.sol\":1917:1928  numRequests */\n      0x02\n      0x00\n        /* \"Campaign.sol\":1917:1930  numRequests++ */\n      dup2\n      sload\n      dup1\n      swap3\n      swap2\n      swap1\n      tag_97\n      swap1\n      tag_98\n      jump\t// in\n    tag_97:\n      swap2\n      swap1\n      pop\n      sstore\n        /* \"Campaign.sol\":1908:1931  requests[numRequests++] */\n      dup2\n      mstore\n      0x20\n      add\n      swap1\n      dup2\n      mstore\n      0x20\n      add\n      0x00\n      keccak256\n        /* \"Campaign.sol\":1879:1931  Request storage newRequest = requests[numRequests++] */\n      swap1\n      pop\n        /* \"Campaign.sol\":1968:1979  description */\n      dup4\n        /* \"Campaign.sol\":1943:1953  newRequest */\n      dup2\n        /* \"Campaign.sol\":1943:1965  newRequest.description */\n      0x00\n      add\n        /* \"Campaign.sol\":1943:1979  newRequest.description = description */\n      swap1\n      dup2\n      tag_99\n      swap2\n      swap1\n      tag_100\n      jump\t// in\n    tag_99:\n      pop\n        /* \"Campaign.sol\":2008:2013  value */\n      dup3\n        /* \"Campaign.sol\":1990:2000  newRequest */\n      dup2\n        /* \"Campaign.sol\":1990:2006  newRequest.value */\n      0x01\n      add\n        /* \"Campaign.sol\":1990:2013  newRequest.value= value */\n      dup2\n      swap1\n      sstore\n      pop\n        /* \"Campaign.sol\":2046:2055  recipient */\n      dup2\n        /* \"Campaign.sol\":2024:2034  newRequest */\n      dup2\n        /* \"Campaign.sol\":2024:2044  newRequest.recipient */\n      0x02\n      add\n      0x00\n        /* \"Campaign.sol\":2024:2055  newRequest.recipient= recipient */\n      0x0100\n      exp\n      dup2\n      sload\n      dup2\n      0xffffffffffffffffffffffffffffffffffffffff\n      mul\n      not\n      and\n      swap1\n      dup4\n      0xffffffffffffffffffffffffffffffffffffffff\n      and\n      mul\n      or\n      swap1\n      sstore\n      pop\n        /* \"Campaign.sol\":2087:2092  false */\n      0x00\n        /* \"Campaign.sol\":2066:2076  newRequest */\n      dup2\n        /* \"Campaign.sol\":2066:2085  newRequest.complete */\n      0x02\n      add\n      0x14\n        /* \"Campaign.sol\":2066:2092  newRequest.complete= false */\n      0x0100\n      exp\n      dup2\n      sload\n      dup2\n      0xff\n      mul\n      not\n      and\n      swap1\n      dup4\n      iszero\n      iszero\n      mul\n      or\n      swap1\n      sstore\n      pop\n        /* \"Campaign.sol\":2129:2130  0 */\n      0x00\n        /* \"Campaign.sol\":2103:2113  newRequest */\n      dup2\n        /* \"Campaign.sol\":2103:2127  newRequest.approvalCount */\n      0x03\n      add\n        /* \"Campaign.sol\":2103:2130  newRequest.approvalCount= 0 */\n      dup2\n      swap1\n      sstore\n      pop\n        /* \"Campaign.sol\":1868:2138  {... */\n      pop\n        /* \"Campaign.sol\":1725:2138  function createRequest(... */\n      pop\n      pop\n      pop\n      jump\t// out\n        /* \"Campaign.sol\":1027:1058  uint public minimumContribution */\n    tag_55:\n      sload(0x03)\n      dup2\n      jump\t// out\n        /* \"Campaign.sol\":997:1020  uint public numRequests */\n    tag_59:\n      sload(0x02)\n      dup2\n      jump\t// out\n        /* \"Campaign.sol\":4009:4108  function getRequestsCounts() public view returns (uint256){... */\n    tag_63:\n        /* \"Campaign.sol\":4059:4066  uint256 */\n      0x00\n        /* \"Campaign.sol\":4089:4100  numRequests */\n      sload(0x02)\n        /* \"Campaign.sol\":4082:4100  return numRequests */\n      swap1\n      pop\n        /* \"Campaign.sol\":4009:4108  function getRequestsCounts() public view returns (uint256){... */\n      swap1\n      jump\t// out\n        /* \"Campaign.sol\":1410:1716  function contribute() public payable {... */\n    tag_66:\n        /* \"Campaign.sol\":1492:1511  minimumContribution */\n      sload(0x03)\n        /* \"Campaign.sol\":1480:1489  msg.value */\n      callvalue\n        /* \"Campaign.sol\":1480:1511  msg.value > minimumContribution */\n      gt\n        /* \"Campaign.sol\":1458:1575  require(... */\n      tag_103\n      jumpi\n      mload(0x40)\n      0x08c379a000000000000000000000000000000000000000000000000000000000\n      dup2\n      mstore\n      0x04\n      add\n      tag_104\n      swap1\n      tag_105\n      jump\t// in\n    tag_104:\n      mload(0x40)\n      dup1\n      swap2\n      sub\n      swap1\n      revert\n    tag_103:\n        /* \"Campaign.sol\":1592:1601  approvers */\n      0x05\n        /* \"Campaign.sol\":1592:1613  approvers[msg.sender] */\n      0x00\n        /* \"Campaign.sol\":1602:1612  msg.sender */\n      caller\n        /* \"Campaign.sol\":1592:1613  approvers[msg.sender] */\n      0xffffffffffffffffffffffffffffffffffffffff\n      and\n      0xffffffffffffffffffffffffffffffffffffffff\n      and\n      dup2\n      mstore\n      0x20\n      add\n      swap1\n      dup2\n      mstore\n      0x20\n      add\n      0x00\n      keccak256\n      0x00\n      swap1\n      sload\n      swap1\n      0x0100\n      exp\n      swap1\n      div\n      0xff\n      and\n        /* \"Campaign.sol\":1587:1700  if (!approvers[msg.sender]) {... */\n      tag_106\n      jumpi\n        /* \"Campaign.sol\":1654:1658  true */\n      0x01\n        /* \"Campaign.sol\":1630:1639  approvers */\n      0x05\n        /* \"Campaign.sol\":1630:1651  approvers[msg.sender] */\n      0x00\n        /* \"Campaign.sol\":1640:1650  msg.sender */\n      caller\n        /* \"Campaign.sol\":1630:1651  approvers[msg.sender] */\n      0xffffffffffffffffffffffffffffffffffffffff\n      and\n      0xffffffffffffffffffffffffffffffffffffffff\n      and\n      dup2\n      mstore\n      0x20\n      add\n      swap1\n      dup2\n      mstore\n      0x20\n      add\n      0x00\n      keccak256\n      0x00\n        /* \"Campaign.sol\":1630:1658  approvers[msg.sender] = true */\n      0x0100\n      exp\n      dup2\n      sload\n      dup2\n      0xff\n      mul\n      not\n      and\n      swap1\n      dup4\n      iszero\n      iszero\n      mul\n      or\n      swap1\n      sstore\n      pop\n        /* \"Campaign.sol\":1673:1687  approversCount */\n      0x04\n      0x00\n        /* \"Campaign.sol\":1673:1689  approversCount++ */\n      dup2\n      sload\n      dup1\n      swap3\n      swap2\n      swap1\n      tag_107\n      swap1\n      tag_98\n      jump\t// in\n    tag_107:\n      swap2\n      swap1\n      pop\n      sstore\n      pop\n        /* \"Campaign.sol\":1587:1700  if (!approvers[msg.sender]) {... */\n    tag_106:\n        /* \"Campaign.sol\":1410:1716  function contribute() public payable {... */\n      jump\t// out\n        /* \"Campaign.sol\":2146:2909  function approveRequest(uint index) public restricted... */\n    tag_70:\n        /* \"Campaign.sol\":818:825  manager */\n      0x01\n      0x00\n      swap1\n      sload\n      swap1\n      0x0100\n      exp\n      swap1\n      div\n      0xffffffffffffffffffffffffffffffffffffffff\n      and\n        /* \"Campaign.sol\":804:825  msg.sender == manager */\n      0xffffffffffffffffffffffffffffffffffffffff\n      and\n        /* \"Campaign.sol\":804:814  msg.sender */\n      caller\n        /* \"Campaign.sol\":804:825  msg.sender == manager */\n      0xffffffffffffffffffffffffffffffffffffffff\n      and\n      eq\n        /* \"Campaign.sol\":782:868  require(... */\n      tag_109\n      jumpi\n      mload(0x40)\n      0x08c379a000000000000000000000000000000000000000000000000000000000\n      dup2\n      mstore\n      0x04\n      add\n      tag_110\n      swap1\n      tag_74\n      jump\t// in\n    tag_110:\n      mload(0x40)\n      dup1\n      swap2\n      sub\n      swap1\n      revert\n    tag_109:\n        /* \"Campaign.sol\":2216:2239  Request storage request */\n      0x00\n        /* \"Campaign.sol\":2242:2250  requests */\n      dup1\n        /* \"Campaign.sol\":2242:2257  requests[index] */\n      0x00\n        /* \"Campaign.sol\":2251:2256  index */\n      dup4\n        /* \"Campaign.sol\":2242:2257  requests[index] */\n      dup2\n      mstore\n      0x20\n      add\n      swap1\n      dup2\n      mstore\n      0x20\n      add\n      0x00\n      keccak256\n        /* \"Campaign.sol\":2216:2257  Request storage request = requests[index] */\n      swap1\n      pop\n        /* \"Campaign.sol\":2342:2351  approvers */\n      0x05\n        /* \"Campaign.sol\":2342:2363  approvers[msg.sender] */\n      0x00\n        /* \"Campaign.sol\":2352:2362  msg.sender */\n      caller\n        /* \"Campaign.sol\":2342:2363  approvers[msg.sender] */\n      0xffffffffffffffffffffffffffffffffffffffff\n      and\n      0xffffffffffffffffffffffffffffffffffffffff\n      and\n      dup2\n      mstore\n      0x20\n      add\n      swap1\n      dup2\n      mstore\n      0x20\n      add\n      0x00\n      keccak256\n      0x00\n      swap1\n      sload\n      swap1\n      0x0100\n      exp\n      swap1\n      div\n      0xff\n      and\n        /* \"Campaign.sol\":2320:2407  require(... */\n      tag_112\n      jumpi\n      mload(0x40)\n      0x08c379a000000000000000000000000000000000000000000000000000000000\n      dup2\n      mstore\n      0x04\n      add\n      tag_113\n      swap1\n      tag_114\n      jump\t// in\n    tag_113:\n      mload(0x40)\n      dup1\n      swap2\n      sub\n      swap1\n      revert\n    tag_112:\n        /* \"Campaign.sol\":2576:2583  request */\n      dup1\n        /* \"Campaign.sol\":2576:2593  request.approvals */\n      0x04\n      add\n        /* \"Campaign.sol\":2576:2605  request.approvals[msg.sender] */\n      0x00\n        /* \"Campaign.sol\":2594:2604  msg.sender */\n      caller\n        /* \"Campaign.sol\":2576:2605  request.approvals[msg.sender] */\n      0xffffffffffffffffffffffffffffffffffffffff\n      and\n      0xffffffffffffffffffffffffffffffffffffffff\n      and\n      dup2\n      mstore\n      0x20\n      add\n      swap1\n      dup2\n      mstore\n      0x20\n      add\n      0x00\n      keccak256\n      0x00\n      swap1\n      sload\n      swap1\n      0x0100\n      exp\n      swap1\n      div\n      0xff\n      and\n        /* \"Campaign.sol\":2575:2605  !request.approvals[msg.sender] */\n      iszero\n        /* \"Campaign.sol\":2553:2699  require(... */\n      tag_115\n      jumpi\n      mload(0x40)\n      0x08c379a000000000000000000000000000000000000000000000000000000000\n      dup2\n      mstore\n      0x04\n      add\n      tag_116\n      swap1\n      tag_117\n      jump\t// in\n    tag_116:\n      mload(0x40)\n      dup1\n      swap2\n      sub\n      swap1\n      revert\n    tag_115:\n        /* \"Campaign.sol\":2761:2765  true */\n      0x01\n        /* \"Campaign.sol\":2721:2729  requests */\n      0x00\n        /* \"Campaign.sol\":2721:2736  requests[index] */\n      dup1\n        /* \"Campaign.sol\":2730:2735  index */\n      dup5\n        /* \"Campaign.sol\":2721:2736  requests[index] */\n      dup2\n      mstore\n      0x20\n      add\n      swap1\n      dup2\n      mstore\n      0x20\n      add\n      0x00\n      keccak256\n        /* \"Campaign.sol\":2721:2746  requests[index].approvals */\n      0x04\n      add\n        /* \"Campaign.sol\":2721:2758  requests[index].approvals[msg.sender] */\n      0x00\n        /* \"Campaign.sol\":2747:2757  msg.sender */\n      caller\n        /* \"Campaign.sol\":2721:2758  requests[index].approvals[msg.sender] */\n      0xffffffffffffffffffffffffffffffffffffffff\n      and\n      0xffffffffffffffffffffffffffffffffffffffff\n      and\n      dup2\n      mstore\n      0x20\n      add\n      swap1\n      dup2\n      mstore\n      0x20\n      add\n      0x00\n      keccak256\n      0x00\n        /* \"Campaign.sol\":2721:2765  requests[index].approvals[msg.sender] = true */\n      0x0100\n      exp\n      dup2\n      sload\n      dup2\n      0xff\n      mul\n      not\n      and\n      swap1\n      dup4\n      iszero\n      iszero\n      mul\n      or\n      swap1\n      sstore\n      pop\n        /* \"Campaign.sol\":2825:2833  requests */\n      0x00\n        /* \"Campaign.sol\":2825:2840  requests[index] */\n      dup1\n        /* \"Campaign.sol\":2834:2839  index */\n      dup4\n        /* \"Campaign.sol\":2825:2840  requests[index] */\n      dup2\n      mstore\n      0x20\n      add\n      swap1\n      dup2\n      mstore\n      0x20\n      add\n      0x00\n      keccak256\n        /* \"Campaign.sol\":2825:2854  requests[index].approvalCount */\n      0x03\n      add\n      0x00\n        /* \"Campaign.sol\":2825:2856  requests[index].approvalCount++ */\n      dup2\n      sload\n      dup1\n      swap3\n      swap2\n      swap1\n      tag_118\n      swap1\n      tag_98\n      jump\t// in\n    tag_118:\n      swap2\n      swap1\n      pop\n      sstore\n      pop\n        /* \"Campaign.sol\":2205:2909  {... */\n      pop\n        /* \"Campaign.sol\":2146:2909  function approveRequest(uint index) public restricted... */\n      pop\n      jump\t// out\n        /* \"#utility.yul\":7:82   */\n    tag_119:\n        /* \"#utility.yul\":40:46   */\n      0x00\n        /* \"#utility.yul\":73:75   */\n      0x40\n        /* \"#utility.yul\":67:76   */\n      mload\n        /* \"#utility.yul\":57:76   */\n      swap1\n      pop\n        /* \"#utility.yul\":7:82   */\n      swap1\n      jump\t// out\n        /* \"#utility.yul\":88:205   */\n    tag_120:\n        /* \"#utility.yul\":197:198   */\n      0x00\n        /* \"#utility.yul\":194:195   */\n      dup1\n        /* \"#utility.yul\":187:199   */\n      revert\n        /* \"#utility.yul\":211:328   */\n    tag_121:\n        /* \"#utility.yul\":320:321   */\n      0x00\n        /* \"#utility.yul\":317:318   */\n      dup1\n        /* \"#utility.yul\":310:322   */\n      revert\n        /* \"#utility.yul\":334:411   */\n    tag_122:\n        /* \"#utility.yul\":371:378   */\n      0x00\n        /* \"#utility.yul\":400:405   */\n      dup2\n        /* \"#utility.yul\":389:405   */\n      swap1\n      pop\n        /* \"#utility.yul\":334:411   */\n      swap2\n      swap1\n      pop\n      jump\t// out\n        /* \"#utility.yul\":417:539   */\n    tag_123:\n        /* \"#utility.yul\":490:514   */\n      tag_187\n        /* \"#utility.yul\":508:513   */\n      dup2\n        /* \"#utility.yul\":490:514   */\n      tag_122\n      jump\t// in\n    tag_187:\n        /* \"#utility.yul\":483:488   */\n      dup2\n        /* \"#utility.yul\":480:515   */\n      eq\n        /* \"#utility.yul\":470:533   */\n      tag_188\n      jumpi\n        /* \"#utility.yul\":529:530   */\n      0x00\n        /* \"#utility.yul\":526:527   */\n      dup1\n        /* \"#utility.yul\":519:531   */\n      revert\n        /* \"#utility.yul\":470:533   */\n    tag_188:\n        /* \"#utility.yul\":417:539   */\n      pop\n      jump\t// out\n        /* \"#utility.yul\":545:684   */\n    tag_124:\n        /* \"#utility.yul\":591:596   */\n      0x00\n        /* \"#utility.yul\":629:635   */\n      dup2\n        /* \"#utility.yul\":616:636   */\n      calldataload\n        /* \"#utility.yul\":607:636   */\n      swap1\n      pop\n        /* \"#utility.yul\":645:678   */\n      tag_190\n        /* \"#utility.yul\":672:677   */\n      dup2\n        /* \"#utility.yul\":645:678   */\n      tag_123\n      jump\t// in\n    tag_190:\n        /* \"#utility.yul\":545:684   */\n      swap3\n      swap2\n      pop\n      pop\n      jump\t// out\n        /* \"#utility.yul\":690:1019   */\n    tag_18:\n        /* \"#utility.yul\":749:755   */\n      0x00\n        /* \"#utility.yul\":798:800   */\n      0x20\n        /* \"#utility.yul\":786:795   */\n      dup3\n        /* \"#utility.yul\":777:784   */\n      dup5\n        /* \"#utility.yul\":773:796   */\n      sub\n        /* \"#utility.yul\":769:801   */\n      slt\n        /* \"#utility.yul\":766:885   */\n      iszero\n      tag_192\n      jumpi\n        /* \"#utility.yul\":804:883   */\n      tag_193\n      tag_120\n      jump\t// in\n    tag_193:\n        /* \"#utility.yul\":766:885   */\n    tag_192:\n        /* \"#utility.yul\":924:925   */\n      0x00\n        /* \"#utility.yul\":949:1002   */\n      tag_194\n        /* \"#utility.yul\":994:1001   */\n      dup5\n        /* \"#utility.yul\":985:991   */\n      dup3\n        /* \"#utility.yul\":974:983   */\n      dup6\n        /* \"#utility.yul\":970:992   */\n      add\n        /* \"#utility.yul\":949:1002   */\n      tag_124\n      jump\t// in\n    tag_194:\n        /* \"#utility.yul\":939:1002   */\n      swap2\n      pop\n        /* \"#utility.yul\":895:1012   */\n      pop\n        /* \"#utility.yul\":690:1019   */\n      swap3\n      swap2\n      pop\n      pop\n      jump\t// out\n        /* \"#utility.yul\":1025:1151   */\n    tag_125:\n        /* \"#utility.yul\":1062:1069   */\n      0x00\n        /* \"#utility.yul\":1102:1144   */\n      0xffffffffffffffffffffffffffffffffffffffff\n        /* \"#utility.yul\":1095:1100   */\n      dup3\n        /* \"#utility.yul\":1091:1145   */\n      and\n        /* \"#utility.yul\":1080:1145   */\n      swap1\n      pop\n        /* \"#utility.yul\":1025:1151   */\n      swap2\n      swap1\n      pop\n      jump\t// out\n        /* \"#utility.yul\":1157:1253   */\n    tag_126:\n        /* \"#utility.yul\":1194:1201   */\n      0x00\n        /* \"#utility.yul\":1223:1247   */\n      tag_197\n        /* \"#utility.yul\":1241:1246   */\n      dup3\n        /* \"#utility.yul\":1223:1247   */\n      tag_125\n      jump\t// in\n    tag_197:\n        /* \"#utility.yul\":1212:1247   */\n      swap1\n      pop\n        /* \"#utility.yul\":1157:1253   */\n      swap2\n      swap1\n      pop\n      jump\t// out\n        /* \"#utility.yul\":1259:1381   */\n    tag_127:\n        /* \"#utility.yul\":1332:1356   */\n      tag_199\n        /* \"#utility.yul\":1350:1355   */\n      dup2\n        /* \"#utility.yul\":1332:1356   */\n      tag_126\n      jump\t// in\n    tag_199:\n        /* \"#utility.yul\":1325:1330   */\n      dup2\n        /* \"#utility.yul\":1322:1357   */\n      eq\n        /* \"#utility.yul\":1312:1375   */\n      tag_200\n      jumpi\n        /* \"#utility.yul\":1371:1372   */\n      0x00\n        /* \"#utility.yul\":1368:1369   */\n      dup1\n        /* \"#utility.yul\":1361:1373   */\n      revert\n        /* \"#utility.yul\":1312:1375   */\n    tag_200:\n        /* \"#utility.yul\":1259:1381   */\n      pop\n      jump\t// out\n        /* \"#utility.yul\":1387:1526   */\n    tag_128:\n        /* \"#utility.yul\":1433:1438   */\n      0x00\n        /* \"#utility.yul\":1471:1477   */\n      dup2\n        /* \"#utility.yul\":1458:1478   */\n      calldataload\n        /* \"#utility.yul\":1449:1478   */\n      swap1\n      pop\n        /* \"#utility.yul\":1487:1520   */\n      tag_202\n        /* \"#utility.yul\":1514:1519   */\n      dup2\n        /* \"#utility.yul\":1487:1520   */\n      tag_127\n      jump\t// in\n    tag_202:\n        /* \"#utility.yul\":1387:1526   */\n      swap3\n      swap2\n      pop\n      pop\n      jump\t// out\n        /* \"#utility.yul\":1532:1861   */\n    tag_23:\n        /* \"#utility.yul\":1591:1597   */\n      0x00\n        /* \"#utility.yul\":1640:1642   */\n      0x20\n        /* \"#utility.yul\":1628:1637   */\n      dup3\n        /* \"#utility.yul\":1619:1626   */\n      dup5\n        /* \"#utility.yul\":1615:1638   */\n      sub\n        /* \"#utility.yul\":1611:1643   */\n      slt\n        /* \"#utility.yul\":1608:1727   */\n      iszero\n      tag_204\n      jumpi\n        /* \"#utility.yul\":1646:1725   */\n      tag_205\n      tag_120\n      jump\t// in\n    tag_205:\n        /* \"#utility.yul\":1608:1727   */\n    tag_204:\n        /* \"#utility.yul\":1766:1767   */\n      0x00\n        /* \"#utility.yul\":1791:1844   */\n      tag_206\n        /* \"#utility.yul\":1836:1843   */\n      dup5\n        /* \"#utility.yul\":1827:1833   */\n      dup3\n        /* \"#utility.yul\":1816:1825   */\n      dup6\n        /* \"#utility.yul\":1812:1834   */\n      add\n        /* \"#utility.yul\":1791:1844   */\n      tag_128\n      jump\t// in\n    tag_206:\n        /* \"#utility.yul\":1781:1844   */\n      swap2\n      pop\n        /* \"#utility.yul\":1737:1854   */\n      pop\n        /* \"#utility.yul\":1532:1861   */\n      swap3\n      swap2\n      pop\n      pop\n      jump\t// out\n        /* \"#utility.yul\":1867:1957   */\n    tag_129:\n        /* \"#utility.yul\":1901:1908   */\n      0x00\n        /* \"#utility.yul\":1944:1949   */\n      dup2\n        /* \"#utility.yul\":1937:1950   */\n      iszero\n        /* \"#utility.yul\":1930:1951   */\n      iszero\n        /* \"#utility.yul\":1919:1951   */\n      swap1\n      pop\n        /* \"#utility.yul\":1867:1957   */\n      swap2\n      swap1\n      pop\n      jump\t// out\n        /* \"#utility.yul\":1963:2072   */\n    tag_130:\n        /* \"#utility.yul\":2044:2065   */\n      tag_209\n        /* \"#utility.yul\":2059:2064   */\n      dup2\n        /* \"#utility.yul\":2044:2065   */\n      tag_129\n      jump\t// in\n    tag_209:\n        /* \"#utility.yul\":2039:2042   */\n      dup3\n        /* \"#utility.yul\":2032:2066   */\n      mstore\n        /* \"#utility.yul\":1963:2072   */\n      pop\n      pop\n      jump\t// out\n        /* \"#utility.yul\":2078:2288   */\n    tag_26:\n        /* \"#utility.yul\":2165:2169   */\n      0x00\n        /* \"#utility.yul\":2203:2205   */\n      0x20\n        /* \"#utility.yul\":2192:2201   */\n      dup3\n        /* \"#utility.yul\":2188:2206   */\n      add\n        /* \"#utility.yul\":2180:2206   */\n      swap1\n      pop\n        /* \"#utility.yul\":2216:2281   */\n      tag_211\n        /* \"#utility.yul\":2278:2279   */\n      0x00\n        /* \"#utility.yul\":2267:2276   */\n      dup4\n        /* \"#utility.yul\":2263:2280   */\n      add\n        /* \"#utility.yul\":2254:2260   */\n      dup5\n        /* \"#utility.yul\":2216:2281   */\n      tag_130\n      jump\t// in\n    tag_211:\n        /* \"#utility.yul\":2078:2288   */\n      swap3\n      swap2\n      pop\n      pop\n      jump\t// out\n        /* \"#utility.yul\":2294:2412   */\n    tag_131:\n        /* \"#utility.yul\":2381:2405   */\n      tag_213\n        /* \"#utility.yul\":2399:2404   */\n      dup2\n        /* \"#utility.yul\":2381:2405   */\n      tag_122\n      jump\t// in\n    tag_213:\n        /* \"#utility.yul\":2376:2379   */\n      dup3\n        /* \"#utility.yul\":2369:2406   */\n      mstore\n        /* \"#utility.yul\":2294:2412   */\n      pop\n      pop\n      jump\t// out\n        /* \"#utility.yul\":2418:2536   */\n    tag_132:\n        /* \"#utility.yul\":2505:2529   */\n      tag_215\n        /* \"#utility.yul\":2523:2528   */\n      dup2\n        /* \"#utility.yul\":2505:2529   */\n      tag_126\n      jump\t// in\n    tag_215:\n        /* \"#utility.yul\":2500:2503   */\n      dup3\n        /* \"#utility.yul\":2493:2530   */\n      mstore\n        /* \"#utility.yul\":2418:2536   */\n      pop\n      pop\n      jump\t// out\n        /* \"#utility.yul\":2542:3206   */\n    tag_31:\n        /* \"#utility.yul\":2747:2751   */\n      0x00\n        /* \"#utility.yul\":2785:2788   */\n      0xa0\n        /* \"#utility.yul\":2774:2783   */\n      dup3\n        /* \"#utility.yul\":2770:2789   */\n      add\n        /* \"#utility.yul\":2762:2789   */\n      swap1\n      pop\n        /* \"#utility.yul\":2799:2870   */\n      tag_217\n        /* \"#utility.yul\":2867:2868   */\n      0x00\n        /* \"#utility.yul\":2856:2865   */\n      dup4\n        /* \"#utility.yul\":2852:2869   */\n      add\n        /* \"#utility.yul\":2843:2849   */\n      dup9\n        /* \"#utility.yul\":2799:2870   */\n      tag_131\n      jump\t// in\n    tag_217:\n        /* \"#utility.yul\":2880:2952   */\n      tag_218\n        /* \"#utility.yul\":2948:2950   */\n      0x20\n        /* \"#utility.yul\":2937:2946   */\n      dup4\n        /* \"#utility.yul\":2933:2951   */\n      add\n        /* \"#utility.yul\":2924:2930   */\n      dup8\n        /* \"#utility.yul\":2880:2952   */\n      tag_131\n      jump\t// in\n    tag_218:\n        /* \"#utility.yul\":2962:3034   */\n      tag_219\n        /* \"#utility.yul\":3030:3032   */\n      0x40\n        /* \"#utility.yul\":3019:3028   */\n      dup4\n        /* \"#utility.yul\":3015:3033   */\n      add\n        /* \"#utility.yul\":3006:3012   */\n      dup7\n        /* \"#utility.yul\":2962:3034   */\n      tag_131\n      jump\t// in\n    tag_219:\n        /* \"#utility.yul\":3044:3116   */\n      tag_220\n        /* \"#utility.yul\":3112:3114   */\n      0x60\n        /* \"#utility.yul\":3101:3110   */\n      dup4\n        /* \"#utility.yul\":3097:3115   */\n      add\n        /* \"#utility.yul\":3088:3094   */\n      dup6\n        /* \"#utility.yul\":3044:3116   */\n      tag_131\n      jump\t// in\n    tag_220:\n        /* \"#utility.yul\":3126:3199   */\n      tag_221\n        /* \"#utility.yul\":3194:3197   */\n      0x80\n        /* \"#utility.yul\":3183:3192   */\n      dup4\n        /* \"#utility.yul\":3179:3198   */\n      add\n        /* \"#utility.yul\":3170:3176   */\n      dup5\n        /* \"#utility.yul\":3126:3199   */\n      tag_132\n      jump\t// in\n    tag_221:\n        /* \"#utility.yul\":2542:3206   */\n      swap7\n      swap6\n      pop\n      pop\n      pop\n      pop\n      pop\n      pop\n      jump\t// out\n        /* \"#utility.yul\":3212:3434   */\n    tag_36:\n        /* \"#utility.yul\":3305:3309   */\n      0x00\n        /* \"#utility.yul\":3343:3345   */\n      0x20\n        /* \"#utility.yul\":3332:3341   */\n      dup3\n        /* \"#utility.yul\":3328:3346   */\n      add\n        /* \"#utility.yul\":3320:3346   */\n      swap1\n      pop\n        /* \"#utility.yul\":3356:3427   */\n      tag_223\n        /* \"#utility.yul\":3424:3425   */\n      0x00\n        /* \"#utility.yul\":3413:3422   */\n      dup4\n        /* \"#utility.yul\":3409:3426   */\n      add\n        /* \"#utility.yul\":3400:3406   */\n      dup5\n        /* \"#utility.yul\":3356:3427   */\n      tag_132\n      jump\t// in\n    tag_223:\n        /* \"#utility.yul\":3212:3434   */\n      swap3\n      swap2\n      pop\n      pop\n      jump\t// out\n        /* \"#utility.yul\":3440:3539   */\n    tag_133:\n        /* \"#utility.yul\":3492:3498   */\n      0x00\n        /* \"#utility.yul\":3526:3531   */\n      dup2\n        /* \"#utility.yul\":3520:3532   */\n      mload\n        /* \"#utility.yul\":3510:3532   */\n      swap1\n      pop\n        /* \"#utility.yul\":3440:3539   */\n      swap2\n      swap1\n      pop\n      jump\t// out\n        /* \"#utility.yul\":3545:3714   */\n    tag_134:\n        /* \"#utility.yul\":3629:3640   */\n      0x00\n        /* \"#utility.yul\":3663:3669   */\n      dup3\n        /* \"#utility.yul\":3658:3661   */\n      dup3\n        /* \"#utility.yul\":3651:3670   */\n      mstore\n        /* \"#utility.yul\":3703:3707   */\n      0x20\n        /* \"#utility.yul\":3698:3701   */\n      dup3\n        /* \"#utility.yul\":3694:3708   */\n      add\n        /* \"#utility.yul\":3679:3708   */\n      swap1\n      pop\n        /* \"#utility.yul\":3545:3714   */\n      swap3\n      swap2\n      pop\n      pop\n      jump\t// out\n        /* \"#utility.yul\":3720:3966   */\n    tag_135:\n        /* \"#utility.yul\":3801:3802   */\n      0x00\n        /* \"#utility.yul\":3811:3924   */\n    tag_227:\n        /* \"#utility.yul\":3825:3831   */\n      dup4\n        /* \"#utility.yul\":3822:3823   */\n      dup2\n        /* \"#utility.yul\":3819:3832   */\n      lt\n        /* \"#utility.yul\":3811:3924   */\n      iszero\n      tag_229\n      jumpi\n        /* \"#utility.yul\":3910:3911   */\n      dup1\n        /* \"#utility.yul\":3905:3908   */\n      dup3\n        /* \"#utility.yul\":3901:3912   */\n      add\n        /* \"#utility.yul\":3895:3913   */\n      mload\n        /* \"#utility.yul\":3891:3892   */\n      dup2\n        /* \"#utility.yul\":3886:3889   */\n      dup5\n        /* \"#utility.yul\":3882:3893   */\n      add\n        /* \"#utility.yul\":3875:3914   */\n      mstore\n        /* \"#utility.yul\":3847:3849   */\n      0x20\n        /* \"#utility.yul\":3844:3845   */\n      dup2\n        /* \"#utility.yul\":3840:3850   */\n      add\n        /* \"#utility.yul\":3835:3850   */\n      swap1\n      pop\n        /* \"#utility.yul\":3811:3924   */\n      jump(tag_227)\n    tag_229:\n        /* \"#utility.yul\":3958:3959   */\n      0x00\n        /* \"#utility.yul\":3949:3955   */\n      dup5\n        /* \"#utility.yul\":3944:3947   */\n      dup5\n        /* \"#utility.yul\":3940:3956   */\n      add\n        /* \"#utility.yul\":3933:3960   */\n      mstore\n        /* \"#utility.yul\":3782:3966   */\n      pop\n        /* \"#utility.yul\":3720:3966   */\n      pop\n      pop\n      pop\n      jump\t// out\n        /* \"#utility.yul\":3972:4074   */\n    tag_136:\n        /* \"#utility.yul\":4013:4019   */\n      0x00\n        /* \"#utility.yul\":4064:4066   */\n      0x1f\n        /* \"#utility.yul\":4060:4067   */\n      not\n        /* \"#utility.yul\":4055:4057   */\n      0x1f\n        /* \"#utility.yul\":4048:4053   */\n      dup4\n        /* \"#utility.yul\":4044:4058   */\n      add\n        /* \"#utility.yul\":4040:4068   */\n      and\n        /* \"#utility.yul\":4030:4068   */\n      swap1\n      pop\n        /* \"#utility.yul\":3972:4074   */\n      swap2\n      swap1\n      pop\n      jump\t// out\n        /* \"#utility.yul\":4080:4457   */\n    tag_137:\n        /* \"#utility.yul\":4168:4171   */\n      0x00\n        /* \"#utility.yul\":4196:4235   */\n      tag_232\n        /* \"#utility.yul\":4229:4234   */\n      dup3\n        /* \"#utility.yul\":4196:4235   */\n      tag_133\n      jump\t// in\n    tag_232:\n        /* \"#utility.yul\":4251:4322   */\n      tag_233\n        /* \"#utility.yul\":4315:4321   */\n      dup2\n        /* \"#utility.yul\":4310:4313   */\n      dup6\n        /* \"#utility.yul\":4251:4322   */\n      tag_134\n      jump\t// in\n    tag_233:\n        /* \"#utility.yul\":4244:4322   */\n      swap4\n      pop\n        /* \"#utility.yul\":4331:4396   */\n      tag_234\n        /* \"#utility.yul\":4389:4395   */\n      dup2\n        /* \"#utility.yul\":4384:4387   */\n      dup6\n        /* \"#utility.yul\":4377:4381   */\n      0x20\n        /* \"#utility.yul\":4370:4375   */\n      dup7\n        /* \"#utility.yul\":4366:4382   */\n      add\n        /* \"#utility.yul\":4331:4396   */\n      tag_135\n      jump\t// in\n    tag_234:\n        /* \"#utility.yul\":4421:4450   */\n      tag_235\n        /* \"#utility.yul\":4443:4449   */\n      dup2\n        /* \"#utility.yul\":4421:4450   */\n      tag_136\n      jump\t// in\n    tag_235:\n        /* \"#utility.yul\":4416:4419   */\n      dup5\n        /* \"#utility.yul\":4412:4451   */\n      add\n        /* \"#utility.yul\":4405:4451   */\n      swap2\n      pop\n        /* \"#utility.yul\":4172:4457   */\n      pop\n        /* \"#utility.yul\":4080:4457   */\n      swap3\n      swap2\n      pop\n      pop\n      jump\t// out\n        /* \"#utility.yul\":4463:4567   */\n    tag_138:\n        /* \"#utility.yul\":4508:4515   */\n      0x00\n        /* \"#utility.yul\":4537:4561   */\n      tag_237\n        /* \"#utility.yul\":4555:4560   */\n      dup3\n        /* \"#utility.yul\":4537:4561   */\n      tag_125\n      jump\t// in\n    tag_237:\n        /* \"#utility.yul\":4526:4561   */\n      swap1\n      pop\n        /* \"#utility.yul\":4463:4567   */\n      swap2\n      swap1\n      pop\n      jump\t// out\n        /* \"#utility.yul\":4573:4715   */\n    tag_139:\n        /* \"#utility.yul\":4676:4708   */\n      tag_239\n        /* \"#utility.yul\":4702:4707   */\n      dup2\n        /* \"#utility.yul\":4676:4708   */\n      tag_138\n      jump\t// in\n    tag_239:\n        /* \"#utility.yul\":4671:4674   */\n      dup3\n        /* \"#utility.yul\":4664:4709   */\n      mstore\n        /* \"#utility.yul\":4573:4715   */\n      pop\n      pop\n      jump\t// out\n        /* \"#utility.yul\":4721:5496   */\n    tag_42:\n        /* \"#utility.yul\":4956:4960   */\n      0x00\n        /* \"#utility.yul\":4994:4997   */\n      0xa0\n        /* \"#utility.yul\":4983:4992   */\n      dup3\n        /* \"#utility.yul\":4979:4998   */\n      add\n        /* \"#utility.yul\":4971:4998   */\n      swap1\n      pop\n        /* \"#utility.yul\":5044:5053   */\n      dup2\n        /* \"#utility.yul\":5038:5042   */\n      dup2\n        /* \"#utility.yul\":5034:5054   */\n      sub\n        /* \"#utility.yul\":5030:5031   */\n      0x00\n        /* \"#utility.yul\":5019:5028   */\n      dup4\n        /* \"#utility.yul\":5015:5032   */\n      add\n        /* \"#utility.yul\":5008:5055   */\n      mstore\n        /* \"#utility.yul\":5072:5150   */\n      tag_241\n        /* \"#utility.yul\":5145:5149   */\n      dup2\n        /* \"#utility.yul\":5136:5142   */\n      dup9\n        /* \"#utility.yul\":5072:5150   */\n      tag_137\n      jump\t// in\n    tag_241:\n        /* \"#utility.yul\":5064:5150   */\n      swap1\n      pop\n        /* \"#utility.yul\":5160:5232   */\n      tag_242\n        /* \"#utility.yul\":5228:5230   */\n      0x20\n        /* \"#utility.yul\":5217:5226   */\n      dup4\n        /* \"#utility.yul\":5213:5231   */\n      add\n        /* \"#utility.yul\":5204:5210   */\n      dup8\n        /* \"#utility.yul\":5160:5232   */\n      tag_131\n      jump\t// in\n    tag_242:\n        /* \"#utility.yul\":5242:5330   */\n      tag_243\n        /* \"#utility.yul\":5326:5328   */\n      0x40\n        /* \"#utility.yul\":5315:5324   */\n      dup4\n        /* \"#utility.yul\":5311:5329   */\n      add\n        /* \"#utility.yul\":5302:5308   */\n      dup7\n        /* \"#utility.yul\":5242:5330   */\n      tag_139\n      jump\t// in\n    tag_243:\n        /* \"#utility.yul\":5340:5406   */\n      tag_244\n        /* \"#utility.yul\":5402:5404   */\n      0x60\n        /* \"#utility.yul\":5391:5400   */\n      dup4\n        /* \"#utility.yul\":5387:5405   */\n      add\n        /* \"#utility.yul\":5378:5384   */\n      dup6\n        /* \"#utility.yul\":5340:5406   */\n      tag_130\n      jump\t// in\n    tag_244:\n        /* \"#utility.yul\":5416:5489   */\n      tag_245\n        /* \"#utility.yul\":5484:5487   */\n      0x80\n        /* \"#utility.yul\":5473:5482   */\n      dup4\n        /* \"#utility.yul\":5469:5488   */\n      add\n        /* \"#utility.yul\":5460:5466   */\n      dup5\n        /* \"#utility.yul\":5416:5489   */\n      tag_131\n      jump\t// in\n    tag_245:\n        /* \"#utility.yul\":4721:5496   */\n      swap7\n      swap6\n      pop\n      pop\n      pop\n      pop\n      pop\n      pop\n      jump\t// out\n        /* \"#utility.yul\":5502:5724   */\n    tag_47:\n        /* \"#utility.yul\":5595:5599   */\n      0x00\n        /* \"#utility.yul\":5633:5635   */\n      0x20\n        /* \"#utility.yul\":5622:5631   */\n      dup3\n        /* \"#utility.yul\":5618:5636   */\n      add\n        /* \"#utility.yul\":5610:5636   */\n      swap1\n      pop\n        /* \"#utility.yul\":5646:5717   */\n      tag_247\n        /* \"#utility.yul\":5714:5715   */\n      0x00\n        /* \"#utility.yul\":5703:5712   */\n      dup4\n        /* \"#utility.yul\":5699:5716   */\n      add\n        /* \"#utility.yul\":5690:5696   */\n      dup5\n        /* \"#utility.yul\":5646:5717   */\n      tag_131\n      jump\t// in\n    tag_247:\n        /* \"#utility.yul\":5502:5724   */\n      swap3\n      swap2\n      pop\n      pop\n      jump\t// out\n        /* \"#utility.yul\":5730:5847   */\n    tag_140:\n        /* \"#utility.yul\":5839:5840   */\n      0x00\n        /* \"#utility.yul\":5836:5837   */\n      dup1\n        /* \"#utility.yul\":5829:5841   */\n      revert\n        /* \"#utility.yul\":5853:5970   */\n    tag_141:\n        /* \"#utility.yul\":5962:5963   */\n      0x00\n        /* \"#utility.yul\":5959:5960   */\n      dup1\n        /* \"#utility.yul\":5952:5964   */\n      revert\n        /* \"#utility.yul\":5976:6156   */\n    tag_142:\n        /* \"#utility.yul\":6024:6101   */\n      0x4e487b7100000000000000000000000000000000000000000000000000000000\n        /* \"#utility.yul\":6021:6022   */\n      0x00\n        /* \"#utility.yul\":6014:6102   */\n      mstore\n        /* \"#utility.yul\":6121:6125   */\n      0x41\n        /* \"#utility.yul\":6118:6119   */\n      0x04\n        /* \"#utility.yul\":6111:6126   */\n      mstore\n        /* \"#utility.yul\":6145:6149   */\n      0x24\n        /* \"#utility.yul\":6142:6143   */\n      0x00\n        /* \"#utility.yul\":6135:6150   */\n      revert\n        /* \"#utility.yul\":6162:6443   */\n    tag_143:\n        /* \"#utility.yul\":6245:6272   */\n      tag_252\n        /* \"#utility.yul\":6267:6271   */\n      dup3\n        /* \"#utility.yul\":6245:6272   */\n      tag_136\n      jump\t// in\n    tag_252:\n        /* \"#utility.yul\":6237:6243   */\n      dup2\n        /* \"#utility.yul\":6233:6273   */\n      add\n        /* \"#utility.yul\":6375:6381   */\n      dup2\n        /* \"#utility.yul\":6363:6373   */\n      dup2\n        /* \"#utility.yul\":6360:6382   */\n      lt\n        /* \"#utility.yul\":6339:6357   */\n      0xffffffffffffffff\n        /* \"#utility.yul\":6327:6337   */\n      dup3\n        /* \"#utility.yul\":6324:6358   */\n      gt\n        /* \"#utility.yul\":6321:6383   */\n      or\n        /* \"#utility.yul\":6318:6406   */\n      iszero\n      tag_253\n      jumpi\n        /* \"#utility.yul\":6386:6404   */\n      tag_254\n      tag_142\n      jump\t// in\n    tag_254:\n        /* \"#utility.yul\":6318:6406   */\n    tag_253:\n        /* \"#utility.yul\":6426:6436   */\n      dup1\n        /* \"#utility.yul\":6422:6424   */\n      0x40\n        /* \"#utility.yul\":6415:6437   */\n      mstore\n        /* \"#utility.yul\":6205:6443   */\n      pop\n        /* \"#utility.yul\":6162:6443   */\n      pop\n      pop\n      jump\t// out\n        /* \"#utility.yul\":6449:6578   */\n    tag_144:\n        /* \"#utility.yul\":6483:6489   */\n      0x00\n        /* \"#utility.yul\":6510:6530   */\n      tag_256\n      tag_119\n      jump\t// in\n    tag_256:\n        /* \"#utility.yul\":6500:6530   */\n      swap1\n      pop\n        /* \"#utility.yul\":6539:6572   */\n      tag_257\n        /* \"#utility.yul\":6567:6571   */\n      dup3\n        /* \"#utility.yul\":6559:6565   */\n      dup3\n        /* \"#utility.yul\":6539:6572   */\n      tag_143\n      jump\t// in\n    tag_257:\n        /* \"#utility.yul\":6449:6578   */\n      swap2\n      swap1\n      pop\n      jump\t// out\n        /* \"#utility.yul\":6584:6892   */\n    tag_145:\n        /* \"#utility.yul\":6646:6650   */\n      0x00\n        /* \"#utility.yul\":6736:6754   */\n      0xffffffffffffffff\n        /* \"#utility.yul\":6728:6734   */\n      dup3\n        /* \"#utility.yul\":6725:6755   */\n      gt\n        /* \"#utility.yul\":6722:6778   */\n      iszero\n      tag_259\n      jumpi\n        /* \"#utility.yul\":6758:6776   */\n      tag_260\n      tag_142\n      jump\t// in\n    tag_260:\n        /* \"#utility.yul\":6722:6778   */\n    tag_259:\n        /* \"#utility.yul\":6796:6825   */\n      tag_261\n        /* \"#utility.yul\":6818:6824   */\n      dup3\n        /* \"#utility.yul\":6796:6825   */\n      tag_136\n      jump\t// in\n    tag_261:\n        /* \"#utility.yul\":6788:6825   */\n      swap1\n      pop\n        /* \"#utility.yul\":6880:6884   */\n      0x20\n        /* \"#utility.yul\":6874:6878   */\n      dup2\n        /* \"#utility.yul\":6870:6885   */\n      add\n        /* \"#utility.yul\":6862:6885   */\n      swap1\n      pop\n        /* \"#utility.yul\":6584:6892   */\n      swap2\n      swap1\n      pop\n      jump\t// out\n        /* \"#utility.yul\":6898:7044   */\n    tag_146:\n        /* \"#utility.yul\":6995:7001   */\n      dup3\n        /* \"#utility.yul\":6990:6993   */\n      dup2\n        /* \"#utility.yul\":6985:6988   */\n      dup4\n        /* \"#utility.yul\":6972:7002   */\n      calldatacopy\n        /* \"#utility.yul\":7036:7037   */\n      0x00\n        /* \"#utility.yul\":7027:7033   */\n      dup4\n        /* \"#utility.yul\":7022:7025   */\n      dup4\n        /* \"#utility.yul\":7018:7034   */\n      add\n        /* \"#utility.yul\":7011:7038   */\n      mstore\n        /* \"#utility.yul\":6898:7044   */\n      pop\n      pop\n      pop\n      jump\t// out\n        /* \"#utility.yul\":7050:7475   */\n    tag_147:\n        /* \"#utility.yul\":7128:7133   */\n      0x00\n        /* \"#utility.yul\":7153:7219   */\n      tag_264\n        /* \"#utility.yul\":7169:7218   */\n      tag_265\n        /* \"#utility.yul\":7211:7217   */\n      dup5\n        /* \"#utility.yul\":7169:7218   */\n      tag_145\n      jump\t// in\n    tag_265:\n        /* \"#utility.yul\":7153:7219   */\n      tag_144\n      jump\t// in\n    tag_264:\n        /* \"#utility.yul\":7144:7219   */\n      swap1\n      pop\n        /* \"#utility.yul\":7242:7248   */\n      dup3\n        /* \"#utility.yul\":7235:7240   */\n      dup2\n        /* \"#utility.yul\":7228:7249   */\n      mstore\n        /* \"#utility.yul\":7280:7284   */\n      0x20\n        /* \"#utility.yul\":7273:7278   */\n      dup2\n        /* \"#utility.yul\":7269:7285   */\n      add\n        /* \"#utility.yul\":7318:7321   */\n      dup5\n        /* \"#utility.yul\":7309:7315   */\n      dup5\n        /* \"#utility.yul\":7304:7307   */\n      dup5\n        /* \"#utility.yul\":7300:7316   */\n      add\n        /* \"#utility.yul\":7297:7322   */\n      gt\n        /* \"#utility.yul\":7294:7406   */\n      iszero\n      tag_266\n      jumpi\n        /* \"#utility.yul\":7325:7404   */\n      tag_267\n      tag_141\n      jump\t// in\n    tag_267:\n        /* \"#utility.yul\":7294:7406   */\n    tag_266:\n        /* \"#utility.yul\":7415:7469   */\n      tag_268\n        /* \"#utility.yul\":7462:7468   */\n      dup5\n        /* \"#utility.yul\":7457:7460   */\n      dup3\n        /* \"#utility.yul\":7452:7455   */\n      dup6\n        /* \"#utility.yul\":7415:7469   */\n      tag_146\n      jump\t// in\n    tag_268:\n        /* \"#utility.yul\":7134:7475   */\n      pop\n        /* \"#utility.yul\":7050:7475   */\n      swap4\n      swap3\n      pop\n      pop\n      pop\n      jump\t// out\n        /* \"#utility.yul\":7495:7835   */\n    tag_148:\n        /* \"#utility.yul\":7551:7556   */\n      0x00\n        /* \"#utility.yul\":7600:7603   */\n      dup3\n        /* \"#utility.yul\":7593:7597   */\n      0x1f\n        /* \"#utility.yul\":7585:7591   */\n      dup4\n        /* \"#utility.yul\":7581:7598   */\n      add\n        /* \"#utility.yul\":7577:7604   */\n      slt\n        /* \"#utility.yul\":7567:7689   */\n      tag_270\n      jumpi\n        /* \"#utility.yul\":7608:7687   */\n      tag_271\n      tag_140\n      jump\t// in\n    tag_271:\n        /* \"#utility.yul\":7567:7689   */\n    tag_270:\n        /* \"#utility.yul\":7725:7731   */\n      dup2\n        /* \"#utility.yul\":7712:7732   */\n      calldataload\n        /* \"#utility.yul\":7750:7829   */\n      tag_272\n        /* \"#utility.yul\":7825:7828   */\n      dup5\n        /* \"#utility.yul\":7817:7823   */\n      dup3\n        /* \"#utility.yul\":7810:7814   */\n      0x20\n        /* \"#utility.yul\":7802:7808   */\n      dup7\n        /* \"#utility.yul\":7798:7815   */\n      add\n        /* \"#utility.yul\":7750:7829   */\n      tag_147\n      jump\t// in\n    tag_272:\n        /* \"#utility.yul\":7741:7829   */\n      swap2\n      pop\n        /* \"#utility.yul\":7557:7835   */\n      pop\n        /* \"#utility.yul\":7495:7835   */\n      swap3\n      swap2\n      pop\n      pop\n      jump\t// out\n        /* \"#utility.yul\":7841:7979   */\n    tag_149:\n        /* \"#utility.yul\":7922:7954   */\n      tag_274\n        /* \"#utility.yul\":7948:7953   */\n      dup2\n        /* \"#utility.yul\":7922:7954   */\n      tag_138\n      jump\t// in\n    tag_274:\n        /* \"#utility.yul\":7915:7920   */\n      dup2\n        /* \"#utility.yul\":7912:7955   */\n      eq\n        /* \"#utility.yul\":7902:7973   */\n      tag_275\n      jumpi\n        /* \"#utility.yul\":7969:7970   */\n      0x00\n        /* \"#utility.yul\":7966:7967   */\n      dup1\n        /* \"#utility.yul\":7959:7971   */\n      revert\n        /* \"#utility.yul\":7902:7973   */\n    tag_275:\n        /* \"#utility.yul\":7841:7979   */\n      pop\n      jump\t// out\n        /* \"#utility.yul\":7985:8140   */\n    tag_150:\n        /* \"#utility.yul\":8039:8044   */\n      0x00\n        /* \"#utility.yul\":8077:8083   */\n      dup2\n        /* \"#utility.yul\":8064:8084   */\n      calldataload\n        /* \"#utility.yul\":8055:8084   */\n      swap1\n      pop\n        /* \"#utility.yul\":8093:8134   */\n      tag_277\n        /* \"#utility.yul\":8128:8133   */\n      dup2\n        /* \"#utility.yul\":8093:8134   */\n      tag_149\n      jump\t// in\n    tag_277:\n        /* \"#utility.yul\":7985:8140   */\n      swap3\n      swap2\n      pop\n      pop\n      jump\t// out\n        /* \"#utility.yul\":8146:8961   */\n    tag_51:\n        /* \"#utility.yul\":8241:8247   */\n      0x00\n        /* \"#utility.yul\":8249:8255   */\n      dup1\n        /* \"#utility.yul\":8257:8263   */\n      0x00\n        /* \"#utility.yul\":8306:8308   */\n      0x60\n        /* \"#utility.yul\":8294:8303   */\n      dup5\n        /* \"#utility.yul\":8285:8292   */\n      dup7\n        /* \"#utility.yul\":8281:8304   */\n      sub\n        /* \"#utility.yul\":8277:8309   */\n      slt\n        /* \"#utility.yul\":8274:8393   */\n      iszero\n      tag_279\n      jumpi\n        /* \"#utility.yul\":8312:8391   */\n      tag_280\n      tag_120\n      jump\t// in\n    tag_280:\n        /* \"#utility.yul\":8274:8393   */\n    tag_279:\n        /* \"#utility.yul\":8460:8461   */\n      0x00\n        /* \"#utility.yul\":8449:8458   */\n      dup5\n        /* \"#utility.yul\":8445:8462   */\n      add\n        /* \"#utility.yul\":8432:8463   */\n      calldataload\n        /* \"#utility.yul\":8490:8508   */\n      0xffffffffffffffff\n        /* \"#utility.yul\":8482:8488   */\n      dup2\n        /* \"#utility.yul\":8479:8509   */\n      gt\n        /* \"#utility.yul\":8476:8593   */\n      iszero\n      tag_281\n      jumpi\n        /* \"#utility.yul\":8512:8591   */\n      tag_282\n      tag_121\n      jump\t// in\n    tag_282:\n        /* \"#utility.yul\":8476:8593   */\n    tag_281:\n        /* \"#utility.yul\":8617:8680   */\n      tag_283\n        /* \"#utility.yul\":8672:8679   */\n      dup7\n        /* \"#utility.yul\":8663:8669   */\n      dup3\n        /* \"#utility.yul\":8652:8661   */\n      dup8\n        /* \"#utility.yul\":8648:8670   */\n      add\n        /* \"#utility.yul\":8617:8680   */\n      tag_148\n      jump\t// in\n    tag_283:\n        /* \"#utility.yul\":8607:8680   */\n      swap4\n      pop\n        /* \"#utility.yul\":8403:8690   */\n      pop\n        /* \"#utility.yul\":8729:8731   */\n      0x20\n        /* \"#utility.yul\":8755:8808   */\n      tag_284\n        /* \"#utility.yul\":8800:8807   */\n      dup7\n        /* \"#utility.yul\":8791:8797   */\n      dup3\n        /* \"#utility.yul\":8780:8789   */\n      dup8\n        /* \"#utility.yul\":8776:8798   */\n      add\n        /* \"#utility.yul\":8755:8808   */\n      tag_124\n      jump\t// in\n    tag_284:\n        /* \"#utility.yul\":8745:8808   */\n      swap3\n      pop\n        /* \"#utility.yul\":8700:8818   */\n      pop\n        /* \"#utility.yul\":8857:8859   */\n      0x40\n        /* \"#utility.yul\":8883:8944   */\n      tag_285\n        /* \"#utility.yul\":8936:8943   */\n      dup7\n        /* \"#utility.yul\":8927:8933   */\n      dup3\n        /* \"#utility.yul\":8916:8925   */\n      dup8\n        /* \"#utility.yul\":8912:8934   */\n      add\n        /* \"#utility.yul\":8883:8944   */\n      tag_150\n      jump\t// in\n    tag_285:\n        /* \"#utility.yul\":8873:8944   */\n      swap2\n      pop\n        /* \"#utility.yul\":8828:8954   */\n      pop\n        /* \"#utility.yul\":8146:8961   */\n      swap3\n      pop\n      swap3\n      pop\n      swap3\n      jump\t// out\n        /* \"#utility.yul\":8967:9132   */\n    tag_151:\n        /* \"#utility.yul\":9107:9124   */\n      0x4e6f7420746865206d616e616765720000000000000000000000000000000000\n        /* \"#utility.yul\":9103:9104   */\n      0x00\n        /* \"#utility.yul\":9095:9101   */\n      dup3\n        /* \"#utility.yul\":9091:9105   */\n      add\n        /* \"#utility.yul\":9084:9125   */\n      mstore\n        /* \"#utility.yul\":8967:9132   */\n      pop\n      jump\t// out\n        /* \"#utility.yul\":9138:9504   */\n    tag_152:\n        /* \"#utility.yul\":9280:9283   */\n      0x00\n        /* \"#utility.yul\":9301:9368   */\n      tag_288\n        /* \"#utility.yul\":9365:9367   */\n      0x0f\n        /* \"#utility.yul\":9360:9363   */\n      dup4\n        /* \"#utility.yul\":9301:9368   */\n      tag_134\n      jump\t// in\n    tag_288:\n        /* \"#utility.yul\":9294:9368   */\n      swap2\n      pop\n        /* \"#utility.yul\":9377:9470   */\n      tag_289\n        /* \"#utility.yul\":9466:9469   */\n      dup3\n        /* \"#utility.yul\":9377:9470   */\n      tag_151\n      jump\t// in\n    tag_289:\n        /* \"#utility.yul\":9495:9497   */\n      0x20\n        /* \"#utility.yul\":9490:9493   */\n      dup3\n        /* \"#utility.yul\":9486:9498   */\n      add\n        /* \"#utility.yul\":9479:9498   */\n      swap1\n      pop\n        /* \"#utility.yul\":9138:9504   */\n      swap2\n      swap1\n      pop\n      jump\t// out\n        /* \"#utility.yul\":9510:9929   */\n    tag_74:\n        /* \"#utility.yul\":9676:9680   */\n      0x00\n        /* \"#utility.yul\":9714:9716   */\n      0x20\n        /* \"#utility.yul\":9703:9712   */\n      dup3\n        /* \"#utility.yul\":9699:9717   */\n      add\n        /* \"#utility.yul\":9691:9717   */\n      swap1\n      pop\n        /* \"#utility.yul\":9763:9772   */\n      dup2\n        /* \"#utility.yul\":9757:9761   */\n      dup2\n        /* \"#utility.yul\":9753:9773   */\n      sub\n        /* \"#utility.yul\":9749:9750   */\n      0x00\n        /* \"#utility.yul\":9738:9747   */\n      dup4\n        /* \"#utility.yul\":9734:9751   */\n      add\n        /* \"#utility.yul\":9727:9774   */\n      mstore\n        /* \"#utility.yul\":9791:9922   */\n      tag_291\n        /* \"#utility.yul\":9917:9921   */\n      dup2\n        /* \"#utility.yul\":9791:9922   */\n      tag_152\n      jump\t// in\n    tag_291:\n        /* \"#utility.yul\":9783:9922   */\n      swap1\n      pop\n        /* \"#utility.yul\":9510:9929   */\n      swap2\n      swap1\n      pop\n      jump\t// out\n        /* \"#utility.yul\":9935:10115   */\n    tag_153:\n        /* \"#utility.yul\":9983:10060   */\n      0x4e487b7100000000000000000000000000000000000000000000000000000000\n        /* \"#utility.yul\":9980:9981   */\n      0x00\n        /* \"#utility.yul\":9973:10061   */\n      mstore\n        /* \"#utility.yul\":10080:10084   */\n      0x12\n        /* \"#utility.yul\":10077:10078   */\n      0x04\n        /* \"#utility.yul\":10070:10085   */\n      mstore\n        /* \"#utility.yul\":10104:10108   */\n      0x24\n        /* \"#utility.yul\":10101:10102   */\n      0x00\n        /* \"#utility.yul\":10094:10109   */\n      revert\n        /* \"#utility.yul\":10121:10301   */\n    tag_154:\n        /* \"#utility.yul\":10169:10246   */\n      0x4e487b7100000000000000000000000000000000000000000000000000000000\n        /* \"#utility.yul\":10166:10167   */\n      0x00\n        /* \"#utility.yul\":10159:10247   */\n      mstore\n        /* \"#utility.yul\":10266:10270   */\n      0x11\n        /* \"#utility.yul\":10263:10264   */\n      0x04\n        /* \"#utility.yul\":10256:10271   */\n      mstore\n        /* \"#utility.yul\":10290:10294   */\n      0x24\n        /* \"#utility.yul\":10287:10288   */\n      0x00\n        /* \"#utility.yul\":10280:10295   */\n      revert\n        /* \"#utility.yul\":10307:10492   */\n    tag_77:\n        /* \"#utility.yul\":10347:10348   */\n      0x00\n        /* \"#utility.yul\":10364:10384   */\n      tag_295\n        /* \"#utility.yul\":10382:10383   */\n      dup3\n        /* \"#utility.yul\":10364:10384   */\n      tag_122\n      jump\t// in\n    tag_295:\n        /* \"#utility.yul\":10359:10384   */\n      swap2\n      pop\n        /* \"#utility.yul\":10398:10418   */\n      tag_296\n        /* \"#utility.yul\":10416:10417   */\n      dup4\n        /* \"#utility.yul\":10398:10418   */\n      tag_122\n      jump\t// in\n    tag_296:\n        /* \"#utility.yul\":10393:10418   */\n      swap3\n      pop\n        /* \"#utility.yul\":10437:10438   */\n      dup3\n        /* \"#utility.yul\":10427:10462   */\n      tag_297\n      jumpi\n        /* \"#utility.yul\":10442:10460   */\n      tag_298\n      tag_153\n      jump\t// in\n    tag_298:\n        /* \"#utility.yul\":10427:10462   */\n    tag_297:\n        /* \"#utility.yul\":10484:10485   */\n      dup3\n        /* \"#utility.yul\":10481:10482   */\n      dup3\n        /* \"#utility.yul\":10477:10486   */\n      div\n        /* \"#utility.yul\":10472:10486   */\n      swap1\n      pop\n        /* \"#utility.yul\":10307:10492   */\n      swap3\n      swap2\n      pop\n      pop\n      jump\t// out\n        /* \"#utility.yul\":10498:10668   */\n    tag_155:\n        /* \"#utility.yul\":10638:10660   */\n      0x4e6f7420656e6f75676820617070726f76657273000000000000000000000000\n        /* \"#utility.yul\":10634:10635   */\n      0x00\n        /* \"#utility.yul\":10626:10632   */\n      dup3\n        /* \"#utility.yul\":10622:10636   */\n      add\n        /* \"#utility.yul\":10615:10661   */\n      mstore\n        /* \"#utility.yul\":10498:10668   */\n      pop\n      jump\t// out\n        /* \"#utility.yul\":10674:11040   */\n    tag_156:\n        /* \"#utility.yul\":10816:10819   */\n      0x00\n        /* \"#utility.yul\":10837:10904   */\n      tag_301\n        /* \"#utility.yul\":10901:10903   */\n      0x14\n        /* \"#utility.yul\":10896:10899   */\n      dup4\n        /* \"#utility.yul\":10837:10904   */\n      tag_134\n      jump\t// in\n    tag_301:\n        /* \"#utility.yul\":10830:10904   */\n      swap2\n      pop\n        /* \"#utility.yul\":10913:11006   */\n      tag_302\n        /* \"#utility.yul\":11002:11005   */\n      dup3\n        /* \"#utility.yul\":10913:11006   */\n      tag_155\n      jump\t// in\n    tag_302:\n        /* \"#utility.yul\":11031:11033   */\n      0x20\n        /* \"#utility.yul\":11026:11029   */\n      dup3\n        /* \"#utility.yul\":11022:11034   */\n      add\n        /* \"#utility.yul\":11015:11034   */\n      swap1\n      pop\n        /* \"#utility.yul\":10674:11040   */\n      swap2\n      swap1\n      pop\n      jump\t// out\n        /* \"#utility.yul\":11046:11465   */\n    tag_80:\n        /* \"#utility.yul\":11212:11216   */\n      0x00\n        /* \"#utility.yul\":11250:11252   */\n      0x20\n        /* \"#utility.yul\":11239:11248   */\n      dup3\n        /* \"#utility.yul\":11235:11253   */\n      add\n        /* \"#utility.yul\":11227:11253   */\n      swap1\n      pop\n        /* \"#utility.yul\":11299:11308   */\n      dup2\n        /* \"#utility.yul\":11293:11297   */\n      dup2\n        /* \"#utility.yul\":11289:11309   */\n      sub\n        /* \"#utility.yul\":11285:11286   */\n      0x00\n        /* \"#utility.yul\":11274:11283   */\n      dup4\n        /* \"#utility.yul\":11270:11287   */\n      add\n        /* \"#utility.yul\":11263:11310   */\n      mstore\n        /* \"#utility.yul\":11327:11458   */\n      tag_304\n        /* \"#utility.yul\":11453:11457   */\n      dup2\n        /* \"#utility.yul\":11327:11458   */\n      tag_156\n      jump\t// in\n    tag_304:\n        /* \"#utility.yul\":11319:11458   */\n      swap1\n      pop\n        /* \"#utility.yul\":11046:11465   */\n      swap2\n      swap1\n      pop\n      jump\t// out\n        /* \"#utility.yul\":11471:11646   */\n    tag_157:\n        /* \"#utility.yul\":11611:11638   */\n      0x5265717565737420616c72656164792066696e616c697a656400000000000000\n        /* \"#utility.yul\":11607:11608   */\n      0x00\n        /* \"#utility.yul\":11599:11605   */\n      dup3\n        /* \"#utility.yul\":11595:11609   */\n      add\n        /* \"#utility.yul\":11588:11639   */\n      mstore\n        /* \"#utility.yul\":11471:11646   */\n      pop\n      jump\t// out\n        /* \"#utility.yul\":11652:12018   */\n    tag_158:\n        /* \"#utility.yul\":11794:11797   */\n      0x00\n        /* \"#utility.yul\":11815:11882   */\n      tag_307\n        /* \"#utility.yul\":11879:11881   */\n      0x19\n        /* \"#utility.yul\":11874:11877   */\n      dup4\n        /* \"#utility.yul\":11815:11882   */\n      tag_134\n      jump\t// in\n    tag_307:\n        /* \"#utility.yul\":11808:11882   */\n      swap2\n      pop\n        /* \"#utility.yul\":11891:11984   */\n      tag_308\n        /* \"#utility.yul\":11980:11983   */\n      dup3\n        /* \"#utility.yul\":11891:11984   */\n      tag_157\n      jump\t// in\n    tag_308:\n        /* \"#utility.yul\":12009:12011   */\n      0x20\n        /* \"#utility.yul\":12004:12007   */\n      dup3\n        /* \"#utility.yul\":12000:12012   */\n      add\n        /* \"#utility.yul\":11993:12012   */\n      swap1\n      pop\n        /* \"#utility.yul\":11652:12018   */\n      swap2\n      swap1\n      pop\n      jump\t// out\n        /* \"#utility.yul\":12024:12443   */\n    tag_83:\n        /* \"#utility.yul\":12190:12194   */\n      0x00\n        /* \"#utility.yul\":12228:12230   */\n      0x20\n        /* \"#utility.yul\":12217:12226   */\n      dup3\n        /* \"#utility.yul\":12213:12231   */\n      add\n        /* \"#utility.yul\":12205:12231   */\n      swap1\n      pop\n        /* \"#utility.yul\":12277:12286   */\n      dup2\n        /* \"#utility.yul\":12271:12275   */\n      dup2\n        /* \"#utility.yul\":12267:12287   */\n      sub\n        /* \"#utility.yul\":12263:12264   */\n      0x00\n        /* \"#utility.yul\":12252:12261   */\n      dup4\n        /* \"#utility.yul\":12248:12265   */\n      add\n        /* \"#utility.yul\":12241:12288   */\n      mstore\n        /* \"#utility.yul\":12305:12436   */\n      tag_310\n        /* \"#utility.yul\":12431:12435   */\n      dup2\n        /* \"#utility.yul\":12305:12436   */\n      tag_158\n      jump\t// in\n    tag_310:\n        /* \"#utility.yul\":12297:12436   */\n      swap1\n      pop\n        /* \"#utility.yul\":12024:12443   */\n      swap2\n      swap1\n      pop\n      jump\t// out\n        /* \"#utility.yul\":12449:12629   */\n    tag_159:\n        /* \"#utility.yul\":12497:12574   */\n      0x4e487b7100000000000000000000000000000000000000000000000000000000\n        /* \"#utility.yul\":12494:12495   */\n      0x00\n        /* \"#utility.yul\":12487:12575   */\n      mstore\n        /* \"#utility.yul\":12594:12598   */\n      0x22\n        /* \"#utility.yul\":12591:12592   */\n      0x04\n        /* \"#utility.yul\":12584:12599   */\n      mstore\n        /* \"#utility.yul\":12618:12622   */\n      0x24\n        /* \"#utility.yul\":12615:12616   */\n      0x00\n        /* \"#utility.yul\":12608:12623   */\n      revert\n        /* \"#utility.yul\":12635:12955   */\n    tag_88:\n        /* \"#utility.yul\":12679:12685   */\n      0x00\n        /* \"#utility.yul\":12716:12717   */\n      0x02\n        /* \"#utility.yul\":12710:12714   */\n      dup3\n        /* \"#utility.yul\":12706:12718   */\n      div\n        /* \"#utility.yul\":12696:12718   */\n      swap1\n      pop\n        /* \"#utility.yul\":12763:12764   */\n      0x01\n        /* \"#utility.yul\":12757:12761   */\n      dup3\n        /* \"#utility.yul\":12753:12765   */\n      and\n        /* \"#utility.yul\":12784:12802   */\n      dup1\n        /* \"#utility.yul\":12774:12855   */\n      tag_313\n      jumpi\n        /* \"#utility.yul\":12840:12844   */\n      0x7f\n        /* \"#utility.yul\":12832:12838   */\n      dup3\n        /* \"#utility.yul\":12828:12845   */\n      and\n        /* \"#utility.yul\":12818:12845   */\n      swap2\n      pop\n        /* \"#utility.yul\":12774:12855   */\n    tag_313:\n        /* \"#utility.yul\":12902:12904   */\n      0x20\n        /* \"#utility.yul\":12894:12900   */\n      dup3\n        /* \"#utility.yul\":12891:12905   */\n      lt\n        /* \"#utility.yul\":12871:12889   */\n      dup2\n        /* \"#utility.yul\":12868:12906   */\n      sub\n        /* \"#utility.yul\":12865:12949   */\n      tag_314\n      jumpi\n        /* \"#utility.yul\":12921:12939   */\n      tag_315\n      tag_159\n      jump\t// in\n    tag_315:\n        /* \"#utility.yul\":12865:12949   */\n    tag_314:\n        /* \"#utility.yul\":12686:12955   */\n      pop\n        /* \"#utility.yul\":12635:12955   */\n      swap2\n      swap1\n      pop\n      jump\t// out\n        /* \"#utility.yul\":12961:13194   */\n    tag_98:\n        /* \"#utility.yul\":13000:13003   */\n      0x00\n        /* \"#utility.yul\":13023:13047   */\n      tag_317\n        /* \"#utility.yul\":13041:13046   */\n      dup3\n        /* \"#utility.yul\":13023:13047   */\n      tag_122\n      jump\t// in\n    tag_317:\n        /* \"#utility.yul\":13014:13047   */\n      swap2\n      pop\n        /* \"#utility.yul\":13069:13135   */\n      0xffffffffffffffffffffffffffffffffffffffffffffffffffffffffffffffff\n        /* \"#utility.yul\":13062:13067   */\n      dup3\n        /* \"#utility.yul\":13059:13136   */\n      sub\n        /* \"#utility.yul\":13056:13159   */\n      tag_318\n      jumpi\n        /* \"#utility.yul\":13139:13157   */\n      tag_319\n      tag_154\n      jump\t// in\n    tag_319:\n        /* \"#utility.yul\":13056:13159   */\n    tag_318:\n        /* \"#utility.yul\":13186:13187   */\n      0x01\n        /* \"#utility.yul\":13179:13184   */\n      dup3\n        /* \"#utility.yul\":13175:13188   */\n      add\n        /* \"#utility.yul\":13168:13188   */\n      swap1\n      pop\n        /* \"#utility.yul\":12961:13194   */\n      swap2\n      swap1\n      pop\n      jump\t// out\n        /* \"#utility.yul\":13200:13341   */\n    tag_160:\n        /* \"#utility.yul\":13249:13253   */\n      0x00\n        /* \"#utility.yul\":13272:13275   */\n      dup2\n        /* \"#utility.yul\":13264:13275   */\n      swap1\n      pop\n        /* \"#utility.yul\":13295:13298   */\n      dup2\n        /* \"#utility.yul\":13292:13293   */\n      0x00\n        /* \"#utility.yul\":13285:13299   */\n      mstore\n        /* \"#utility.yul\":13329:13333   */\n      0x20\n        /* \"#utility.yul\":13326:13327   */\n      0x00\n        /* \"#utility.yul\":13316:13334   */\n      keccak256\n        /* \"#utility.yul\":13308:13334   */\n      swap1\n      pop\n        /* \"#utility.yul\":13200:13341   */\n      swap2\n      swap1\n      pop\n      jump\t// out\n        /* \"#utility.yul\":13347:13440   */\n    tag_161:\n        /* \"#utility.yul\":13384:13390   */\n      0x00\n        /* \"#utility.yul\":13431:13433   */\n      0x20\n        /* \"#utility.yul\":13426:13428   */\n      0x1f\n        /* \"#utility.yul\":13419:13424   */\n      dup4\n        /* \"#utility.yul\":13415:13429   */\n      add\n        /* \"#utility.yul\":13411:13434   */\n      div\n        /* \"#utility.yul\":13401:13434   */\n      swap1\n      pop\n        /* \"#utility.yul\":13347:13440   */\n      swap2\n      swap1\n      pop\n      jump\t// out\n        /* \"#utility.yul\":13446:13553   */\n    tag_162:\n        /* \"#utility.yul\":13490:13498   */\n      0x00\n        /* \"#utility.yul\":13540:13545   */\n      dup3\n        /* \"#utility.yul\":13534:13538   */\n      dup3\n        /* \"#utility.yul\":13530:13546   */\n      shl\n        /* \"#utility.yul\":13509:13546   */\n      swap1\n      pop\n        /* \"#utility.yul\":13446:13553   */\n      swap3\n      swap2\n      pop\n      pop\n      jump\t// out\n        /* \"#utility.yul\":13559:13952   */\n    tag_163:\n        /* \"#utility.yul\":13628:13634   */\n      0x00\n        /* \"#utility.yul\":13678:13679   */\n      0x08\n        /* \"#utility.yul\":13666:13676   */\n      dup4\n        /* \"#utility.yul\":13662:13680   */\n      mul\n        /* \"#utility.yul\":13701:13798   */\n      tag_324\n        /* \"#utility.yul\":13731:13797   */\n      0xffffffffffffffffffffffffffffffffffffffffffffffffffffffffffffffff\n        /* \"#utility.yul\":13720:13729   */\n      dup3\n        /* \"#utility.yul\":13701:13798   */\n      tag_162\n      jump\t// in\n    tag_324:\n        /* \"#utility.yul\":13819:13858   */\n      tag_325\n        /* \"#utility.yul\":13849:13857   */\n      dup7\n        /* \"#utility.yul\":13838:13847   */\n      dup4\n        /* \"#utility.yul\":13819:13858   */\n      tag_162\n      jump\t// in\n    tag_325:\n        /* \"#utility.yul\":13807:13858   */\n      swap6\n      pop\n        /* \"#utility.yul\":13891:13895   */\n      dup1\n        /* \"#utility.yul\":13887:13896   */\n      not\n        /* \"#utility.yul\":13880:13885   */\n      dup5\n        /* \"#utility.yul\":13876:13897   */\n      and\n        /* \"#utility.yul\":13867:13897   */\n      swap4\n      pop\n        /* \"#utility.yul\":13940:13944   */\n      dup1\n        /* \"#utility.yul\":13930:13938   */\n      dup7\n        /* \"#utility.yul\":13926:13945   */\n      and\n        /* \"#utility.yul\":13919:13924   */\n      dup5\n        /* \"#utility.yul\":13916:13946   */\n      or\n        /* \"#utility.yul\":13906:13946   */\n      swap3\n      pop\n        /* \"#utility.yul\":13635:13952   */\n      pop\n      pop\n        /* \"#utility.yul\":13559:13952   */\n      swap4\n      swap3\n      pop\n      pop\n      pop\n      jump\t// out\n        /* \"#utility.yul\":13958:14018   */\n    tag_164:\n        /* \"#utility.yul\":13986:13989   */\n      0x00\n        /* \"#utility.yul\":14007:14012   */\n      dup2\n        /* \"#utility.yul\":14000:14012   */\n      swap1\n      pop\n        /* \"#utility.yul\":13958:14018   */\n      swap2\n      swap1\n      pop\n      jump\t// out\n        /* \"#utility.yul\":14024:14166   */\n    tag_165:\n        /* \"#utility.yul\":14074:14083   */\n      0x00\n        /* \"#utility.yul\":14107:14160   */\n      tag_328\n        /* \"#utility.yul\":14125:14159   */\n      tag_329\n        /* \"#utility.yul\":14134:14158   */\n      tag_330\n        /* \"#utility.yul\":14152:14157   */\n      dup5\n        /* \"#utility.yul\":14134:14158   */\n      tag_122\n      jump\t// in\n    tag_330:\n        /* \"#utility.yul\":14125:14159   */\n      tag_164\n      jump\t// in\n    tag_329:\n        /* \"#utility.yul\":14107:14160   */\n      tag_122\n      jump\t// in\n    tag_328:\n        /* \"#utility.yul\":14094:14160   */\n      swap1\n      pop\n        /* \"#utility.yul\":14024:14166   */\n      swap2\n      swap1\n      pop\n      jump\t// out\n        /* \"#utility.yul\":14172:14247   */\n    tag_166:\n        /* \"#utility.yul\":14215:14218   */\n      0x00\n        /* \"#utility.yul\":14236:14241   */\n      dup2\n        /* \"#utility.yul\":14229:14241   */\n      swap1\n      pop\n        /* \"#utility.yul\":14172:14247   */\n      swap2\n      swap1\n      pop\n      jump\t// out\n        /* \"#utility.yul\":14253:14522   */\n    tag_167:\n        /* \"#utility.yul\":14363:14402   */\n      tag_333\n        /* \"#utility.yul\":14394:14401   */\n      dup4\n        /* \"#utility.yul\":14363:14402   */\n      tag_165\n      jump\t// in\n    tag_333:\n        /* \"#utility.yul\":14424:14515   */\n      tag_334\n        /* \"#utility.yul\":14473:14514   */\n      tag_335\n        /* \"#utility.yul\":14497:14513   */\n      dup3\n        /* \"#utility.yul\":14473:14514   */\n      tag_166\n      jump\t// in\n    tag_335:\n        /* \"#utility.yul\":14465:14471   */\n      dup5\n        /* \"#utility.yul\":14458:14462   */\n      dup5\n        /* \"#utility.yul\":14452:14463   */\n      sload\n        /* \"#utility.yul\":14424:14515   */\n      tag_163\n      jump\t// in\n    tag_334:\n        /* \"#utility.yul\":14418:14422   */\n      dup3\n        /* \"#utility.yul\":14411:14516   */\n      sstore\n        /* \"#utility.yul\":14329:14522   */\n      pop\n        /* \"#utility.yul\":14253:14522   */\n      pop\n      pop\n      pop\n      jump\t// out\n        /* \"#utility.yul\":14528:14601   */\n    tag_168:\n        /* \"#utility.yul\":14573:14576   */\n      0x00\n        /* \"#utility.yul\":14528:14601   */\n      swap1\n      jump\t// out\n        /* \"#utility.yul\":14607:14796   */\n    tag_169:\n        /* \"#utility.yul\":14684:14716   */\n      tag_338\n      tag_168\n      jump\t// in\n    tag_338:\n        /* \"#utility.yul\":14725:14790   */\n      tag_339\n        /* \"#utility.yul\":14783:14789   */\n      dup2\n        /* \"#utility.yul\":14775:14781   */\n      dup5\n        /* \"#utility.yul\":14769:14773   */\n      dup5\n        /* \"#utility.yul\":14725:14790   */\n      tag_167\n      jump\t// in\n    tag_339:\n        /* \"#utility.yul\":14660:14796   */\n      pop\n        /* \"#utility.yul\":14607:14796   */\n      pop\n      pop\n      jump\t// out\n        /* \"#utility.yul\":14802:14988   */\n    tag_170:\n        /* \"#utility.yul\":14862:14982   */\n    tag_341:\n        /* \"#utility.yul\":14879:14882   */\n      dup2\n        /* \"#utility.yul\":14872:14877   */\n      dup2\n        /* \"#utility.yul\":14869:14883   */\n      lt\n        /* \"#utility.yul\":14862:14982   */\n      iszero\n      tag_343\n      jumpi\n        /* \"#utility.yul\":14933:14972   */\n      tag_344\n        /* \"#utility.yul\":14970:14971   */\n      0x00\n        /* \"#utility.yul\":14963:14968   */\n      dup3\n        /* \"#utility.yul\":14933:14972   */\n      tag_169\n      jump\t// in\n    tag_344:\n        /* \"#utility.yul\":14906:14907   */\n      0x01\n        /* \"#utility.yul\":14899:14904   */\n      dup2\n        /* \"#utility.yul\":14895:14908   */\n      add\n        /* \"#utility.yul\":14886:14908   */\n      swap1\n      pop\n        /* \"#utility.yul\":14862:14982   */\n      jump(tag_341)\n    tag_343:\n        /* \"#utility.yul\":14802:14988   */\n      pop\n      pop\n      jump\t// out\n        /* \"#utility.yul\":14994:15537   */\n    tag_171:\n        /* \"#utility.yul\":15095:15097   */\n      0x1f\n        /* \"#utility.yul\":15090:15093   */\n      dup3\n        /* \"#utility.yul\":15087:15098   */\n      gt\n        /* \"#utility.yul\":15084:15530   */\n      iszero\n      tag_346\n      jumpi\n        /* \"#utility.yul\":15129:15167   */\n      tag_347\n        /* \"#utility.yul\":15161:15166   */\n      dup2\n        /* \"#utility.yul\":15129:15167   */\n      tag_160\n      jump\t// in\n    tag_347:\n        /* \"#utility.yul\":15213:15242   */\n      tag_348\n        /* \"#utility.yul\":15231:15241   */\n      dup5\n        /* \"#utility.yul\":15213:15242   */\n      tag_161\n      jump\t// in\n    tag_348:\n        /* \"#utility.yul\":15203:15211   */\n      dup2\n        /* \"#utility.yul\":15199:15243   */\n      add\n        /* \"#utility.yul\":15396:15398   */\n      0x20\n        /* \"#utility.yul\":15384:15394   */\n      dup6\n        /* \"#utility.yul\":15381:15399   */\n      lt\n        /* \"#utility.yul\":15378:15427   */\n      iszero\n      tag_349\n      jumpi\n        /* \"#utility.yul\":15417:15425   */\n      dup2\n        /* \"#utility.yul\":15402:15425   */\n      swap1\n      pop\n        /* \"#utility.yul\":15378:15427   */\n    tag_349:\n        /* \"#utility.yul\":15440:15520   */\n      tag_350\n        /* \"#utility.yul\":15496:15518   */\n      tag_351\n        /* \"#utility.yul\":15514:15517   */\n      dup6\n        /* \"#utility.yul\":15496:15518   */\n      tag_161\n      jump\t// in\n    tag_351:\n        /* \"#utility.yul\":15486:15494   */\n      dup4\n        /* \"#utility.yul\":15482:15519   */\n      add\n        /* \"#utility.yul\":15469:15480   */\n      dup3\n        /* \"#utility.yul\":15440:15520   */\n      tag_170\n      jump\t// in\n    tag_350:\n        /* \"#utility.yul\":15099:15530   */\n      pop\n      pop\n        /* \"#utility.yul\":15084:15530   */\n    tag_346:\n        /* \"#utility.yul\":14994:15537   */\n      pop\n      pop\n      pop\n      jump\t// out\n        /* \"#utility.yul\":15543:15660   */\n    tag_172:\n        /* \"#utility.yul\":15597:15605   */\n      0x00\n        /* \"#utility.yul\":15647:15652   */\n      dup3\n        /* \"#utility.yul\":15641:15645   */\n      dup3\n        /* \"#utility.yul\":15637:15653   */\n      shr\n        /* \"#utility.yul\":15616:15653   */\n      swap1\n      pop\n        /* \"#utility.yul\":15543:15660   */\n      swap3\n      swap2\n      pop\n      pop\n      jump\t// out\n        /* \"#utility.yul\":15666:15835   */\n    tag_173:\n        /* \"#utility.yul\":15710:15716   */\n      0x00\n        /* \"#utility.yul\":15743:15794   */\n      tag_354\n        /* \"#utility.yul\":15791:15792   */\n      0x00\n        /* \"#utility.yul\":15787:15793   */\n      not\n        /* \"#utility.yul\":15779:15784   */\n      dup5\n        /* \"#utility.yul\":15776:15777   */\n      0x08\n        /* \"#utility.yul\":15772:15785   */\n      mul\n        /* \"#utility.yul\":15743:15794   */\n      tag_172\n      jump\t// in\n    tag_354:\n        /* \"#utility.yul\":15739:15795   */\n      not\n        /* \"#utility.yul\":15824:15828   */\n      dup1\n        /* \"#utility.yul\":15818:15822   */\n      dup4\n        /* \"#utility.yul\":15814:15829   */\n      and\n        /* \"#utility.yul\":15804:15829   */\n      swap2\n      pop\n        /* \"#utility.yul\":15717:15835   */\n      pop\n        /* \"#utility.yul\":15666:15835   */\n      swap3\n      swap2\n      pop\n      pop\n      jump\t// out\n        /* \"#utility.yul\":15840:16135   */\n    tag_174:\n        /* \"#utility.yul\":15916:15920   */\n      0x00\n        /* \"#utility.yul\":16062:16091   */\n      tag_356\n        /* \"#utility.yul\":16087:16090   */\n      dup4\n        /* \"#utility.yul\":16081:16085   */\n      dup4\n        /* \"#utility.yul\":16062:16091   */\n      tag_173\n      jump\t// in\n    tag_356:\n        /* \"#utility.yul\":16054:16091   */\n      swap2\n      pop\n        /* \"#utility.yul\":16124:16127   */\n      dup3\n        /* \"#utility.yul\":16121:16122   */\n      0x02\n        /* \"#utility.yul\":16117:16128   */\n      mul\n        /* \"#utility.yul\":16111:16115   */\n      dup3\n        /* \"#utility.yul\":16108:16129   */\n      or\n        /* \"#utility.yul\":16100:16129   */\n      swap1\n      pop\n        /* \"#utility.yul\":15840:16135   */\n      swap3\n      swap2\n      pop\n      pop\n      jump\t// out\n        /* \"#utility.yul\":16140:17535   */\n    tag_100:\n        /* \"#utility.yul\":16257:16294   */\n      tag_358\n        /* \"#utility.yul\":16290:16293   */\n      dup3\n        /* \"#utility.yul\":16257:16294   */\n      tag_133\n      jump\t// in\n    tag_358:\n        /* \"#utility.yul\":16359:16377   */\n      0xffffffffffffffff\n        /* \"#utility.yul\":16351:16357   */\n      dup2\n        /* \"#utility.yul\":16348:16378   */\n      gt\n        /* \"#utility.yul\":16345:16401   */\n      iszero\n      tag_359\n      jumpi\n        /* \"#utility.yul\":16381:16399   */\n      tag_360\n      tag_142\n      jump\t// in\n    tag_360:\n        /* \"#utility.yul\":16345:16401   */\n    tag_359:\n        /* \"#utility.yul\":16425:16463   */\n      tag_361\n        /* \"#utility.yul\":16457:16461   */\n      dup3\n        /* \"#utility.yul\":16451:16462   */\n      sload\n        /* \"#utility.yul\":16425:16463   */\n      tag_88\n      jump\t// in\n    tag_361:\n        /* \"#utility.yul\":16510:16577   */\n      tag_362\n        /* \"#utility.yul\":16570:16576   */\n      dup3\n        /* \"#utility.yul\":16562:16568   */\n      dup3\n        /* \"#utility.yul\":16556:16560   */\n      dup6\n        /* \"#utility.yul\":16510:16577   */\n      tag_171\n      jump\t// in\n    tag_362:\n        /* \"#utility.yul\":16604:16605   */\n      0x00\n        /* \"#utility.yul\":16628:16632   */\n      0x20\n        /* \"#utility.yul\":16615:16632   */\n      swap1\n      pop\n        /* \"#utility.yul\":16660:16662   */\n      0x1f\n        /* \"#utility.yul\":16652:16658   */\n      dup4\n        /* \"#utility.yul\":16649:16663   */\n      gt\n        /* \"#utility.yul\":16677:16678   */\n      0x01\n        /* \"#utility.yul\":16672:17290   */\n      dup2\n      eq\n      tag_364\n      jumpi\n        /* \"#utility.yul\":17334:17335   */\n      0x00\n        /* \"#utility.yul\":17351:17357   */\n      dup5\n        /* \"#utility.yul\":17348:17425   */\n      iszero\n      tag_365\n      jumpi\n        /* \"#utility.yul\":17400:17409   */\n      dup3\n        /* \"#utility.yul\":17395:17398   */\n      dup8\n        /* \"#utility.yul\":17391:17410   */\n      add\n        /* \"#utility.yul\":17385:17411   */\n      mload\n        /* \"#utility.yul\":17376:17411   */\n      swap1\n      pop\n        /* \"#utility.yul\":17348:17425   */\n    tag_365:\n        /* \"#utility.yul\":17451:17518   */\n      tag_366\n        /* \"#utility.yul\":17511:17517   */\n      dup6\n        /* \"#utility.yul\":17504:17509   */\n      dup3\n        /* \"#utility.yul\":17451:17518   */\n      tag_174\n      jump\t// in\n    tag_366:\n        /* \"#utility.yul\":17445:17449   */\n      dup7\n        /* \"#utility.yul\":17438:17519   */\n      sstore\n        /* \"#utility.yul\":17307:17529   */\n      pop\n        /* \"#utility.yul\":16642:17529   */\n      jump(tag_363)\n        /* \"#utility.yul\":16672:17290   */\n    tag_364:\n        /* \"#utility.yul\":16724:16728   */\n      0x1f\n        /* \"#utility.yul\":16720:16729   */\n      not\n        /* \"#utility.yul\":16712:16718   */\n      dup5\n        /* \"#utility.yul\":16708:16730   */\n      and\n        /* \"#utility.yul\":16758:16795   */\n      tag_367\n        /* \"#utility.yul\":16790:16794   */\n      dup7\n        /* \"#utility.yul\":16758:16795   */\n      tag_160\n      jump\t// in\n    tag_367:\n        /* \"#utility.yul\":16817:16818   */\n      0x00\n        /* \"#utility.yul\":16831:17039   */\n    tag_368:\n        /* \"#utility.yul\":16845:16852   */\n      dup3\n        /* \"#utility.yul\":16842:16843   */\n      dup2\n        /* \"#utility.yul\":16839:16853   */\n      lt\n        /* \"#utility.yul\":16831:17039   */\n      iszero\n      tag_370\n      jumpi\n        /* \"#utility.yul\":16924:16933   */\n      dup5\n        /* \"#utility.yul\":16919:16922   */\n      dup10\n        /* \"#utility.yul\":16915:16934   */\n      add\n        /* \"#utility.yul\":16909:16935   */\n      mload\n        /* \"#utility.yul\":16901:16907   */\n      dup3\n        /* \"#utility.yul\":16894:16936   */\n      sstore\n        /* \"#utility.yul\":16975:16976   */\n      0x01\n        /* \"#utility.yul\":16967:16973   */\n      dup3\n        /* \"#utility.yul\":16963:16977   */\n      add\n        /* \"#utility.yul\":16953:16977   */\n      swap2\n      pop\n        /* \"#utility.yul\":17022:17024   */\n      0x20\n        /* \"#utility.yul\":17011:17020   */\n      dup6\n        /* \"#utility.yul\":17007:17025   */\n      add\n        /* \"#utility.yul\":16994:17025   */\n      swap5\n      pop\n        /* \"#utility.yul\":16868:16872   */\n      0x20\n        /* \"#utility.yul\":16865:16866   */\n      dup2\n        /* \"#utility.yul\":16861:16873   */\n      add\n        /* \"#utility.yul\":16856:16873   */\n      swap1\n      pop\n        /* \"#utility.yul\":16831:17039   */\n      jump(tag_368)\n    tag_370:\n        /* \"#utility.yul\":17067:17073   */\n      dup7\n        /* \"#utility.yul\":17058:17065   */\n      dup4\n        /* \"#utility.yul\":17055:17074   */\n      lt\n        /* \"#utility.yul\":17052:17231   */\n      iszero\n      tag_371\n      jumpi\n        /* \"#utility.yul\":17125:17134   */\n      dup5\n        /* \"#utility.yul\":17120:17123   */\n      dup10\n        /* \"#utility.yul\":17116:17135   */\n      add\n        /* \"#utility.yul\":17110:17136   */\n      mload\n        /* \"#utility.yul\":17168:17216   */\n      tag_372\n        /* \"#utility.yul\":17210:17214   */\n      0x1f\n        /* \"#utility.yul\":17202:17208   */\n      dup10\n        /* \"#utility.yul\":17198:17215   */\n      and\n        /* \"#utility.yul\":17187:17196   */\n      dup3\n        /* \"#utility.yul\":17168:17216   */\n      tag_173\n      jump\t// in\n    tag_372:\n        /* \"#utility.yul\":17160:17166   */\n      dup4\n        /* \"#utility.yul\":17153:17217   */\n      sstore\n        /* \"#utility.yul\":17075:17231   */\n      pop\n        /* \"#utility.yul\":17052:17231   */\n    tag_371:\n        /* \"#utility.yul\":17277:17278   */\n      0x01\n        /* \"#utility.yul\":17273:17274   */\n      0x02\n        /* \"#utility.yul\":17265:17271   */\n      dup9\n        /* \"#utility.yul\":17261:17275   */\n      mul\n        /* \"#utility.yul\":17257:17279   */\n      add\n        /* \"#utility.yul\":17251:17255   */\n      dup9\n        /* \"#utility.yul\":17244:17280   */\n      sstore\n        /* \"#utility.yul\":16679:17290   */\n      pop\n      pop\n      pop\n        /* \"#utility.yul\":16642:17529   */\n    tag_363:\n      pop\n        /* \"#utility.yul\":16232:17535   */\n      pop\n      pop\n      pop\n        /* \"#utility.yul\":16140:17535   */\n      pop\n      pop\n      jump\t// out\n        /* \"#utility.yul\":17541:17763   */\n    tag_175:\n        /* \"#utility.yul\":17681:17715   */\n      0x546865206d696e696d756d20636f6e747269627574696f6e206973206e6f7420\n        /* \"#utility.yul\":17677:17678   */\n      0x00\n        /* \"#utility.yul\":17669:17675   */\n      dup3\n        /* \"#utility.yul\":17665:17679   */\n      add\n        /* \"#utility.yul\":17658:17716   */\n      mstore\n        /* \"#utility.yul\":17750:17755   */\n      0x6d65740000000000000000000000000000000000000000000000000000000000\n        /* \"#utility.yul\":17745:17747   */\n      0x20\n        /* \"#utility.yul\":17737:17743   */\n      dup3\n        /* \"#utility.yul\":17733:17748   */\n      add\n        /* \"#utility.yul\":17726:17756   */\n      mstore\n        /* \"#utility.yul\":17541:17763   */\n      pop\n      jump\t// out\n        /* \"#utility.yul\":17769:18135   */\n    tag_176:\n        /* \"#utility.yul\":17911:17914   */\n      0x00\n        /* \"#utility.yul\":17932:17999   */\n      tag_375\n        /* \"#utility.yul\":17996:17998   */\n      0x23\n        /* \"#utility.yul\":17991:17994   */\n      dup4\n        /* \"#utility.yul\":17932:17999   */\n      tag_134\n      jump\t// in\n    tag_375:\n        /* \"#utility.yul\":17925:17999   */\n      swap2\n      pop\n        /* \"#utility.yul\":18008:18101   */\n      tag_376\n        /* \"#utility.yul\":18097:18100   */\n      dup3\n        /* \"#utility.yul\":18008:18101   */\n      tag_175\n      jump\t// in\n    tag_376:\n        /* \"#utility.yul\":18126:18128   */\n      0x40\n        /* \"#utility.yul\":18121:18124   */\n      dup3\n        /* \"#utility.yul\":18117:18129   */\n      add\n        /* \"#utility.yul\":18110:18129   */\n      swap1\n      pop\n        /* \"#utility.yul\":17769:18135   */\n      swap2\n      swap1\n      pop\n      jump\t// out\n        /* \"#utility.yul\":18141:18560   */\n    tag_105:\n        /* \"#utility.yul\":18307:18311   */\n      0x00\n        /* \"#utility.yul\":18345:18347   */\n      0x20\n        /* \"#utility.yul\":18334:18343   */\n      dup3\n        /* \"#utility.yul\":18330:18348   */\n      add\n        /* \"#utility.yul\":18322:18348   */\n      swap1\n      pop\n        /* \"#utility.yul\":18394:18403   */\n      dup2\n        /* \"#utility.yul\":18388:18392   */\n      dup2\n        /* \"#utility.yul\":18384:18404   */\n      sub\n        /* \"#utility.yul\":18380:18381   */\n      0x00\n        /* \"#utility.yul\":18369:18378   */\n      dup4\n        /* \"#utility.yul\":18365:18382   */\n      add\n        /* \"#utility.yul\":18358:18405   */\n      mstore\n        /* \"#utility.yul\":18422:18553   */\n      tag_378\n        /* \"#utility.yul\":18548:18552   */\n      dup2\n        /* \"#utility.yul\":18422:18553   */\n      tag_176\n      jump\t// in\n    tag_378:\n        /* \"#utility.yul\":18414:18553   */\n      swap1\n      pop\n        /* \"#utility.yul\":18141:18560   */\n      swap2\n      swap1\n      pop\n      jump\t// out\n        /* \"#utility.yul\":18566:18731   */\n    tag_177:\n        /* \"#utility.yul\":18706:18723   */\n      0x4e6f7420616e20617070726f7665720000000000000000000000000000000000\n        /* \"#utility.yul\":18702:18703   */\n      0x00\n        /* \"#utility.yul\":18694:18700   */\n      dup3\n        /* \"#utility.yul\":18690:18704   */\n      add\n        /* \"#utility.yul\":18683:18724   */\n      mstore\n        /* \"#utility.yul\":18566:18731   */\n      pop\n      jump\t// out\n        /* \"#utility.yul\":18737:19103   */\n    tag_178:\n        /* \"#utility.yul\":18879:18882   */\n      0x00\n        /* \"#utility.yul\":18900:18967   */\n      tag_381\n        /* \"#utility.yul\":18964:18966   */\n      0x0f\n        /* \"#utility.yul\":18959:18962   */\n      dup4\n        /* \"#utility.yul\":18900:18967   */\n      tag_134\n      jump\t// in\n    tag_381:\n        /* \"#utility.yul\":18893:18967   */\n      swap2\n      pop\n        /* \"#utility.yul\":18976:19069   */\n      tag_382\n        /* \"#utility.yul\":19065:19068   */\n      dup3\n        /* \"#utility.yul\":18976:19069   */\n      tag_177\n      jump\t// in\n    tag_382:\n        /* \"#utility.yul\":19094:19096   */\n      0x20\n        /* \"#utility.yul\":19089:19092   */\n      dup3\n        /* \"#utility.yul\":19085:19097   */\n      add\n        /* \"#utility.yul\":19078:19097   */\n      swap1\n      pop\n        /* \"#utility.yul\":18737:19103   */\n      swap2\n      swap1\n      pop\n      jump\t// out\n        /* \"#utility.yul\":19109:19528   */\n    tag_114:\n        /* \"#utility.yul\":19275:19279   */\n      0x00\n        /* \"#utility.yul\":19313:19315   */\n      0x20\n        /* \"#utility.yul\":19302:19311   */\n      dup3\n        /* \"#utility.yul\":19298:19316   */\n      add\n        /* \"#utility.yul\":19290:19316   */\n      swap1\n      pop\n        /* \"#utility.yul\":19362:19371   */\n      dup2\n        /* \"#utility.yul\":19356:19360   */\n      dup2\n        /* \"#utility.yul\":19352:19372   */\n      sub\n        /* \"#utility.yul\":19348:19349   */\n      0x00\n        /* \"#utility.yul\":19337:19346   */\n      dup4\n        /* \"#utility.yul\":19333:19350   */\n      add\n        /* \"#utility.yul\":19326:19373   */\n      mstore\n        /* \"#utility.yul\":19390:19521   */\n      tag_384\n        /* \"#utility.yul\":19516:19520   */\n      dup2\n        /* \"#utility.yul\":19390:19521   */\n      tag_178\n      jump\t// in\n    tag_384:\n        /* \"#utility.yul\":19382:19521   */\n      swap1\n      pop\n        /* \"#utility.yul\":19109:19528   */\n      swap2\n      swap1\n      pop\n      jump\t// out\n        /* \"#utility.yul\":19534:19700   */\n    tag_179:\n        /* \"#utility.yul\":19674:19692   */\n      0x416c726561647920617070726f76656400000000000000000000000000000000\n        /* \"#utility.yul\":19670:19671   */\n      0x00\n        /* \"#utility.yul\":19662:19668   */\n      dup3\n        /* \"#utility.yul\":19658:19672   */\n      add\n        /* \"#utility.yul\":19651:19693   */\n      mstore\n        /* \"#utility.yul\":19534:19700   */\n      pop\n      jump\t// out\n        /* \"#utility.yul\":19706:20072   */\n    tag_180:\n        /* \"#utility.yul\":19848:19851   */\n      0x00\n        /* \"#utility.yul\":19869:19936   */\n      tag_387\n        /* \"#utility.yul\":19933:19935   */\n      0x10\n        /* \"#utility.yul\":19928:19931   */\n      dup4\n        /* \"#utility.yul\":19869:19936   */\n      tag_134\n      jump\t// in\n    tag_387:\n        /* \"#utility.yul\":19862:19936   */\n      swap2\n      pop\n        /* \"#utility.yul\":19945:20038   */\n      tag_388\n        /* \"#utility.yul\":20034:20037   */\n      dup3\n        /* \"#utility.yul\":19945:20038   */\n      tag_179\n      jump\t// in\n    tag_388:\n        /* \"#utility.yul\":20063:20065   */\n      0x20\n        /* \"#utility.yul\":20058:20061   */\n      dup3\n        /* \"#utility.yul\":20054:20066   */\n      add\n        /* \"#utility.yul\":20047:20066   */\n      swap1\n      pop\n        /* \"#utility.yul\":19706:20072   */\n      swap2\n      swap1\n      pop\n      jump\t// out\n        /* \"#utility.yul\":20078:20497   */\n    tag_117:\n        /* \"#utility.yul\":20244:20248   */\n      0x00\n        /* \"#utility.yul\":20282:20284   */\n      0x20\n        /* \"#utility.yul\":20271:20280   */\n      dup3\n        /* \"#utility.yul\":20267:20285   */\n      add\n        /* \"#utility.yul\":20259:20285   */\n      swap1\n      pop\n        /* \"#utility.yul\":20331:20340   */\n      dup2\n        /* \"#utility.yul\":20325:20329   */\n      dup2\n        /* \"#utility.yul\":20321:20341   */\n      sub\n        /* \"#utility.yul\":20317:20318   */\n      0x00\n        /* \"#utility.yul\":20306:20315   */\n      dup4\n        /* \"#utility.yul\":20302:20319   */\n      add\n        /* \"#utility.yul\":20295:20342   */\n      mstore\n        /* \"#utility.yul\":20359:20490   */\n      tag_390\n        /* \"#utility.yul\":20485:20489   */\n      dup2\n        /* \"#utility.yul\":20359:20490   */\n      tag_180\n      jump\t// in\n    tag_390:\n        /* \"#utility.yul\":20351:20490   */\n      swap1\n      pop\n        /* \"#utility.yul\":20078:20497   */\n      swap2\n      swap1\n      pop\n      jump\t// out\n\n    auxdata: 0xa2646970667358221220063df95900a3589de058f17660a10f476a78bb4bd9c4ba1238c197426274e77364736f6c63430008140033\n}\n","bytecode":{"linkReferences":{},"object":"608060405234801562000010575f80fd5b50604051620016ed380380620016ed833981810160405281019062000036919062000122565b8060015f6101000a81548173ffffffffffffffffffffffffffffffffffffffff021916908373ffffffffffffffffffffffffffffffffffffffff16021790555081600381905550505062000167565b5f80fd5b5f819050919050565b6200009d8162000089565b8114620000a8575f80fd5b50565b5f81519050620000bb8162000092565b92915050565b5f73ffffffffffffffffffffffffffffffffffffffff82169050919050565b5f620000ec82620000c1565b9050919050565b620000fe81620000e0565b811462000109575f80fd5b50565b5f815190506200011c81620000f3565b92915050565b5f80604083850312156200013b576200013a62000085565b5b5f6200014a85828601620000ab565b92505060206200015d858286016200010c565b9150509250929050565b61157880620001755f395ff3fe6080604052600436106100a6575f3560e01c80638a9cfd55116100635780638a9cfd55146101d0578063937e09b1146101f85780639fb42b1f14610222578063bc24811f1461024c578063d7bb99ba14610276578063d7d1bbdb14610280576100a6565b806303441006146100aa5780630a144391146100d25780634051ddac1461010e578063481c6a751461013c57806381d12c581461016657806382fde093146101a6575b5f80fd5b3480156100b5575f80fd5b506100d060048036038101906100cb9190610aca565b6102a8565b005b3480156100dd575f80fd5b506100f860048036038101906100f39190610b4f565b61047c565b6040516101059190610b94565b60405180910390f35b348015610119575f80fd5b50610122610499565b604051610133959493929190610bcb565b60405180910390f35b348015610147575f80fd5b506101506104db565b60405161015d9190610c1c565b60405180910390f35b348015610171575f80fd5b5061018c60048036038101906101879190610aca565b610500565b60405161019d959493929190610cdf565b60405180910390f35b3480156101b1575f80fd5b506101ba6105e3565b6040516101c79190610d37565b60405180910390f35b3480156101db575f80fd5b506101f660048036038101906101f19190610ea6565b6105e9565b005b348015610203575f80fd5b5061020c610727565b6040516102199190610d37565b60405180910390f35b34801561022d575f80fd5b5061023661072d565b6040516102439190610d37565b60405180910390f35b348015610257575f80fd5b50610260610733565b60405161026d9190610d37565b60405180910390f35b61027e61073c565b005b34801561028b575f80fd5b506102a660048036038101906102a19190610aca565b61083d565b005b60015f9054906101000a900473ffffffffffffffffffffffffffffffffffffffff1673ffffffffffffffffffffffffffffffffffffffff163373ffffffffffffffffffffffffffffffffffffffff1614610337576040517f08c379a000000000000000000000000000000000000000000000000000000000815260040161032e90610f5c565b60405180910390fd5b5f805f8381526020019081526020015f20905060026004546103599190610fd4565b81600301541161039e576040517f08c379a00000000000000000000000000000000000000000000000000000000081526004016103959061104e565b60405180910390fd5b8060020160149054906101000a900460ff16156103f0576040517f08c379a00000000000000000000000000000000000000000000000000000000081526004016103e7906110b6565b60405180910390fd5b806002015f9054906101000a900473ffffffffffffffffffffffffffffffffffffffff1673ffffffffffffffffffffffffffffffffffffffff166108fc826001015490811502906040515f60405180830381858888f1935050505015801561045a573d5f803e3d5ffd5b5060018160020160146101000a81548160ff0219169083151502179055505050565b6005602052805f5260405f205f915054906101000a900460ff1681565b5f805f805f6003544760025460045460015f9054906101000a900473ffffffffffffffffffffffffffffffffffffffff16945094509450945094509091929394565b60015f9054906101000a900473ffffffffffffffffffffffffffffffffffffffff1681565b5f602052805f5260405f205f91509050805f01805461051e90611101565b80601f016020809104026020016040519081016040528092919081815260200182805461054a90611101565b80156105955780601f1061056c57610100808354040283529160200191610595565b820191905f5260205f20905b81548152906001019060200180831161057857829003601f168201915b505050505090806001015490806002015f9054906101000a900473ffffffffffffffffffffffffffffffffffffffff16908060020160149054906101000a900460ff16908060030154905085565b60045481565b60015f9054906101000a900473ffffffffffffffffffffffffffffffffffffffff1673ffffffffffffffffffffffffffffffffffffffff163373ffffffffffffffffffffffffffffffffffffffff1614610678576040517f08c379a000000000000000000000000000000000000000000000000000000000815260040161066f90610f5c565b60405180910390fd5b5f805f60025f81548092919061068d90611131565b9190505581526020019081526020015f20905083815f0190816106b09190611315565b5082816001018190555081816002015f6101000a81548173ffffffffffffffffffffffffffffffffffffffff021916908373ffffffffffffffffffffffffffffffffffffffff1602179055505f8160020160146101000a81548160ff0219169083151502179055505f816003018190555050505050565b60035481565b60025481565b5f600254905090565b6003543411610780576040517f08c379a000000000000000000000000000000000000000000000000000000000815260040161077790611454565b60405180910390fd5b60055f3373ffffffffffffffffffffffffffffffffffffffff1673ffffffffffffffffffffffffffffffffffffffff1681526020019081526020015f205f9054906101000a900460ff1661083b57600160055f3373ffffffffffffffffffffffffffffffffffffffff1673ffffffffffffffffffffffffffffffffffffffff1681526020019081526020015f205f6101000a81548160ff02191690831515021790555060045f81548092919061083590611131565b91905055505b565b60015f9054906101000a900473ffffffffffffffffffffffffffffffffffffffff1673ffffffffffffffffffffffffffffffffffffffff163373ffffffffffffffffffffffffffffffffffffffff16146108cc576040517f08c379a00000000000000000000000000000000000000000000000000000000081526004016108c390610f5c565b60405180910390fd5b5f805f8381526020019081526020015f20905060055f3373ffffffffffffffffffffffffffffffffffffffff1673ffffffffffffffffffffffffffffffffffffffff1681526020019081526020015f205f9054906101000a900460ff16610968576040517f08c379a000000000000000000000000000000000000000000000000000000000815260040161095f906114bc565b60405180910390fd5b806004015f3373ffffffffffffffffffffffffffffffffffffffff1673ffffffffffffffffffffffffffffffffffffffff1681526020019081526020015f205f9054906101000a900460ff16156109f4576040517f08c379a00000000000000000000000000000000000000000000000000000000081526004016109eb90611524565b60405180910390fd5b60015f808481526020019081526020015f206004015f3373ffffffffffffffffffffffffffffffffffffffff1673ffffffffffffffffffffffffffffffffffffffff1681526020019081526020015f205f6101000a81548160ff0219169083151502179055505f808381526020019081526020015f206003015f815480929190610a7d90611131565b91905055505050565b5f604051905090565b5f80fd5b5f80fd5b5f819050919050565b610aa981610a97565b8114610ab3575f80fd5b50565b5f81359050610ac481610aa0565b92915050565b5f60208284031215610adf57610ade610a8f565b5b5f610aec84828501610ab6565b91505092915050565b5f73ffffffffffffffffffffffffffffffffffffffff82169050919050565b5f610b1e82610af5565b9050919050565b610b2e81610b14565b8114610b38575f80fd5b50565b5f81359050610b4981610b25565b92915050565b5f60208284031215610b6457610b63610a8f565b5b5f610b7184828501610b3b565b91505092915050565b5f8115159050919050565b610b8e81610b7a565b82525050565b5f602082019050610ba75f830184610b85565b92915050565b610bb681610a97565b82525050565b610bc581610b14565b82525050565b5f60a082019050610bde5f830188610bad565b610beb6020830187610bad565b610bf86040830186610bad565b610c056060830185610bad565b610c126080830184610bbc565b9695505050505050565b5f602082019050610c2f5f830184610bbc565b92915050565b5f81519050919050565b5f82825260208201905092915050565b5f5b83811015610c6c578082015181840152602081019050610c51565b5f8484015250505050565b5f601f19601f8301169050919050565b5f610c9182610c35565b610c9b8185610c3f565b9350610cab818560208601610c4f565b610cb481610c77565b840191505092915050565b5f610cc982610af5565b9050919050565b610cd981610cbf565b82525050565b5f60a0820190508181035f830152610cf78188610c87565b9050610d066020830187610bad565b610d136040830186610cd0565b610d206060830185610b85565b610d2d6080830184610bad565b9695505050505050565b5f602082019050610d4a5f830184610bad565b92915050565b5f80fd5b5f80fd5b7f4e487b71000000000000000000000000000000000000000000000000000000005f52604160045260245ffd5b610d8e82610c77565b810181811067ffffffffffffffff82111715610dad57610dac610d58565b5b80604052505050565b5f610dbf610a86565b9050610dcb8282610d85565b919050565b5f67ffffffffffffffff821115610dea57610de9610d58565b5b610df382610c77565b9050602081019050919050565b828183375f83830152505050565b5f610e20610e1b84610dd0565b610db6565b905082815260208101848484011115610e3c57610e3b610d54565b5b610e47848285610e00565b509392505050565b5f82601f830112610e6357610e62610d50565b5b8135610e73848260208601610e0e565b91505092915050565b610e8581610cbf565b8114610e8f575f80fd5b50565b5f81359050610ea081610e7c565b92915050565b5f805f60608486031215610ebd57610ebc610a8f565b5b5f84013567ffffffffffffffff811115610eda57610ed9610a93565b5b610ee686828701610e4f565b9350506020610ef786828701610ab6565b9250506040610f0886828701610e92565b9150509250925092565b7f4e6f7420746865206d616e6167657200000000000000000000000000000000005f82015250565b5f610f46600f83610c3f565b9150610f5182610f12565b602082019050919050565b5f6020820190508181035f830152610f7381610f3a565b9050919050565b7f4e487b71000000000000000000000000000000000000000000000000000000005f52601260045260245ffd5b7f4e487b71000000000000000000000000000000000000000000000000000000005f52601160045260245ffd5b5f610fde82610a97565b9150610fe983610a97565b925082610ff957610ff8610f7a565b5b828204905092915050565b7f4e6f7420656e6f75676820617070726f766572730000000000000000000000005f82015250565b5f611038601483610c3f565b915061104382611004565b602082019050919050565b5f6020820190508181035f8301526110658161102c565b9050919050565b7f5265717565737420616c72656164792066696e616c697a6564000000000000005f82015250565b5f6110a0601983610c3f565b91506110ab8261106c565b602082019050919050565b5f6020820190508181035f8301526110cd81611094565b9050919050565b7f4e487b71000000000000000000000000000000000000000000000000000000005f52602260045260245ffd5b5f600282049050600182168061111857607f821691505b60208210810361112b5761112a6110d4565b5b50919050565b5f61113b82610a97565b91507fffffffffffffffffffffffffffffffffffffffffffffffffffffffffffffffff820361116d5761116c610fa7565b5b600182019050919050565b5f819050815f5260205f209050919050565b5f6020601f8301049050919050565b5f82821b905092915050565b5f600883026111d47fffffffffffffffffffffffffffffffffffffffffffffffffffffffffffffffff82611199565b6111de8683611199565b95508019841693508086168417925050509392505050565b5f819050919050565b5f61121961121461120f84610a97565b6111f6565b610a97565b9050919050565b5f819050919050565b611232836111ff565b61124661123e82611220565b8484546111a5565b825550505050565b5f90565b61125a61124e565b611265818484611229565b505050565b5b818110156112885761127d5f82611252565b60018101905061126b565b5050565b601f8211156112cd5761129e81611178565b6112a78461118a565b810160208510156112b6578190505b6112ca6112c28561118a565b83018261126a565b50505b505050565b5f82821c905092915050565b5f6112ed5f19846008026112d2565b1980831691505092915050565b5f61130583836112de565b9150826002028217905092915050565b61131e82610c35565b67ffffffffffffffff81111561133757611336610d58565b5b6113418254611101565b61134c82828561128c565b5f60209050601f83116001811461137d575f841561136b578287015190505b61137585826112fa565b8655506113dc565b601f19841661138b86611178565b5f5b828110156113b25784890151825560018201915060208501945060208101905061138d565b868310156113cf57848901516113cb601f8916826112de565b8355505b6001600288020188555050505b505050505050565b7f546865206d696e696d756d20636f6e747269627574696f6e206973206e6f74205f8201527f6d65740000000000000000000000000000000000000000000000000000000000602082015250565b5f61143e602383610c3f565b9150611449826113e4565b604082019050919050565b5f6020820190508181035f83015261146b81611432565b9050919050565b7f4e6f7420616e20617070726f76657200000000000000000000000000000000005f82015250565b5f6114a6600f83610c3f565b91506114b182611472565b602082019050919050565b5f6020820190508181035f8301526114d38161149a565b9050919050565b7f416c726561647920617070726f766564000000000000000000000000000000005f82015250565b5f61150e601083610c3f565b9150611519826114da565b602082019050919050565b5f6020820190508181035f83015261153b81611502565b905091905056fea2646970667358221220063df95900a3589de058f17660a10f476a78bb4bd9c4ba1238c197426274e77364736f6c63430008140033","opcodes":"PUSH1 0x80 PUSH1 0x40 MSTORE CALLVALUE DUP1 ISZERO PUSH3 0x10 JUMPI PUSH0 DUP1 REVERT JUMPDEST POP PUSH1 0x40 MLOAD PUSH3 0x16ED CODESIZE SUB DUP1 PUSH3 0x16ED DUP4 CODECOPY DUP2 DUP2 ADD PUSH1 0x40 MSTORE DUP2 ADD SWAP1 PUSH3 0x36 SWAP2 SWAP1 PUSH3 0x122 JUMP JUMPDEST DUP1 PUSH1 0x1 PUSH0 PUSH2 0x100 EXP DUP2 SLOAD DUP2 PUSH20 0xFFFFFFFFFFFFFFFFFFFFFFFFFFFFFFFFFFFFFFFF MUL NOT AND SWAP1 DUP4 PUSH20 0xFFFFFFFFFFFFFFFFFFFFFFFFFFFFFFFFFFFFFFFF AND MUL OR SWAP1 SSTORE POP DUP2 PUSH1 0x3 DUP2 SWAP1 SSTORE POP POP POP PUSH3 0x167 JUMP JUMPDEST PUSH0 DUP1 REVERT JUMPDEST PUSH0 DUP2 SWAP1 POP SWAP2 SWAP1 POP JUMP JUMPDEST PUSH3 0x9D DUP2 PUSH3 0x89 JUMP JUMPDEST DUP2 EQ PUSH3 0xA8 JUMPI PUSH0 DUP1 REVERT JUMPDEST POP JUMP JUMPDEST PUSH0 DUP2 MLOAD SWAP1 POP PUSH3 0xBB DUP2 PUSH3 0x92 JUMP JUMPDEST SWAP3 SWAP2 POP POP JUMP JUMPDEST PUSH0 PUSH20 0xFFFFFFFFFFFFFFFFFFFFFFFFFFFFFFFFFFFFFFFF DUP3 AND SWAP1 POP SWAP2 SWAP1 POP JUMP JUMPDEST PUSH0 PUSH3 0xEC DUP3 PUSH3 0xC1 JUMP JUMPDEST SWAP1 POP SWAP2 SWAP1 POP JUMP JUMPDEST PUSH3 0xFE DUP2 PUSH3 0xE0 JUMP JUMPDEST DUP2 EQ PUSH3 0x109 JUMPI PUSH0 DUP1 REVERT JUMPDEST POP JUMP JUMPDEST PUSH0 DUP2 MLOAD SWAP1 POP PUSH3 0x11C DUP2 PUSH3 0xF3 JUMP JUMPDEST SWAP3 SWAP2 POP POP JUMP JUMPDEST PUSH0 DUP1 PUSH1 0x40 DUP4 DUP6 SUB SLT ISZERO PUSH3 0x13B JUMPI PUSH3 0x13A PUSH3 0x85 JUMP JUMPDEST JUMPDEST PUSH0 PUSH3 0x14A DUP6 DUP3 DUP7 ADD PUSH3 0xAB JUMP JUMPDEST SWAP3 POP POP PUSH1 0x20 PUSH3 0x15D DUP6 DUP3 DUP7 ADD PUSH3 0x10C JUMP JUMPDEST SWAP2 POP POP SWAP3 POP SWAP3 SWAP1 POP JUMP JUMPDEST PUSH2 0x1578 DUP1 PUSH3 0x175 PUSH0 CODECOPY PUSH0 RETURN INVALID PUSH1 0x80 PUSH1 0x40 MSTORE PUSH1 0x4 CALLDATASIZE LT PUSH2 0xA6 JUMPI PUSH0 CALLDATALOAD PUSH1 0xE0 SHR DUP1 PUSH4 0x8A9CFD55 GT PUSH2 0x63 JUMPI DUP1 PUSH4 0x8A9CFD55 EQ PUSH2 0x1D0 JUMPI DUP1 PUSH4 0x937E09B1 EQ PUSH2 0x1F8 JUMPI DUP1 PUSH4 0x9FB42B1F EQ PUSH2 0x222 JUMPI DUP1 PUSH4 0xBC24811F EQ PUSH2 0x24C JUMPI DUP1 PUSH4 0xD7BB99BA EQ PUSH2 0x276 JUMPI DUP1 PUSH4 0xD7D1BBDB EQ PUSH2 0x280 JUMPI PUSH2 0xA6 JUMP JUMPDEST DUP1 PUSH4 0x3441006 EQ PUSH2 0xAA JUMPI DUP1 PUSH4 0xA144391 EQ PUSH2 0xD2 JUMPI DUP1 PUSH4 0x4051DDAC EQ PUSH2 0x10E JUMPI DUP1 PUSH4 0x481C6A75 EQ PUSH2 0x13C JUMPI DUP1 PUSH4 0x81D12C58 EQ PUSH2 0x166 JUMPI DUP1 PUSH4 0x82FDE093 EQ PUSH2 0x1A6 JUMPI JUMPDEST PUSH0 DUP1 REVERT JUMPDEST CALLVALUE DUP1 ISZERO PUSH2 0xB5 JUMPI PUSH0 DUP1 REVERT JUMPDEST POP PUSH2 0xD0 PUSH1 0x4 DUP1 CALLDATASIZE SUB DUP2 ADD SWAP1 PUSH2 0xCB SWAP2 SWAP1 PUSH2 0xACA JUMP JUMPDEST PUSH2 0x2A8 JUMP JUMPDEST STOP JUMPDEST CALLVALUE DUP1 ISZERO PUSH2 0xDD JUMPI PUSH0 DUP1 REVERT JUMPDEST POP PUSH2 0xF8 PUSH1 0x4 DUP1 CALLDATASIZE SUB DUP2 ADD SWAP1 PUSH2 0xF3 SWAP2 SWAP1 PUSH2 0xB4F JUMP JUMPDEST PUSH2 0x47C JUMP JUMPDEST PUSH1 0x40 MLOAD PUSH2 0x105 SWAP2 SWAP1 PUSH2 0xB94 JUMP JUMPDEST PUSH1 0x40 MLOAD DUP1 SWAP2 SUB SWAP1 RETURN JUMPDEST CALLVALUE DUP1 ISZERO PUSH2 0x119 JUMPI PUSH0 DUP1 REVERT JUMPDEST POP PUSH2 0x122 PUSH2 0x499 JUMP JUMPDEST PUSH1 0x40 MLOAD PUSH2 0x133 SWAP6 SWAP5 SWAP4 SWAP3 SWAP2 SWAP1 PUSH2 0xBCB JUMP JUMPDEST PUSH1 0x40 MLOAD DUP1 SWAP2 SUB SWAP1 RETURN JUMPDEST CALLVALUE DUP1 ISZERO PUSH2 0x147 JUMPI PUSH0 DUP1 REVERT JUMPDEST POP PUSH2 0x150 PUSH2 0x4DB JUMP JUMPDEST PUSH1 0x40 MLOAD PUSH2 0x15D SWAP2 SWAP1 PUSH2 0xC1C JUMP JUMPDEST PUSH1 0x40 MLOAD DUP1 SWAP2 SUB SWAP1 RETURN JUMPDEST CALLVALUE DUP1 ISZERO PUSH2 0x171 JUMPI PUSH0 DUP1 REVERT JUMPDEST POP PUSH2 0x18C PUSH1 0x4 DUP1 CALLDATASIZE SUB DUP2 ADD SWAP1 PUSH2 0x187 SWAP2 SWAP1 PUSH2 0xACA JUMP JUMPDEST PUSH2 0x500 JUMP JUMPDEST PUSH1 0x40 MLOAD PUSH2 0x19D SWAP6 SWAP5 SWAP4 SWAP3 SWAP2 SWAP1 PUSH2 0xCDF JUMP JUMPDEST PUSH1 0x40 MLOAD DUP1 SWAP2 SUB SWAP1 RETURN JUMPDEST CALLVALUE DUP1 ISZERO PUSH2 0x1B1 JUMPI PUSH0 DUP1 REVERT JUMPDEST POP PUSH2 0x1BA PUSH2 0x5E3 JUMP JUMPDEST PUSH1 0x40 MLOAD PUSH2 0x1C7 SWAP2 SWAP1 PUSH2 0xD37 JUMP JUMPDEST PUSH1 0x40 MLOAD DUP1 SWAP2 SUB SWAP1 RETURN JUMPDEST CALLVALUE DUP1 ISZERO PUSH2 0x1DB JUMPI PUSH0 DUP1 REVERT JUMPDEST POP PUSH2 0x1F6 PUSH1 0x4 DUP1 CALLDATASIZE SUB DUP2 ADD SWAP1 PUSH2 0x1F1 SWAP2 SWAP1 PUSH2 0xEA6 JUMP JUMPDEST PUSH2 0x5E9 JUMP JUMPDEST STOP JUMPDEST CALLVALUE DUP1 ISZERO PUSH2 0x203 JUMPI PUSH0 DUP1 REVERT JUMPDEST POP PUSH2 0x20C PUSH2 0x727 JUMP JUMPDEST PUSH1 0x40 MLOAD PUSH2 0x219 SWAP2 SWAP1 PUSH2 0xD37 JUMP JUMPDEST PUSH1 0x40 MLOAD DUP1 SWAP2 SUB SWAP1 RETURN JUMPDEST CALLVALUE DUP1 ISZERO PUSH2 0x22D JUMPI PUSH0 DUP1 REVERT JUMPDEST POP PUSH2 0x236 PUSH2 0x72D JUMP JUMPDEST PUSH1 0x40 MLOAD PUSH2 0x243 SWAP2 SWAP1 PUSH2 0xD37 JUMP JUMPDEST PUSH1 0x40 MLOAD DUP1 SWAP2 SUB SWAP1 RETURN JUMPDEST CALLVALUE DUP1 ISZERO PUSH2 0x257 JUMPI PUSH0 DUP1 REVERT JUMPDEST POP PUSH2 0x260 PUSH2 0x733 JUMP JUMPDEST PUSH1 0x40 MLOAD PUSH2 0x26D SWAP2 SWAP1 PUSH2 0xD37 JUMP JUMPDEST PUSH1 0x40 MLOAD DUP1 SWAP2 SUB SWAP1 RETURN JUMPDEST PUSH2 0x27E PUSH2 0x73C JUMP JUMPDEST STOP JUMPDEST CALLVALUE DUP1 ISZERO PUSH2 0x28B JUMPI PUSH0 DUP1 REVERT JUMPDEST POP PUSH2 0x2A6 PUSH1 0x4 DUP1 CALLDATASIZE SUB DUP2 ADD SWAP1 PUSH2 0x2A1 SWAP2 SWAP1 PUSH2 0xACA JUMP JUMPDEST PUSH2 0x83D JUMP JUMPDEST STOP JUMPDEST PUSH1 0x1 PUSH0 SWAP1 SLOAD SWAP1 PUSH2 0x100 EXP SWAP1 DIV PUSH20 0xFFFFFFFFFFFFFFFFFFFFFFFFFFFFFFFFFFFFFFFF AND PUSH20 0xFFFFFFFFFFFFFFFFFFFFFFFFFFFFFFFFFFFFFFFF AND CALLER PUSH20 0xFFFFFFFFFFFFFFFFFFFFFFFFFFFFFFFFFFFFFFFF AND EQ PUSH2 0x337 JUMPI PUSH1 0x40 MLOAD PUSH32 0x8C379A000000000000000000000000000000000000000000000000000000000 DUP2 MSTORE PUSH1 0x4 ADD PUSH2 0x32E SWAP1 PUSH2 0xF5C JUMP JUMPDEST PUSH1 0x40 MLOAD DUP1 SWAP2 SUB SWAP1 REVERT JUMPDEST PUSH0 DUP1 PUSH0 DUP4 DUP2 MSTORE PUSH1 0x20 ADD SWAP1 DUP2 MSTORE PUSH1 0x20 ADD PUSH0 KECCAK256 SWAP1 POP PUSH1 0x2 PUSH1 0x4 SLOAD PUSH2 0x359 SWAP2 SWAP1 PUSH2 0xFD4 JUMP JUMPDEST DUP2 PUSH1 0x3 ADD SLOAD GT PUSH2 0x39E JUMPI PUSH1 0x40 MLOAD PUSH32 0x8C379A000000000000000000000000000000000000000000000000000000000 DUP2 MSTORE PUSH1 0x4 ADD PUSH2 0x395 SWAP1 PUSH2 0x104E JUMP JUMPDEST PUSH1 0x40 MLOAD DUP1 SWAP2 SUB SWAP1 REVERT JUMPDEST DUP1 PUSH1 0x2 ADD PUSH1 0x14 SWAP1 SLOAD SWAP1 PUSH2 0x100 EXP SWAP1 DIV PUSH1 0xFF AND ISZERO PUSH2 0x3F0 JUMPI PUSH1 0x40 MLOAD PUSH32 0x8C379A000000000000000000000000000000000000000000000000000000000 DUP2 MSTORE PUSH1 0x4 ADD PUSH2 0x3E7 SWAP1 PUSH2 0x10B6 JUMP JUMPDEST PUSH1 0x40 MLOAD DUP1 SWAP2 SUB SWAP1 REVERT JUMPDEST DUP1 PUSH1 0x2 ADD PUSH0 SWAP1 SLOAD SWAP1 PUSH2 0x100 EXP SWAP1 DIV PUSH20 0xFFFFFFFFFFFFFFFFFFFFFFFFFFFFFFFFFFFFFFFF AND PUSH20 0xFFFFFFFFFFFFFFFFFFFFFFFFFFFFFFFFFFFFFFFF AND PUSH2 0x8FC DUP3 PUSH1 0x1 ADD SLOAD SWAP1 DUP2 ISZERO MUL SWAP1 PUSH1 0x40 MLOAD PUSH0 PUSH1 0x40 MLOAD DUP1 DUP4 SUB DUP2 DUP6 DUP9 DUP9 CALL SWAP4 POP POP POP POP ISZERO DUP1 ISZERO PUSH2 0x45A JUMPI RETURNDATASIZE PUSH0 DUP1 RETURNDATACOPY RETURNDATASIZE PUSH0 REVERT JUMPDEST POP PUSH1 0x1 DUP2 PUSH1 0x2 ADD PUSH1 0x14 PUSH2 0x100 EXP DUP2 SLOAD DUP2 PUSH1 0xFF MUL NOT AND SWAP1 DUP4 ISZERO ISZERO MUL OR SWAP1 SSTORE POP POP POP JUMP JUMPDEST PUSH1 0x5 PUSH1 0x20 MSTORE DUP1 PUSH0 MSTORE PUSH1 0x40 PUSH0 KECCAK256 PUSH0 SWAP2 POP SLOAD SWAP1 PUSH2 0x100 EXP SWAP1 DIV PUSH1 0xFF AND DUP2 JUMP JUMPDEST PUSH0 DUP1 PUSH0 DUP1 PUSH0 PUSH1 0x3 SLOAD SELFBALANCE PUSH1 0x2 SLOAD PUSH1 0x4 SLOAD PUSH1 0x1 PUSH0 SWAP1 SLOAD SWAP1 PUSH2 0x100 EXP SWAP1 DIV PUSH20 0xFFFFFFFFFFFFFFFFFFFFFFFFFFFFFFFFFFFFFFFF AND SWAP5 POP SWAP5 POP SWAP5 POP SWAP5 POP SWAP5 POP SWAP1 SWAP2 SWAP3 SWAP4 SWAP5 JUMP JUMPDEST PUSH1 0x1 PUSH0 SWAP1 SLOAD SWAP1 PUSH2 0x100 EXP SWAP1 DIV PUSH20 0xFFFFFFFFFFFFFFFFFFFFFFFFFFFFFFFFFFFFFFFF AND DUP2 JUMP JUMPDEST PUSH0 PUSH1 0x20 MSTORE DUP1 PUSH0 MSTORE PUSH1 0x40 PUSH0 KECCAK256 PUSH0 SWAP2 POP SWAP1 POP DUP1 PUSH0 ADD DUP1 SLOAD PUSH2 0x51E SWAP1 PUSH2 0x1101 JUMP JUMPDEST DUP1 PUSH1 0x1F ADD PUSH1 0x20 DUP1 SWAP2 DIV MUL PUSH1 0x20 ADD PUSH1 0x40 MLOAD SWAP1 DUP2 ADD PUSH1 0x40 MSTORE DUP1 SWAP3 SWAP2 SWAP1 DUP2 DUP2 MSTORE PUSH1 0x20 ADD DUP3 DUP1 SLOAD PUSH2 0x54A SWAP1 PUSH2 0x1101 JUMP JUMPDEST DUP1 ISZERO PUSH2 0x595 JUMPI DUP1 PUSH1 0x1F LT PUSH2 0x56C JUMPI PUSH2 0x100 DUP1 DUP4 SLOAD DIV MUL DUP4 MSTORE SWAP2 PUSH1 0x20 ADD SWAP2 PUSH2 0x595 JUMP JUMPDEST DUP3 ADD SWAP2 SWAP1 PUSH0 MSTORE PUSH1 0x20 PUSH0 KECCAK256 SWAP1 JUMPDEST DUP2 SLOAD DUP2 MSTORE SWAP1 PUSH1 0x1 ADD SWAP1 PUSH1 0x20 ADD DUP1 DUP4 GT PUSH2 0x578 JUMPI DUP3 SWAP1 SUB PUSH1 0x1F AND DUP3 ADD SWAP2 JUMPDEST POP POP POP POP POP SWAP1 DUP1 PUSH1 0x1 ADD SLOAD SWAP1 DUP1 PUSH1 0x2 ADD PUSH0 SWAP1 SLOAD SWAP1 PUSH2 0x100 EXP SWAP1 DIV PUSH20 0xFFFFFFFFFFFFFFFFFFFFFFFFFFFFFFFFFFFFFFFF AND SWAP1 DUP1 PUSH1 0x2 ADD PUSH1 0x14 SWAP1 SLOAD SWAP1 PUSH2 0x100 EXP SWAP1 DIV PUSH1 0xFF AND SWAP1 DUP1 PUSH1 0x3 ADD SLOAD SWAP1 POP DUP6 JUMP JUMPDEST PUSH1 0x4 SLOAD DUP2 JUMP JUMPDEST PUSH1 0x1 PUSH0 SWAP1 SLOAD SWAP1 PUSH2 0x100 EXP SWAP1 DIV PUSH20 0xFFFFFFFFFFFFFFFFFFFFFFFFFFFFFFFFFFFFFFFF AND PUSH20 0xFFFFFFFFFFFFFFFFFFFFFFFFFFFFFFFFFFFFFFFF AND CALLER PUSH20 0xFFFFFFFFFFFFFFFFFFFFFFFFFFFFFFFFFFFFFFFF AND EQ PUSH2 0x678 JUMPI PUSH1 0x40 MLOAD PUSH32 0x8C379A000000000000000000000000000000000000000000000000000000000 DUP2 MSTORE PUSH1 0x4 ADD PUSH2 0x66F SWAP1 PUSH2 0xF5C JUMP JUMPDEST PUSH1 0x40 MLOAD DUP1 SWAP2 SUB SWAP1 REVERT JUMPDEST PUSH0 DUP1 PUSH0 PUSH1 0x2 PUSH0 DUP2 SLOAD DUP1 SWAP3 SWAP2 SWAP1 PUSH2 0x68D SWAP1 PUSH2 0x1131 JUMP JUMPDEST SWAP2 SWAP1 POP SSTORE DUP2 MSTORE PUSH1 0x20 ADD SWAP1 DUP2 MSTORE PUSH1 0x20 ADD PUSH0 KECCAK256 SWAP1 POP DUP4 DUP2 PUSH0 ADD SWAP1 DUP2 PUSH2 0x6B0 SWAP2 SWAP1 PUSH2 0x1315 JUMP JUMPDEST POP DUP3 DUP2 PUSH1 0x1 ADD DUP2 SWAP1 SSTORE POP DUP2 DUP2 PUSH1 0x2 ADD PUSH0 PUSH2 0x100 EXP DUP2 SLOAD DUP2 PUSH20 0xFFFFFFFFFFFFFFFFFFFFFFFFFFFFFFFFFFFFFFFF MUL NOT AND SWAP1 DUP4 PUSH20 0xFFFFFFFFFFFFFFFFFFFFFFFFFFFFFFFFFFFFFFFF AND MUL OR SWAP1 SSTORE POP PUSH0 DUP2 PUSH1 0x2 ADD PUSH1 0x14 PUSH2 0x100 EXP DUP2 SLOAD DUP2 PUSH1 0xFF MUL NOT AND SWAP1 DUP4 ISZERO ISZERO MUL OR SWAP1 SSTORE POP PUSH0 DUP2 PUSH1 0x3 ADD DUP2 SWAP1 SSTORE POP POP POP POP POP JUMP JUMPDEST PUSH1 0x3 SLOAD DUP2 JUMP JUMPDEST PUSH1 0x2 SLOAD DUP2 JUMP JUMPDEST PUSH0 PUSH1 0x2 SLOAD SWAP1 POP SWAP1 JUMP JUMPDEST PUSH1 0x3 SLOAD CALLVALUE GT PUSH2 0x780 JUMPI PUSH1 0x40 MLOAD PUSH32 0x8C379A000000000000000000000000000000000000000000000000000000000 DUP2 MSTORE PUSH1 0x4 ADD PUSH2 0x777 SWAP1 PUSH2 0x1454 JUMP JUMPDEST PUSH1 0x40 MLOAD DUP1 SWAP2 SUB SWAP1 REVERT JUMPDEST PUSH1 0x5 PUSH0 CALLER PUSH20 0xFFFFFFFFFFFFFFFFFFFFFFFFFFFFFFFFFFFFFFFF AND PUSH20 0xFFFFFFFFFFFFFFFFFFFFFFFFFFFFFFFFFFFFFFFF AND DUP2 MSTORE PUSH1 0x20 ADD SWAP1 DUP2 MSTORE PUSH1 0x20 ADD PUSH0 KECCAK256 PUSH0 SWAP1 SLOAD SWAP1 PUSH2 0x100 EXP SWAP1 DIV PUSH1 0xFF AND PUSH2 0x83B JUMPI PUSH1 0x1 PUSH1 0x5 PUSH0 CALLER PUSH20 0xFFFFFFFFFFFFFFFFFFFFFFFFFFFFFFFFFFFFFFFF AND PUSH20 0xFFFFFFFFFFFFFFFFFFFFFFFFFFFFFFFFFFFFFFFF AND DUP2 MSTORE PUSH1 0x20 ADD SWAP1 DUP2 MSTORE PUSH1 0x20 ADD PUSH0 KECCAK256 PUSH0 PUSH2 0x100 EXP DUP2 SLOAD DUP2 PUSH1 0xFF MUL NOT AND SWAP1 DUP4 ISZERO ISZERO MUL OR SWAP1 SSTORE POP PUSH1 0x4 PUSH0 DUP2 SLOAD DUP1 SWAP3 SWAP2 SWAP1 PUSH2 0x835 SWAP1 PUSH2 0x1131 JUMP JUMPDEST SWAP2 SWAP1 POP SSTORE POP JUMPDEST JUMP JUMPDEST PUSH1 0x1 PUSH0 SWAP1 SLOAD SWAP1 PUSH2 0x100 EXP SWAP1 DIV PUSH20 0xFFFFFFFFFFFFFFFFFFFFFFFFFFFFFFFFFFFFFFFF AND PUSH20 0xFFFFFFFFFFFFFFFFFFFFFFFFFFFFFFFFFFFFFFFF AND CALLER PUSH20 0xFFFFFFFFFFFFFFFFFFFFFFFFFFFFFFFFFFFFFFFF AND EQ PUSH2 0x8CC JUMPI PUSH1 0x40 MLOAD PUSH32 0x8C379A000000000000000000000000000000000000000000000000000000000 DUP2 MSTORE PUSH1 0x4 ADD PUSH2 0x8C3 SWAP1 PUSH2 0xF5C JUMP JUMPDEST PUSH1 0x40 MLOAD DUP1 SWAP2 SUB SWAP1 REVERT JUMPDEST PUSH0 DUP1 PUSH0 DUP4 DUP2 MSTORE PUSH1 0x20 ADD SWAP1 DUP2 MSTORE PUSH1 0x20 ADD PUSH0 KECCAK256 SWAP1 POP PUSH1 0x5 PUSH0 CALLER PUSH20 0xFFFFFFFFFFFFFFFFFFFFFFFFFFFFFFFFFFFFFFFF AND PUSH20 0xFFFFFFFFFFFFFFFFFFFFFFFFFFFFFFFFFFFFFFFF AND DUP2 MSTORE PUSH1 0x20 ADD SWAP1 DUP2 MSTORE PUSH1 0x20 ADD PUSH0 KECCAK256 PUSH0 SWAP1 SLOAD SWAP1 PUSH2 0x100 EXP SWAP1 DIV PUSH1 0xFF AND PUSH2 0x968 JUMPI PUSH1 0x40 MLOAD PUSH32 0x8C379A000000000000000000000000000000000000000000000000000000000 DUP2 MSTORE PUSH1 0x4 ADD PUSH2 0x95F SWAP1 PUSH2 0x14BC JUMP JUMPDEST PUSH1 0x40 MLOAD DUP1 SWAP2 SUB SWAP1 REVERT JUMPDEST DUP1 PUSH1 0x4 ADD PUSH0 CALLER PUSH20 0xFFFFFFFFFFFFFFFFFFFFFFFFFFFFFFFFFFFFFFFF AND PUSH20 0xFFFFFFFFFFFFFFFFFFFFFFFFFFFFFFFFFFFFFFFF AND DUP2 MSTORE PUSH1 0x20 ADD SWAP1 DUP2 MSTORE PUSH1 0x20 ADD PUSH0 KECCAK256 PUSH0 SWAP1 SLOAD SWAP1 PUSH2 0x100 EXP SWAP1 DIV PUSH1 0xFF AND ISZERO PUSH2 0x9F4 JUMPI PUSH1 0x40 MLOAD PUSH32 0x8C379A000000000000000000000000000000000000000000000000000000000 DUP2 MSTORE PUSH1 0x4 ADD PUSH2 0x9EB SWAP1 PUSH2 0x1524 JUMP JUMPDEST PUSH1 0x40 MLOAD DUP1 SWAP2 SUB SWAP1 REVERT JUMPDEST PUSH1 0x1 PUSH0 DUP1 DUP5 DUP2 MSTORE PUSH1 0x20 ADD SWAP1 DUP2 MSTORE PUSH1 0x20 ADD PUSH0 KECCAK256 PUSH1 0x4 ADD PUSH0 CALLER PUSH20 0xFFFFFFFFFFFFFFFFFFFFFFFFFFFFFFFFFFFFFFFF AND PUSH20 0xFFFFFFFFFFFFFFFFFFFFFFFFFFFFFFFFFFFFFFFF AND DUP2 MSTORE PUSH1 0x20 ADD SWAP1 DUP2 MSTORE PUSH1 0x20 ADD PUSH0 KECCAK256 PUSH0 PUSH2 0x100 EXP DUP2 SLOAD DUP2 PUSH1 0xFF MUL NOT AND SWAP1 DUP4 ISZERO ISZERO MUL OR SWAP1 SSTORE POP PUSH0 DUP1 DUP4 DUP2 MSTORE PUSH1 0x20 ADD SWAP1 DUP2 MSTORE PUSH1 0x20 ADD PUSH0 KECCAK256 PUSH1 0x3 ADD PUSH0 DUP2 SLOAD DUP1 SWAP3 SWAP2 SWAP1 PUSH2 0xA7D SWAP1 PUSH2 0x1131 JUMP JUMPDEST SWAP2 SWAP1 POP SSTORE POP POP POP JUMP JUMPDEST PUSH0 PUSH1 0x40 MLOAD SWAP1 POP SWAP1 JUMP JUMPDEST PUSH0 DUP1 REVERT JUMPDEST PUSH0 DUP1 REVERT JUMPDEST PUSH0 DUP2 SWAP1 POP SWAP2 SWAP1 POP JUMP JUMPDEST PUSH2 0xAA9 DUP2 PUSH2 0xA97 JUMP JUMPDEST DUP2 EQ PUSH2 0xAB3 JUMPI PUSH0 DUP1 REVERT JUMPDEST POP JUMP JUMPDEST PUSH0 DUP2 CALLDATALOAD SWAP1 POP PUSH2 0xAC4 DUP2 PUSH2 0xAA0 JUMP JUMPDEST SWAP3 SWAP2 POP POP JUMP JUMPDEST PUSH0 PUSH1 0x20 DUP3 DUP5 SUB SLT ISZERO PUSH2 0xADF JUMPI PUSH2 0xADE PUSH2 0xA8F JUMP JUMPDEST JUMPDEST PUSH0 PUSH2 0xAEC DUP5 DUP3 DUP6 ADD PUSH2 0xAB6 JUMP JUMPDEST SWAP2 POP POP SWAP3 SWAP2 POP POP JUMP JUMPDEST PUSH0 PUSH20 0xFFFFFFFFFFFFFFFFFFFFFFFFFFFFFFFFFFFFFFFF DUP3 AND SWAP1 POP SWAP2 SWAP1 POP JUMP JUMPDEST PUSH0 PUSH2 0xB1E DUP3 PUSH2 0xAF5 JUMP JUMPDEST SWAP1 POP SWAP2 SWAP1 POP JUMP JUMPDEST PUSH2 0xB2E DUP2 PUSH2 0xB14 JUMP JUMPDEST DUP2 EQ PUSH2 0xB38 JUMPI PUSH0 DUP1 REVERT JUMPDEST POP JUMP JUMPDEST PUSH0 DUP2 CALLDATALOAD SWAP1 POP PUSH2 0xB49 DUP2 PUSH2 0xB25 JUMP JUMPDEST SWAP3 SWAP2 POP POP JUMP JUMPDEST PUSH0 PUSH1 0x20 DUP3 DUP5 SUB SLT ISZERO PUSH2 0xB64 JUMPI PUSH2 0xB63 PUSH2 0xA8F JUMP JUMPDEST JUMPDEST PUSH0 PUSH2 0xB71 DUP5 DUP3 DUP6 ADD PUSH2 0xB3B JUMP JUMPDEST SWAP2 POP POP SWAP3 SWAP2 POP POP JUMP JUMPDEST PUSH0 DUP2 ISZERO ISZERO SWAP1 POP SWAP2 SWAP1 POP JUMP JUMPDEST PUSH2 0xB8E DUP2 PUSH2 0xB7A JUMP JUMPDEST DUP3 MSTORE POP POP JUMP JUMPDEST PUSH0 PUSH1 0x20 DUP3 ADD SWAP1 POP PUSH2 0xBA7 PUSH0 DUP4 ADD DUP5 PUSH2 0xB85 JUMP JUMPDEST SWAP3 SWAP2 POP POP JUMP JUMPDEST PUSH2 0xBB6 DUP2 PUSH2 0xA97 JUMP JUMPDEST DUP3 MSTORE POP POP JUMP JUMPDEST PUSH2 0xBC5 DUP2 PUSH2 0xB14 JUMP JUMPDEST DUP3 MSTORE POP POP JUMP JUMPDEST PUSH0 PUSH1 0xA0 DUP3 ADD SWAP1 POP PUSH2 0xBDE PUSH0 DUP4 ADD DUP9 PUSH2 0xBAD JUMP JUMPDEST PUSH2 0xBEB PUSH1 0x20 DUP4 ADD DUP8 PUSH2 0xBAD JUMP JUMPDEST PUSH2 0xBF8 PUSH1 0x40 DUP4 ADD DUP7 PUSH2 0xBAD JUMP JUMPDEST PUSH2 0xC05 PUSH1 0x60 DUP4 ADD DUP6 PUSH2 0xBAD JUMP JUMPDEST PUSH2 0xC12 PUSH1 0x80 DUP4 ADD DUP5 PUSH2 0xBBC JUMP JUMPDEST SWAP7 SWAP6 POP POP POP POP POP POP JUMP JUMPDEST PUSH0 PUSH1 0x20 DUP3 ADD SWAP1 POP PUSH2 0xC2F PUSH0 DUP4 ADD DUP5 PUSH2 0xBBC JUMP JUMPDEST SWAP3 SWAP2 POP POP JUMP JUMPDEST PUSH0 DUP2 MLOAD SWAP1 POP SWAP2 SWAP1 POP JUMP JUMPDEST PUSH0 DUP3 DUP3 MSTORE PUSH1 0x20 DUP3 ADD SWAP1 POP SWAP3 SWAP2 POP POP JUMP JUMPDEST PUSH0 JUMPDEST DUP4 DUP2 LT ISZERO PUSH2 0xC6C JUMPI DUP1 DUP3 ADD MLOAD DUP2 DUP5 ADD MSTORE PUSH1 0x20 DUP2 ADD SWAP1 POP PUSH2 0xC51 JUMP JUMPDEST PUSH0 DUP5 DUP5 ADD MSTORE POP POP POP POP JUMP JUMPDEST PUSH0 PUSH1 0x1F NOT PUSH1 0x1F DUP4 ADD AND SWAP1 POP SWAP2 SWAP1 POP JUMP JUMPDEST PUSH0 PUSH2 0xC91 DUP3 PUSH2 0xC35 JUMP JUMPDEST PUSH2 0xC9B DUP2 DUP6 PUSH2 0xC3F JUMP JUMPDEST SWAP4 POP PUSH2 0xCAB DUP2 DUP6 PUSH1 0x20 DUP7 ADD PUSH2 0xC4F JUMP JUMPDEST PUSH2 0xCB4 DUP2 PUSH2 0xC77 JUMP JUMPDEST DUP5 ADD SWAP2 POP POP SWAP3 SWAP2 POP POP JUMP JUMPDEST PUSH0 PUSH2 0xCC9 DUP3 PUSH2 0xAF5 JUMP JUMPDEST SWAP1 POP SWAP2 SWAP1 POP JUMP JUMPDEST PUSH2 0xCD9 DUP2 PUSH2 0xCBF JUMP JUMPDEST DUP3 MSTORE POP POP JUMP JUMPDEST PUSH0 PUSH1 0xA0 DUP3 ADD SWAP1 POP DUP2 DUP2 SUB PUSH0 DUP4 ADD MSTORE PUSH2 0xCF7 DUP2 DUP9 PUSH2 0xC87 JUMP JUMPDEST SWAP1 POP PUSH2 0xD06 PUSH1 0x20 DUP4 ADD DUP8 PUSH2 0xBAD JUMP JUMPDEST PUSH2 0xD13 PUSH1 0x40 DUP4 ADD DUP7 PUSH2 0xCD0 JUMP JUMPDEST PUSH2 0xD20 PUSH1 0x60 DUP4 ADD DUP6 PUSH2 0xB85 JUMP JUMPDEST PUSH2 0xD2D PUSH1 0x80 DUP4 ADD DUP5 PUSH2 0xBAD JUMP JUMPDEST SWAP7 SWAP6 POP POP POP POP POP POP JUMP JUMPDEST PUSH0 PUSH1 0x20 DUP3 ADD SWAP1 POP PUSH2 0xD4A PUSH0 DUP4 ADD DUP5 PUSH2 0xBAD JUMP JUMPDEST SWAP3 SWAP2 POP POP JUMP JUMPDEST PUSH0 DUP1 REVERT JUMPDEST PUSH0 DUP1 REVERT JUMPDEST PUSH32 0x4E487B7100000000000000000000000000000000000000000000000000000000 PUSH0 MSTORE PUSH1 0x41 PUSH1 0x4 MSTORE PUSH1 0x24 PUSH0 REVERT JUMPDEST PUSH2 0xD8E DUP3 PUSH2 0xC77 JUMP JUMPDEST DUP2 ADD DUP2 DUP2 LT PUSH8 0xFFFFFFFFFFFFFFFF DUP3 GT OR ISZERO PUSH2 0xDAD JUMPI PUSH2 0xDAC PUSH2 0xD58 JUMP JUMPDEST JUMPDEST DUP1 PUSH1 0x40 MSTORE POP POP POP JUMP JUMPDEST PUSH0 PUSH2 0xDBF PUSH2 0xA86 JUMP JUMPDEST SWAP1 POP PUSH2 0xDCB DUP3 DUP3 PUSH2 0xD85 JUMP JUMPDEST SWAP2 SWAP1 POP JUMP JUMPDEST PUSH0 PUSH8 0xFFFFFFFFFFFFFFFF DUP3 GT ISZERO PUSH2 0xDEA JUMPI PUSH2 0xDE9 PUSH2 0xD58 JUMP JUMPDEST JUMPDEST PUSH2 0xDF3 DUP3 PUSH2 0xC77 JUMP JUMPDEST SWAP1 POP PUSH1 0x20 DUP2 ADD SWAP1 POP SWAP2 SWAP1 POP JUMP JUMPDEST DUP3 DUP2 DUP4 CALLDATACOPY PUSH0 DUP4 DUP4 ADD MSTORE POP POP POP JUMP JUMPDEST PUSH0 PUSH2 0xE20 PUSH2 0xE1B DUP5 PUSH2 0xDD0 JUMP JUMPDEST PUSH2 0xDB6 JUMP JUMPDEST SWAP1 POP DUP3 DUP2 MSTORE PUSH1 0x20 DUP2 ADD DUP5 DUP5 DUP5 ADD GT ISZERO PUSH2 0xE3C JUMPI PUSH2 0xE3B PUSH2 0xD54 JUMP JUMPDEST JUMPDEST PUSH2 0xE47 DUP5 DUP3 DUP6 PUSH2 0xE00 JUMP JUMPDEST POP SWAP4 SWAP3 POP POP POP JUMP JUMPDEST PUSH0 DUP3 PUSH1 0x1F DUP4 ADD SLT PUSH2 0xE63 JUMPI PUSH2 0xE62 PUSH2 0xD50 JUMP JUMPDEST JUMPDEST DUP2 CALLDATALOAD PUSH2 0xE73 DUP5 DUP3 PUSH1 0x20 DUP7 ADD PUSH2 0xE0E JUMP JUMPDEST SWAP2 POP POP SWAP3 SWAP2 POP POP JUMP JUMPDEST PUSH2 0xE85 DUP2 PUSH2 0xCBF JUMP JUMPDEST DUP2 EQ PUSH2 0xE8F JUMPI PUSH0 DUP1 REVERT JUMPDEST POP JUMP JUMPDEST PUSH0 DUP2 CALLDATALOAD SWAP1 POP PUSH2 0xEA0 DUP2 PUSH2 0xE7C JUMP JUMPDEST SWAP3 SWAP2 POP POP JUMP JUMPDEST PUSH0 DUP1 PUSH0 PUSH1 0x60 DUP5 DUP7 SUB SLT ISZERO PUSH2 0xEBD JUMPI PUSH2 0xEBC PUSH2 0xA8F JUMP JUMPDEST JUMPDEST PUSH0 DUP5 ADD CALLDATALOAD PUSH8 0xFFFFFFFFFFFFFFFF DUP2 GT ISZERO PUSH2 0xEDA JUMPI PUSH2 0xED9 PUSH2 0xA93 JUMP JUMPDEST JUMPDEST PUSH2 0xEE6 DUP7 DUP3 DUP8 ADD PUSH2 0xE4F JUMP JUMPDEST SWAP4 POP POP PUSH1 0x20 PUSH2 0xEF7 DUP7 DUP3 DUP8 ADD PUSH2 0xAB6 JUMP JUMPDEST SWAP3 POP POP PUSH1 0x40 PUSH2 0xF08 DUP7 DUP3 DUP8 ADD PUSH2 0xE92 JUMP JUMPDEST SWAP2 POP POP SWAP3 POP SWAP3 POP SWAP3 JUMP JUMPDEST PUSH32 0x4E6F7420746865206D616E616765720000000000000000000000000000000000 PUSH0 DUP3 ADD MSTORE POP JUMP JUMPDEST PUSH0 PUSH2 0xF46 PUSH1 0xF DUP4 PUSH2 0xC3F JUMP JUMPDEST SWAP2 POP PUSH2 0xF51 DUP3 PUSH2 0xF12 JUMP JUMPDEST PUSH1 0x20 DUP3 ADD SWAP1 POP SWAP2 SWAP1 POP JUMP JUMPDEST PUSH0 PUSH1 0x20 DUP3 ADD SWAP1 POP DUP2 DUP2 SUB PUSH0 DUP4 ADD MSTORE PUSH2 0xF73 DUP2 PUSH2 0xF3A JUMP JUMPDEST SWAP1 POP SWAP2 SWAP1 POP JUMP JUMPDEST PUSH32 0x4E487B7100000000000000000000000000000000000000000000000000000000 PUSH0 MSTORE PUSH1 0x12 PUSH1 0x4 MSTORE PUSH1 0x24 PUSH0 REVERT JUMPDEST PUSH32 0x4E487B7100000000000000000000000000000000000000000000000000000000 PUSH0 MSTORE PUSH1 0x11 PUSH1 0x4 MSTORE PUSH1 0x24 PUSH0 REVERT JUMPDEST PUSH0 PUSH2 0xFDE DUP3 PUSH2 0xA97 JUMP JUMPDEST SWAP2 POP PUSH2 0xFE9 DUP4 PUSH2 0xA97 JUMP JUMPDEST SWAP3 POP DUP3 PUSH2 0xFF9 JUMPI PUSH2 0xFF8 PUSH2 0xF7A JUMP JUMPDEST JUMPDEST DUP3 DUP3 DIV SWAP1 POP SWAP3 SWAP2 POP POP JUMP JUMPDEST PUSH32 0x4E6F7420656E6F75676820617070726F76657273000000000000000000000000 PUSH0 DUP3 ADD MSTORE POP JUMP JUMPDEST PUSH0 PUSH2 0x1038 PUSH1 0x14 DUP4 PUSH2 0xC3F JUMP JUMPDEST SWAP2 POP PUSH2 0x1043 DUP3 PUSH2 0x1004 JUMP JUMPDEST PUSH1 0x20 DUP3 ADD SWAP1 POP SWAP2 SWAP1 POP JUMP JUMPDEST PUSH0 PUSH1 0x20 DUP3 ADD SWAP1 POP DUP2 DUP2 SUB PUSH0 DUP4 ADD MSTORE PUSH2 0x1065 DUP2 PUSH2 0x102C JUMP JUMPDEST SWAP1 POP SWAP2 SWAP1 POP JUMP JUMPDEST PUSH32 0x5265717565737420616C72656164792066696E616C697A656400000000000000 PUSH0 DUP3 ADD MSTORE POP JUMP JUMPDEST PUSH0 PUSH2 0x10A0 PUSH1 0x19 DUP4 PUSH2 0xC3F JUMP JUMPDEST SWAP2 POP PUSH2 0x10AB DUP3 PUSH2 0x106C JUMP JUMPDEST PUSH1 0x20 DUP3 ADD SWAP1 POP SWAP2 SWAP1 POP JUMP JUMPDEST PUSH0 PUSH1 0x20 DUP3 ADD SWAP1 POP DUP2 DUP2 SUB PUSH0 DUP4 ADD MSTORE PUSH2 0x10CD DUP2 PUSH2 0x1094 JUMP JUMPDEST SWAP1 POP SWAP2 SWAP1 POP JUMP JUMPDEST PUSH32 0x4E487B7100000000000000000000000000000000000000000000000000000000 PUSH0 MSTORE PUSH1 0x22 PUSH1 0x4 MSTORE PUSH1 0x24 PUSH0 REVERT JUMPDEST PUSH0 PUSH1 0x2 DUP3 DIV SWAP1 POP PUSH1 0x1 DUP3 AND DUP1 PUSH2 0x1118 JUMPI PUSH1 0x7F DUP3 AND SWAP2 POP JUMPDEST PUSH1 0x20 DUP3 LT DUP2 SUB PUSH2 0x112B JUMPI PUSH2 0x112A PUSH2 0x10D4 JUMP JUMPDEST JUMPDEST POP SWAP2 SWAP1 POP JUMP JUMPDEST PUSH0 PUSH2 0x113B DUP3 PUSH2 0xA97 JUMP JUMPDEST SWAP2 POP PUSH32 0xFFFFFFFFFFFFFFFFFFFFFFFFFFFFFFFFFFFFFFFFFFFFFFFFFFFFFFFFFFFFFFFF DUP3 SUB PUSH2 0x116D JUMPI PUSH2 0x116C PUSH2 0xFA7 JUMP JUMPDEST JUMPDEST PUSH1 0x1 DUP3 ADD SWAP1 POP SWAP2 SWAP1 POP JUMP JUMPDEST PUSH0 DUP2 SWAP1 POP DUP2 PUSH0 MSTORE PUSH1 0x20 PUSH0 KECCAK256 SWAP1 POP SWAP2 SWAP1 POP JUMP JUMPDEST PUSH0 PUSH1 0x20 PUSH1 0x1F DUP4 ADD DIV SWAP1 POP SWAP2 SWAP1 POP JUMP JUMPDEST PUSH0 DUP3 DUP3 SHL SWAP1 POP SWAP3 SWAP2 POP POP JUMP JUMPDEST PUSH0 PUSH1 0x8 DUP4 MUL PUSH2 0x11D4 PUSH32 0xFFFFFFFFFFFFFFFFFFFFFFFFFFFFFFFFFFFFFFFFFFFFFFFFFFFFFFFFFFFFFFFF DUP3 PUSH2 0x1199 JUMP JUMPDEST PUSH2 0x11DE DUP7 DUP4 PUSH2 0x1199 JUMP JUMPDEST SWAP6 POP DUP1 NOT DUP5 AND SWAP4 POP DUP1 DUP7 AND DUP5 OR SWAP3 POP POP POP SWAP4 SWAP3 POP POP POP JUMP JUMPDEST PUSH0 DUP2 SWAP1 POP SWAP2 SWAP1 POP JUMP JUMPDEST PUSH0 PUSH2 0x1219 PUSH2 0x1214 PUSH2 0x120F DUP5 PUSH2 0xA97 JUMP JUMPDEST PUSH2 0x11F6 JUMP JUMPDEST PUSH2 0xA97 JUMP JUMPDEST SWAP1 POP SWAP2 SWAP1 POP JUMP JUMPDEST PUSH0 DUP2 SWAP1 POP SWAP2 SWAP1 POP JUMP JUMPDEST PUSH2 0x1232 DUP4 PUSH2 0x11FF JUMP JUMPDEST PUSH2 0x1246 PUSH2 0x123E DUP3 PUSH2 0x1220 JUMP JUMPDEST DUP5 DUP5 SLOAD PUSH2 0x11A5 JUMP JUMPDEST DUP3 SSTORE POP POP POP POP JUMP JUMPDEST PUSH0 SWAP1 JUMP JUMPDEST PUSH2 0x125A PUSH2 0x124E JUMP JUMPDEST PUSH2 0x1265 DUP2 DUP5 DUP5 PUSH2 0x1229 JUMP JUMPDEST POP POP POP JUMP JUMPDEST JUMPDEST DUP2 DUP2 LT ISZERO PUSH2 0x1288 JUMPI PUSH2 0x127D PUSH0 DUP3 PUSH2 0x1252 JUMP JUMPDEST PUSH1 0x1 DUP2 ADD SWAP1 POP PUSH2 0x126B JUMP JUMPDEST POP POP JUMP JUMPDEST PUSH1 0x1F DUP3 GT ISZERO PUSH2 0x12CD JUMPI PUSH2 0x129E DUP2 PUSH2 0x1178 JUMP JUMPDEST PUSH2 0x12A7 DUP5 PUSH2 0x118A JUMP JUMPDEST DUP2 ADD PUSH1 0x20 DUP6 LT ISZERO PUSH2 0x12B6 JUMPI DUP2 SWAP1 POP JUMPDEST PUSH2 0x12CA PUSH2 0x12C2 DUP6 PUSH2 0x118A JUMP JUMPDEST DUP4 ADD DUP3 PUSH2 0x126A JUMP JUMPDEST POP POP JUMPDEST POP POP POP JUMP JUMPDEST PUSH0 DUP3 DUP3 SHR SWAP1 POP SWAP3 SWAP2 POP POP JUMP JUMPDEST PUSH0 PUSH2 0x12ED PUSH0 NOT DUP5 PUSH1 0x8 MUL PUSH2 0x12D2 JUMP JUMPDEST NOT DUP1 DUP4 AND SWAP2 POP POP SWAP3 SWAP2 POP POP JUMP JUMPDEST PUSH0 PUSH2 0x1305 DUP4 DUP4 PUSH2 0x12DE JUMP JUMPDEST SWAP2 POP DUP3 PUSH1 0x2 MUL DUP3 OR SWAP1 POP SWAP3 SWAP2 POP POP JUMP JUMPDEST PUSH2 0x131E DUP3 PUSH2 0xC35 JUMP JUMPDEST PUSH8 0xFFFFFFFFFFFFFFFF DUP2 GT ISZERO PUSH2 0x1337 JUMPI PUSH2 0x1336 PUSH2 0xD58 JUMP JUMPDEST JUMPDEST PUSH2 0x1341 DUP3 SLOAD PUSH2 0x1101 JUMP JUMPDEST PUSH2 0x134C DUP3 DUP3 DUP6 PUSH2 0x128C JUMP JUMPDEST PUSH0 PUSH1 0x20 SWAP1 POP PUSH1 0x1F DUP4 GT PUSH1 0x1 DUP2 EQ PUSH2 0x137D JUMPI PUSH0 DUP5 ISZERO PUSH2 0x136B JUMPI DUP3 DUP8 ADD MLOAD SWAP1 POP JUMPDEST PUSH2 0x1375 DUP6 DUP3 PUSH2 0x12FA JUMP JUMPDEST DUP7 SSTORE POP PUSH2 0x13DC JUMP JUMPDEST PUSH1 0x1F NOT DUP5 AND PUSH2 0x138B DUP7 PUSH2 0x1178 JUMP JUMPDEST PUSH0 JUMPDEST DUP3 DUP2 LT ISZERO PUSH2 0x13B2 JUMPI DUP5 DUP10 ADD MLOAD DUP3 SSTORE PUSH1 0x1 DUP3 ADD SWAP2 POP PUSH1 0x20 DUP6 ADD SWAP5 POP PUSH1 0x20 DUP2 ADD SWAP1 POP PUSH2 0x138D JUMP JUMPDEST DUP7 DUP4 LT ISZERO PUSH2 0x13CF JUMPI DUP5 DUP10 ADD MLOAD PUSH2 0x13CB PUSH1 0x1F DUP10 AND DUP3 PUSH2 0x12DE JUMP JUMPDEST DUP4 SSTORE POP JUMPDEST PUSH1 0x1 PUSH1 0x2 DUP9 MUL ADD DUP9 SSTORE POP POP POP JUMPDEST POP POP POP POP POP POP JUMP JUMPDEST PUSH32 0x546865206D696E696D756D20636F6E747269627574696F6E206973206E6F7420 PUSH0 DUP3 ADD MSTORE PUSH32 0x6D65740000000000000000000000000000000000000000000000000000000000 PUSH1 0x20 DUP3 ADD MSTORE POP JUMP JUMPDEST PUSH0 PUSH2 0x143E PUSH1 0x23 DUP4 PUSH2 0xC3F JUMP JUMPDEST SWAP2 POP PUSH2 0x1449 DUP3 PUSH2 0x13E4 JUMP JUMPDEST PUSH1 0x40 DUP3 ADD SWAP1 POP SWAP2 SWAP1 POP JUMP JUMPDEST PUSH0 PUSH1 0x20 DUP3 ADD SWAP1 POP DUP2 DUP2 SUB PUSH0 DUP4 ADD MSTORE PUSH2 0x146B DUP2 PUSH2 0x1432 JUMP JUMPDEST SWAP1 POP SWAP2 SWAP1 POP JUMP JUMPDEST PUSH32 0x4E6F7420616E20617070726F7665720000000000000000000000000000000000 PUSH0 DUP3 ADD MSTORE POP JUMP JUMPDEST PUSH0 PUSH2 0x14A6 PUSH1 0xF DUP4 PUSH2 0xC3F JUMP JUMPDEST SWAP2 POP PUSH2 0x14B1 DUP3 PUSH2 0x1472 JUMP JUMPDEST PUSH1 0x20 DUP3 ADD SWAP1 POP SWAP2 SWAP1 POP JUMP JUMPDEST PUSH0 PUSH1 0x20 DUP3 ADD SWAP1 POP DUP2 DUP2 SUB PUSH0 DUP4 ADD MSTORE PUSH2 0x14D3 DUP2 PUSH2 0x149A JUMP JUMPDEST SWAP1 POP SWAP2 SWAP1 POP JUMP JUMPDEST PUSH32 0x416C726561647920617070726F76656400000000000000000000000000000000 PUSH0 DUP3 ADD MSTORE POP JUMP JUMPDEST PUSH0 PUSH2 0x150E PUSH1 0x10 DUP4 PUSH2 0xC3F JUMP JUMPDEST SWAP2 POP PUSH2 0x1519 DUP3 PUSH2 0x14DA JUMP JUMPDEST PUSH1 0x20 DUP3 ADD SWAP1 POP SWAP2 SWAP1 POP JUMP JUMPDEST PUSH0 PUSH1 0x20 DUP3 ADD SWAP1 POP DUP2 DUP2 SUB PUSH0 DUP4 ADD MSTORE PUSH2 0x153B DUP2 PUSH2 0x1502 JUMP JUMPDEST SWAP1 POP SWAP2 SWAP1 POP JUMP INVALID LOG2 PUSH5 0x6970667358 0x22 SLT KECCAK256 MOD RETURNDATASIZE 0xF9 MSIZE STOP LOG3 PC SWAP14 0xE0 PC CALL PUSH23 0x60A10F476A78BB4BD9C4BA1238C197426274E77364736F PUSH13 0x63430008140033000000000000 "},"gasEstimates":{"creation":{"codeDepositCost":"1099200","executionCost":"infinite","totalCost":"infinite"},"external":{"approveRequest(uint256)":"infinite","approvers(address)":"2856","approversCount()":"2536","contribute()":"53275","createRequest(string,uint256,address)":"infinite","finalizeRequest(uint256)":"infinite","getRequestsCounts()":"2498","getSummary()":"infinite","manager()":"2575","minimumContribution()":"2447","numRequests()":"2469","requests(uint256)":"infinite"}},"methodIdentifiers":{"approveRequest(uint256)":"d7d1bbdb","approvers(address)":"0a144391","approversCount()":"82fde093","contribute()":"d7bb99ba","createRequest(string,uint256,address)":"8a9cfd55","finalizeRequest(uint256)":"03441006","getRequestsCounts()":"bc24811f","getSummary()":"4051ddac","manager()":"481c6a75","minimumContribution()":"937e09b1","numRequests()":"9fb42b1f","requests(uint256)":"81d12c58"}},"storageLayout":{"storage":[{"astId":72,"contract":"Campaign.sol:Campaign","label":"requests","offset":0,"slot":"0","type":"t_mapping(t_uint256,t_struct(Request)55_storage)"},{"astId":74,"contract":"Campaign.sol:Campaign","label":"manager","offset":0,"slot":"1","type":"t_address"},{"astId":76,"contract":"Campaign.sol:Campaign","label":"numRequests","offset":0,"slot":"2","type":"t_uint256"},{"astId":78,"contract":"Campaign.sol:Campaign","label":"minimumContribution","offset":0,"slot":"3","type":"t_uint256"},{"astId":80,"contract":"Campaign.sol:Campaign","label":"approversCount","offset":0,"slot":"4","type":"t_uint256"},{"astId":84,"contract":"Campaign.sol:Campaign","label":"approvers","offset":0,"slot":"5","type":"t_mapping(t_address,t_bool)"}],"types":{"t_address":{"encoding":"inplace","label":"address","numberOfBytes":"20"},"t_address_payable":{"encoding":"inplace","label":"address payable","numberOfBytes":"20"},"t_bool":{"encoding":"inplace","label":"bool","numberOfBytes":"1"},"t_mapping(t_address,t_bool)":{"encoding":"mapping","key":"t_address","label":"mapping(address => bool)","numberOfBytes":"32","value":"t_bool"},"t_mapping(t_uint256,t_struct(Request)55_storage)":{"encoding":"mapping","key":"t_uint256","label":"mapping(uint256 => struct Campaign.Request)","numberOfBytes":"32","value":"t_struct(Request)55_storage"},"t_string_storage":{"encoding":"bytes","label":"string","numberOfBytes":"32"},"t_struct(Request)55_storage":{"encoding":"inplace","label":"struct Campaign.Request","members":[{"astId":42,"contract":"Campaign.sol:Campaign","label":"description","offset":0,"slot":"0","type":"t_string_storage"},{"astId":44,"contract":"Campaign.sol:Campaign","label":"value","offset":0,"slot":"1","type":"t_uint256"},{"astId":46,"contract":"Campaign.sol:Campaign","label":"recipient","offset":0,"slot":"2","type":"t_address_payable"},{"astId":48,"contract":"Campaign.sol:Campaign","label":"complete","offset":20,"slot":"2","type":"t_bool"},{"astId":50,"contract":"Campaign.sol:Campaign","label":"approvalCount","offset":0,"slot":"3","type":"t_uint256"},{"astId":54,"contract":"Campaign.sol:Campaign","label":"approvals","offset":0,"slot":"4","type":"t_mapping(t_address,t_bool)"}],"numberOfBytes":"160"},"t_uint256":{"encoding":"inplace","label":"uint256","numberOfBytes":"32"}}},"userdoc":{"kind":"user","methods":{},"version":1}}