{"abi":[{"inputs":[{"internalType":"uint256","name":"minimum","type":"uint256"},{"internalType":"address","name":"creator","type":"address"}],"stateMutability":"nonpayable","type":"constructor"},{"inputs":[{"internalType":"uint256","name":"index","type":"uint256"}],"name":"approveRequest","outputs":[],"stateMutability":"nonpayable","type":"function"},{"inputs":[{"internalType":"address","name":"","type":"address"}],"name":"approvers","outputs":[{"internalType":"bool","name":"","type":"bool"}],"stateMutability":"view","type":"function"},{"inputs":[],"name":"approversCount","outputs":[{"internalType":"uint256","name":"","type":"uint256"}],"stateMutability":"view","type":"function"},{"inputs":[],"name":"contribute","outputs":[],"stateMutability":"payable","type":"function"},{"inputs":[{"internalType":"string","name":"description","type":"string"},{"internalType":"uint256","name":"value","type":"uint256"},{"internalType":"address payable","name":"recipient","type":"address"}],"name":"createRequest","outputs":[],"stateMutability":"nonpayable","type":"function"},{"inputs":[{"internalType":"uint256","name":"index","type":"uint256"}],"name":"finalizeRequest","outputs":[],"stateMutability":"nonpayable","type":"function"},{"inputs":[],"name":"manager","outputs":[{"internalType":"address","name":"","type":"address"}],"stateMutability":"view","type":"function"},{"inputs":[],"name":"minimumContribution","outputs":[{"internalType":"uint256","name":"","type":"uint256"}],"stateMutability":"view","type":"function"},{"inputs":[],"name":"numRequests","outputs":[{"internalType":"uint256","name":"","type":"uint256"}],"stateMutability":"view","type":"function"},{"inputs":[{"internalType":"uint256","name":"","type":"uint256"}],"name":"requests","outputs":[{"internalType":"string","name":"description","type":"string"},{"internalType":"uint256","name":"value","type":"uint256"},{"internalType":"address payable","name":"recipient","type":"address"},{"internalType":"bool","name":"complete","type":"bool"},{"internalType":"uint256","name":"approvalCount","type":"uint256"}],"stateMutability":"view","type":"function"}],"devdoc":{"kind":"dev","methods":{},"version":1},"evm":{"assembly":"    /* \"Campaign.sol\":454:3618  contract Campaign {... */\n  mstore(0x40, 0x80)\n    /* \"Campaign.sol\":1217:1336  constructor(uint minimum, address creator) {... */\n  callvalue\n  dup1\n  iszero\n  tag_1\n  jumpi\n  0x00\n  dup1\n  revert\ntag_1:\n  pop\n  mload(0x40)\n  sub(codesize, bytecodeSize)\n  dup1\n  bytecodeSize\n  dup4\n  codecopy\n  dup2\n  dup2\n  add\n  0x40\n  mstore\n  dup2\n  add\n  swap1\n  tag_2\n  swap2\n  swap1\n  tag_3\n  jump\t// in\ntag_2:\n    /* \"Campaign.sol\":1281:1288  creator */\n  dup1\n    /* \"Campaign.sol\":1271:1278  manager */\n  0x01\n  0x00\n    /* \"Campaign.sol\":1271:1288  manager = creator */\n  0x0100\n  exp\n  dup2\n  sload\n  dup2\n  0xffffffffffffffffffffffffffffffffffffffff\n  mul\n  not\n  and\n  swap1\n  dup4\n  0xffffffffffffffffffffffffffffffffffffffff\n  and\n  mul\n  or\n  swap1\n  sstore\n  pop\n    /* \"Campaign.sol\":1321:1328  minimum */\n  dup2\n    /* \"Campaign.sol\":1299:1318  minimumContribution */\n  0x03\n    /* \"Campaign.sol\":1299:1328  minimumContribution = minimum */\n  dup2\n  swap1\n  sstore\n  pop\n    /* \"Campaign.sol\":1217:1336  constructor(uint minimum, address creator) {... */\n  pop\n  pop\n    /* \"Campaign.sol\":454:3618  contract Campaign {... */\n  jump(tag_6)\n    /* \"#utility.yul\":88:205   */\ntag_8:\n    /* \"#utility.yul\":197:198   */\n  0x00\n    /* \"#utility.yul\":194:195   */\n  dup1\n    /* \"#utility.yul\":187:199   */\n  revert\n    /* \"#utility.yul\":334:411   */\ntag_10:\n    /* \"#utility.yul\":371:378   */\n  0x00\n    /* \"#utility.yul\":400:405   */\n  dup2\n    /* \"#utility.yul\":389:405   */\n  swap1\n  pop\n    /* \"#utility.yul\":334:411   */\n  swap2\n  swap1\n  pop\n  jump\t// out\n    /* \"#utility.yul\":417:539   */\ntag_11:\n    /* \"#utility.yul\":490:514   */\n  tag_23\n    /* \"#utility.yul\":508:513   */\n  dup2\n    /* \"#utility.yul\":490:514   */\n  tag_10\n  jump\t// in\ntag_23:\n    /* \"#utility.yul\":483:488   */\n  dup2\n    /* \"#utility.yul\":480:515   */\n  eq\n    /* \"#utility.yul\":470:533   */\n  tag_24\n  jumpi\n    /* \"#utility.yul\":529:530   */\n  0x00\n    /* \"#utility.yul\":526:527   */\n  dup1\n    /* \"#utility.yul\":519:531   */\n  revert\n    /* \"#utility.yul\":470:533   */\ntag_24:\n    /* \"#utility.yul\":417:539   */\n  pop\n  jump\t// out\n    /* \"#utility.yul\":545:688   */\ntag_12:\n    /* \"#utility.yul\":602:607   */\n  0x00\n    /* \"#utility.yul\":633:639   */\n  dup2\n    /* \"#utility.yul\":627:640   */\n  mload\n    /* \"#utility.yul\":618:640   */\n  swap1\n  pop\n    /* \"#utility.yul\":649:682   */\n  tag_26\n    /* \"#utility.yul\":676:681   */\n  dup2\n    /* \"#utility.yul\":649:682   */\n  tag_11\n  jump\t// in\ntag_26:\n    /* \"#utility.yul\":545:688   */\n  swap3\n  swap2\n  pop\n  pop\n  jump\t// out\n    /* \"#utility.yul\":694:820   */\ntag_13:\n    /* \"#utility.yul\":731:738   */\n  0x00\n    /* \"#utility.yul\":771:813   */\n  0xffffffffffffffffffffffffffffffffffffffff\n    /* \"#utility.yul\":764:769   */\n  dup3\n    /* \"#utility.yul\":760:814   */\n  and\n    /* \"#utility.yul\":749:814   */\n  swap1\n  pop\n    /* \"#utility.yul\":694:820   */\n  swap2\n  swap1\n  pop\n  jump\t// out\n    /* \"#utility.yul\":826:922   */\ntag_14:\n    /* \"#utility.yul\":863:870   */\n  0x00\n    /* \"#utility.yul\":892:916   */\n  tag_29\n    /* \"#utility.yul\":910:915   */\n  dup3\n    /* \"#utility.yul\":892:916   */\n  tag_13\n  jump\t// in\ntag_29:\n    /* \"#utility.yul\":881:916   */\n  swap1\n  pop\n    /* \"#utility.yul\":826:922   */\n  swap2\n  swap1\n  pop\n  jump\t// out\n    /* \"#utility.yul\":928:1050   */\ntag_15:\n    /* \"#utility.yul\":1001:1025   */\n  tag_31\n    /* \"#utility.yul\":1019:1024   */\n  dup2\n    /* \"#utility.yul\":1001:1025   */\n  tag_14\n  jump\t// in\ntag_31:\n    /* \"#utility.yul\":994:999   */\n  dup2\n    /* \"#utility.yul\":991:1026   */\n  eq\n    /* \"#utility.yul\":981:1044   */\n  tag_32\n  jumpi\n    /* \"#utility.yul\":1040:1041   */\n  0x00\n    /* \"#utility.yul\":1037:1038   */\n  dup1\n    /* \"#utility.yul\":1030:1042   */\n  revert\n    /* \"#utility.yul\":981:1044   */\ntag_32:\n    /* \"#utility.yul\":928:1050   */\n  pop\n  jump\t// out\n    /* \"#utility.yul\":1056:1199   */\ntag_16:\n    /* \"#utility.yul\":1113:1118   */\n  0x00\n    /* \"#utility.yul\":1144:1150   */\n  dup2\n    /* \"#utility.yul\":1138:1151   */\n  mload\n    /* \"#utility.yul\":1129:1151   */\n  swap1\n  pop\n    /* \"#utility.yul\":1160:1193   */\n  tag_34\n    /* \"#utility.yul\":1187:1192   */\n  dup2\n    /* \"#utility.yul\":1160:1193   */\n  tag_15\n  jump\t// in\ntag_34:\n    /* \"#utility.yul\":1056:1199   */\n  swap3\n  swap2\n  pop\n  pop\n  jump\t// out\n    /* \"#utility.yul\":1205:1712   */\ntag_3:\n    /* \"#utility.yul\":1284:1290   */\n  0x00\n    /* \"#utility.yul\":1292:1298   */\n  dup1\n    /* \"#utility.yul\":1341:1343   */\n  0x40\n    /* \"#utility.yul\":1329:1338   */\n  dup4\n    /* \"#utility.yul\":1320:1327   */\n  dup6\n    /* \"#utility.yul\":1316:1339   */\n  sub\n    /* \"#utility.yul\":1312:1344   */\n  slt\n    /* \"#utility.yul\":1309:1428   */\n  iszero\n  tag_36\n  jumpi\n    /* \"#utility.yul\":1347:1426   */\n  tag_37\n  tag_8\n  jump\t// in\ntag_37:\n    /* \"#utility.yul\":1309:1428   */\ntag_36:\n    /* \"#utility.yul\":1467:1468   */\n  0x00\n    /* \"#utility.yul\":1492:1556   */\n  tag_38\n    /* \"#utility.yul\":1548:1555   */\n  dup6\n    /* \"#utility.yul\":1539:1545   */\n  dup3\n    /* \"#utility.yul\":1528:1537   */\n  dup7\n    /* \"#utility.yul\":1524:1546   */\n  add\n    /* \"#utility.yul\":1492:1556   */\n  tag_12\n  jump\t// in\ntag_38:\n    /* \"#utility.yul\":1482:1556   */\n  swap3\n  pop\n    /* \"#utility.yul\":1438:1566   */\n  pop\n    /* \"#utility.yul\":1605:1607   */\n  0x20\n    /* \"#utility.yul\":1631:1695   */\n  tag_39\n    /* \"#utility.yul\":1687:1694   */\n  dup6\n    /* \"#utility.yul\":1678:1684   */\n  dup3\n    /* \"#utility.yul\":1667:1676   */\n  dup7\n    /* \"#utility.yul\":1663:1685   */\n  add\n    /* \"#utility.yul\":1631:1695   */\n  tag_16\n  jump\t// in\ntag_39:\n    /* \"#utility.yul\":1621:1695   */\n  swap2\n  pop\n    /* \"#utility.yul\":1576:1705   */\n  pop\n    /* \"#utility.yul\":1205:1712   */\n  swap3\n  pop\n  swap3\n  swap1\n  pop\n  jump\t// out\n    /* \"Campaign.sol\":454:3618  contract Campaign {... */\ntag_6:\n  dataSize(sub_0)\n  dup1\n  dataOffset(sub_0)\n  0x00\n  codecopy\n  0x00\n  return\nstop\n\nsub_0: assembly {\n        /* \"Campaign.sol\":454:3618  contract Campaign {... */\n      mstore(0x40, 0x80)\n      jumpi(tag_1, lt(calldatasize, 0x04))\n      shr(0xe0, calldataload(0x00))\n      dup1\n      0x8a9cfd55\n      gt\n      tag_12\n      jumpi\n      dup1\n      0x8a9cfd55\n      eq\n      tag_7\n      jumpi\n      dup1\n      0x937e09b1\n      eq\n      tag_8\n      jumpi\n      dup1\n      0x9fb42b1f\n      eq\n      tag_9\n      jumpi\n      dup1\n      0xd7bb99ba\n      eq\n      tag_10\n      jumpi\n      dup1\n      0xd7d1bbdb\n      eq\n      tag_11\n      jumpi\n      jump(tag_1)\n    tag_12:\n      dup1\n      0x03441006\n      eq\n      tag_2\n      jumpi\n      dup1\n      0x0a144391\n      eq\n      tag_3\n      jumpi\n      dup1\n      0x481c6a75\n      eq\n      tag_4\n      jumpi\n      dup1\n      0x81d12c58\n      eq\n      tag_5\n      jumpi\n      dup1\n      0x82fde093\n      eq\n      tag_6\n      jumpi\n    tag_1:\n      0x00\n      dup1\n      revert\n        /* \"Campaign.sol\":2917:3613  function finalizeRequest(uint index) public restricted... */\n    tag_2:\n      callvalue\n      dup1\n      iszero\n      tag_13\n      jumpi\n      0x00\n      dup1\n      revert\n    tag_13:\n      pop\n      tag_14\n      0x04\n      dup1\n      calldatasize\n      sub\n      dup2\n      add\n      swap1\n      tag_15\n      swap2\n      swap1\n      tag_16\n      jump\t// in\n    tag_15:\n      tag_17\n      jump\t// in\n    tag_14:\n      stop\n        /* \"Campaign.sol\":1163:1204  mapping(address => bool) public approvers */\n    tag_3:\n      callvalue\n      dup1\n      iszero\n      tag_18\n      jumpi\n      0x00\n      dup1\n      revert\n    tag_18:\n      pop\n      tag_19\n      0x04\n      dup1\n      calldatasize\n      sub\n      dup2\n      add\n      swap1\n      tag_20\n      swap2\n      swap1\n      tag_21\n      jump\t// in\n    tag_20:\n      tag_22\n      jump\t// in\n    tag_19:\n      mload(0x40)\n      tag_23\n      swap2\n      swap1\n      tag_24\n      jump\t// in\n    tag_23:\n      mload(0x40)\n      dup1\n      swap2\n      sub\n      swap1\n      return\n        /* \"Campaign.sol\":943:965  address public manager */\n    tag_4:\n      callvalue\n      dup1\n      iszero\n      tag_25\n      jumpi\n      0x00\n      dup1\n      revert\n    tag_25:\n      pop\n      tag_26\n      tag_27\n      jump\t// in\n    tag_26:\n      mload(0x40)\n      tag_28\n      swap2\n      swap1\n      tag_29\n      jump\t// in\n    tag_28:\n      mload(0x40)\n      dup1\n      swap2\n      sub\n      swap1\n      return\n        /* \"Campaign.sol\":896:936  mapping(uint => Request) public requests */\n    tag_5:\n      callvalue\n      dup1\n      iszero\n      tag_30\n      jumpi\n      0x00\n      dup1\n      revert\n    tag_30:\n      pop\n      tag_31\n      0x04\n      dup1\n      calldatasize\n      sub\n      dup2\n      add\n      swap1\n      tag_32\n      swap2\n      swap1\n      tag_16\n      jump\t// in\n    tag_32:\n      tag_33\n      jump\t// in\n    tag_31:\n      mload(0x40)\n      tag_34\n      swap6\n      swap5\n      swap4\n      swap3\n      swap2\n      swap1\n      tag_35\n      jump\t// in\n    tag_34:\n      mload(0x40)\n      dup1\n      swap2\n      sub\n      swap1\n      return\n        /* \"Campaign.sol\":1108:1134  uint public approversCount */\n    tag_6:\n      callvalue\n      dup1\n      iszero\n      tag_36\n      jumpi\n      0x00\n      dup1\n      revert\n    tag_36:\n      pop\n      tag_37\n      tag_38\n      jump\t// in\n    tag_37:\n      mload(0x40)\n      tag_39\n      swap2\n      swap1\n      tag_40\n      jump\t// in\n    tag_39:\n      mload(0x40)\n      dup1\n      swap2\n      sub\n      swap1\n      return\n        /* \"Campaign.sol\":1725:2138  function createRequest(... */\n    tag_7:\n      callvalue\n      dup1\n      iszero\n      tag_41\n      jumpi\n      0x00\n      dup1\n      revert\n    tag_41:\n      pop\n      tag_42\n      0x04\n      dup1\n      calldatasize\n      sub\n      dup2\n      add\n      swap1\n      tag_43\n      swap2\n      swap1\n      tag_44\n      jump\t// in\n    tag_43:\n      tag_45\n      jump\t// in\n    tag_42:\n      stop\n        /* \"Campaign.sol\":1027:1058  uint public minimumContribution */\n    tag_8:\n      callvalue\n      dup1\n      iszero\n      tag_46\n      jumpi\n      0x00\n      dup1\n      revert\n    tag_46:\n      pop\n      tag_47\n      tag_48\n      jump\t// in\n    tag_47:\n      mload(0x40)\n      tag_49\n      swap2\n      swap1\n      tag_40\n      jump\t// in\n    tag_49:\n      mload(0x40)\n      dup1\n      swap2\n      sub\n      swap1\n      return\n        /* \"Campaign.sol\":997:1020  uint public numRequests */\n    tag_9:\n      callvalue\n      dup1\n      iszero\n      tag_50\n      jumpi\n      0x00\n      dup1\n      revert\n    tag_50:\n      pop\n      tag_51\n      tag_52\n      jump\t// in\n    tag_51:\n      mload(0x40)\n      tag_53\n      swap2\n      swap1\n      tag_40\n      jump\t// in\n    tag_53:\n      mload(0x40)\n      dup1\n      swap2\n      sub\n      swap1\n      return\n        /* \"Campaign.sol\":1410:1716  function contribute() public payable {... */\n    tag_10:\n      tag_54\n      tag_55\n      jump\t// in\n    tag_54:\n      stop\n        /* \"Campaign.sol\":2146:2909  function approveRequest(uint index) public restricted... */\n    tag_11:\n      callvalue\n      dup1\n      iszero\n      tag_56\n      jumpi\n      0x00\n      dup1\n      revert\n    tag_56:\n      pop\n      tag_57\n      0x04\n      dup1\n      calldatasize\n      sub\n      dup2\n      add\n      swap1\n      tag_58\n      swap2\n      swap1\n      tag_16\n      jump\t// in\n    tag_58:\n      tag_59\n      jump\t// in\n    tag_57:\n      stop\n        /* \"Campaign.sol\":2917:3613  function finalizeRequest(uint index) public restricted... */\n    tag_17:\n        /* \"Campaign.sol\":818:825  manager */\n      0x01\n      0x00\n      swap1\n      sload\n      swap1\n      0x0100\n      exp\n      swap1\n      div\n      0xffffffffffffffffffffffffffffffffffffffff\n      and\n        /* \"Campaign.sol\":804:825  msg.sender == manager */\n      0xffffffffffffffffffffffffffffffffffffffff\n      and\n        /* \"Campaign.sol\":804:814  msg.sender */\n      caller\n        /* \"Campaign.sol\":804:825  msg.sender == manager */\n      0xffffffffffffffffffffffffffffffffffffffff\n      and\n      eq\n        /* \"Campaign.sol\":782:868  require(... */\n      tag_61\n      jumpi\n      mload(0x40)\n      0x08c379a000000000000000000000000000000000000000000000000000000000\n      dup2\n      mstore\n      0x04\n      add\n      tag_62\n      swap1\n      tag_63\n      jump\t// in\n    tag_62:\n      mload(0x40)\n      dup1\n      swap2\n      sub\n      swap1\n      revert\n    tag_61:\n        /* \"Campaign.sol\":3085:3108  Request storage request */\n      0x00\n        /* \"Campaign.sol\":3111:3119  requests */\n      dup1\n        /* \"Campaign.sol\":3111:3126  requests[index] */\n      0x00\n        /* \"Campaign.sol\":3120:3125  index */\n      dup4\n        /* \"Campaign.sol\":3111:3126  requests[index] */\n      dup2\n      mstore\n      0x20\n      add\n      swap1\n      dup2\n      mstore\n      0x20\n      add\n      0x00\n      keccak256\n        /* \"Campaign.sol\":3085:3126  Request storage request = requests[index] */\n      swap1\n      pop\n        /* \"Campaign.sol\":3286:3287  2 */\n      0x02\n        /* \"Campaign.sol\":3269:3283  approversCount */\n      sload(0x04)\n        /* \"Campaign.sol\":3269:3287  approversCount / 2 */\n      tag_65\n      swap2\n      swap1\n      tag_66\n      jump\t// in\n    tag_65:\n        /* \"Campaign.sol\":3244:3251  request */\n      dup2\n        /* \"Campaign.sol\":3244:3265  request.approvalCount */\n      0x03\n      add\n      sload\n        /* \"Campaign.sol\":3244:3288  request.approvalCount > (approversCount / 2) */\n      gt\n        /* \"Campaign.sol\":3222:3336  require(... */\n      tag_67\n      jumpi\n      mload(0x40)\n      0x08c379a000000000000000000000000000000000000000000000000000000000\n      dup2\n      mstore\n      0x04\n      add\n      tag_68\n      swap1\n      tag_69\n      jump\t// in\n    tag_68:\n      mload(0x40)\n      dup1\n      swap2\n      sub\n      swap1\n      revert\n    tag_67:\n        /* \"Campaign.sol\":3439:3446  request */\n      dup1\n        /* \"Campaign.sol\":3439:3455  request.complete */\n      0x02\n      add\n      0x14\n      swap1\n      sload\n      swap1\n      0x0100\n      exp\n      swap1\n      div\n      0xff\n      and\n        /* \"Campaign.sol\":3438:3455  !request.complete */\n      iszero\n        /* \"Campaign.sol\":3416:3508  require(... */\n      tag_70\n      jumpi\n      mload(0x40)\n      0x08c379a000000000000000000000000000000000000000000000000000000000\n      dup2\n      mstore\n      0x04\n      add\n      tag_71\n      swap1\n      tag_72\n      jump\t// in\n    tag_71:\n      mload(0x40)\n      dup1\n      swap2\n      sub\n      swap1\n      revert\n    tag_70:\n        /* \"Campaign.sol\":3530:3537  request */\n      dup1\n        /* \"Campaign.sol\":3530:3547  request.recipient */\n      0x02\n      add\n      0x00\n      swap1\n      sload\n      swap1\n      0x0100\n      exp\n      swap1\n      div\n      0xffffffffffffffffffffffffffffffffffffffff\n      and\n        /* \"Campaign.sol\":3530:3556  request.recipient.transfer */\n      0xffffffffffffffffffffffffffffffffffffffff\n      and\n        /* \"Campaign.sol\":3530:3571  request.recipient.transfer(request.value) */\n      0x08fc\n        /* \"Campaign.sol\":3557:3564  request */\n      dup3\n        /* \"Campaign.sol\":3557:3570  request.value */\n      0x01\n      add\n      sload\n        /* \"Campaign.sol\":3530:3571  request.recipient.transfer(request.value) */\n      swap1\n      dup2\n      iszero\n      mul\n      swap1\n      mload(0x40)\n      0x00\n      mload(0x40)\n      dup1\n      dup4\n      sub\n      dup2\n      dup6\n      dup9\n      dup9\n      call\n      swap4\n      pop\n      pop\n      pop\n      pop\n      iszero\n      dup1\n      iszero\n      tag_74\n      jumpi\n      returndatasize\n      0x00\n      dup1\n      returndatacopy\n      revert(0x00, returndatasize)\n    tag_74:\n      pop\n        /* \"Campaign.sol\":3601:3605  true */\n      0x01\n        /* \"Campaign.sol\":3582:3589  request */\n      dup2\n        /* \"Campaign.sol\":3582:3598  request.complete */\n      0x02\n      add\n      0x14\n        /* \"Campaign.sol\":3582:3605  request.complete = true */\n      0x0100\n      exp\n      dup2\n      sload\n      dup2\n      0xff\n      mul\n      not\n      and\n      swap1\n      dup4\n      iszero\n      iszero\n      mul\n      or\n      swap1\n      sstore\n      pop\n        /* \"Campaign.sol\":2977:3613  {... */\n      pop\n        /* \"Campaign.sol\":2917:3613  function finalizeRequest(uint index) public restricted... */\n      pop\n      jump\t// out\n        /* \"Campaign.sol\":1163:1204  mapping(address => bool) public approvers */\n    tag_22:\n      mstore(0x20, 0x05)\n      dup1\n      0x00\n      mstore\n      keccak256(0x00, 0x40)\n      0x00\n      swap2\n      pop\n      sload\n      swap1\n      0x0100\n      exp\n      swap1\n      div\n      0xff\n      and\n      dup2\n      jump\t// out\n        /* \"Campaign.sol\":943:965  address public manager */\n    tag_27:\n      0x01\n      0x00\n      swap1\n      sload\n      swap1\n      0x0100\n      exp\n      swap1\n      div\n      0xffffffffffffffffffffffffffffffffffffffff\n      and\n      dup2\n      jump\t// out\n        /* \"Campaign.sol\":896:936  mapping(uint => Request) public requests */\n    tag_33:\n      mstore(0x20, 0x00)\n      dup1\n      0x00\n      mstore\n      keccak256(0x00, 0x40)\n      0x00\n      swap2\n      pop\n      swap1\n      pop\n      dup1\n      0x00\n      add\n      dup1\n      sload\n      tag_75\n      swap1\n      tag_76\n      jump\t// in\n    tag_75:\n      dup1\n      0x1f\n      add\n      0x20\n      dup1\n      swap2\n      div\n      mul\n      0x20\n      add\n      mload(0x40)\n      swap1\n      dup2\n      add\n      0x40\n      mstore\n      dup1\n      swap3\n      swap2\n      swap1\n      dup2\n      dup2\n      mstore\n      0x20\n      add\n      dup3\n      dup1\n      sload\n      tag_77\n      swap1\n      tag_76\n      jump\t// in\n    tag_77:\n      dup1\n      iszero\n      tag_78\n      jumpi\n      dup1\n      0x1f\n      lt\n      tag_79\n      jumpi\n      0x0100\n      dup1\n      dup4\n      sload\n      div\n      mul\n      dup4\n      mstore\n      swap2\n      0x20\n      add\n      swap2\n      jump(tag_78)\n    tag_79:\n      dup3\n      add\n      swap2\n      swap1\n      0x00\n      mstore\n      keccak256(0x00, 0x20)\n      swap1\n    tag_80:\n      dup2\n      sload\n      dup2\n      mstore\n      swap1\n      0x01\n      add\n      swap1\n      0x20\n      add\n      dup1\n      dup4\n      gt\n      tag_80\n      jumpi\n      dup3\n      swap1\n      sub\n      0x1f\n      and\n      dup3\n      add\n      swap2\n    tag_78:\n      pop\n      pop\n      pop\n      pop\n      pop\n      swap1\n      dup1\n      0x01\n      add\n      sload\n      swap1\n      dup1\n      0x02\n      add\n      0x00\n      swap1\n      sload\n      swap1\n      0x0100\n      exp\n      swap1\n      div\n      0xffffffffffffffffffffffffffffffffffffffff\n      and\n      swap1\n      dup1\n      0x02\n      add\n      0x14\n      swap1\n      sload\n      swap1\n      0x0100\n      exp\n      swap1\n      div\n      0xff\n      and\n      swap1\n      dup1\n      0x03\n      add\n      sload\n      swap1\n      pop\n      dup6\n      jump\t// out\n        /* \"Campaign.sol\":1108:1134  uint public approversCount */\n    tag_38:\n      sload(0x04)\n      dup2\n      jump\t// out\n        /* \"Campaign.sol\":1725:2138  function createRequest(... */\n    tag_45:\n        /* \"Campaign.sol\":818:825  manager */\n      0x01\n      0x00\n      swap1\n      sload\n      swap1\n      0x0100\n      exp\n      swap1\n      div\n      0xffffffffffffffffffffffffffffffffffffffff\n      and\n        /* \"Campaign.sol\":804:825  msg.sender == manager */\n      0xffffffffffffffffffffffffffffffffffffffff\n      and\n        /* \"Campaign.sol\":804:814  msg.sender */\n      caller\n        /* \"Campaign.sol\":804:825  msg.sender == manager */\n      0xffffffffffffffffffffffffffffffffffffffff\n      and\n      eq\n        /* \"Campaign.sol\":782:868  require(... */\n      tag_82\n      jumpi\n      mload(0x40)\n      0x08c379a000000000000000000000000000000000000000000000000000000000\n      dup2\n      mstore\n      0x04\n      add\n      tag_83\n      swap1\n      tag_63\n      jump\t// in\n    tag_83:\n      mload(0x40)\n      dup1\n      swap2\n      sub\n      swap1\n      revert\n    tag_82:\n        /* \"Campaign.sol\":1879:1905  Request storage newRequest */\n      0x00\n        /* \"Campaign.sol\":1908:1916  requests */\n      dup1\n        /* \"Campaign.sol\":1908:1931  requests[numRequests++] */\n      0x00\n        /* \"Campaign.sol\":1917:1928  numRequests */\n      0x02\n      0x00\n        /* \"Campaign.sol\":1917:1930  numRequests++ */\n      dup2\n      sload\n      dup1\n      swap3\n      swap2\n      swap1\n      tag_85\n      swap1\n      tag_86\n      jump\t// in\n    tag_85:\n      swap2\n      swap1\n      pop\n      sstore\n        /* \"Campaign.sol\":1908:1931  requests[numRequests++] */\n      dup2\n      mstore\n      0x20\n      add\n      swap1\n      dup2\n      mstore\n      0x20\n      add\n      0x00\n      keccak256\n        /* \"Campaign.sol\":1879:1931  Request storage newRequest = requests[numRequests++] */\n      swap1\n      pop\n        /* \"Campaign.sol\":1968:1979  description */\n      dup4\n        /* \"Campaign.sol\":1943:1953  newRequest */\n      dup2\n        /* \"Campaign.sol\":1943:1965  newRequest.description */\n      0x00\n      add\n        /* \"Campaign.sol\":1943:1979  newRequest.description = description */\n      swap1\n      dup2\n      tag_87\n      swap2\n      swap1\n      tag_88\n      jump\t// in\n    tag_87:\n      pop\n        /* \"Campaign.sol\":2008:2013  value */\n      dup3\n        /* \"Campaign.sol\":1990:2000  newRequest */\n      dup2\n        /* \"Campaign.sol\":1990:2006  newRequest.value */\n      0x01\n      add\n        /* \"Campaign.sol\":1990:2013  newRequest.value= value */\n      dup2\n      swap1\n      sstore\n      pop\n        /* \"Campaign.sol\":2046:2055  recipient */\n      dup2\n        /* \"Campaign.sol\":2024:2034  newRequest */\n      dup2\n        /* \"Campaign.sol\":2024:2044  newRequest.recipient */\n      0x02\n      add\n      0x00\n        /* \"Campaign.sol\":2024:2055  newRequest.recipient= recipient */\n      0x0100\n      exp\n      dup2\n      sload\n      dup2\n      0xffffffffffffffffffffffffffffffffffffffff\n      mul\n      not\n      and\n      swap1\n      dup4\n      0xffffffffffffffffffffffffffffffffffffffff\n      and\n      mul\n      or\n      swap1\n      sstore\n      pop\n        /* \"Campaign.sol\":2087:2092  false */\n      0x00\n        /* \"Campaign.sol\":2066:2076  newRequest */\n      dup2\n        /* \"Campaign.sol\":2066:2085  newRequest.complete */\n      0x02\n      add\n      0x14\n        /* \"Campaign.sol\":2066:2092  newRequest.complete= false */\n      0x0100\n      exp\n      dup2\n      sload\n      dup2\n      0xff\n      mul\n      not\n      and\n      swap1\n      dup4\n      iszero\n      iszero\n      mul\n      or\n      swap1\n      sstore\n      pop\n        /* \"Campaign.sol\":2129:2130  0 */\n      0x00\n        /* \"Campaign.sol\":2103:2113  newRequest */\n      dup2\n        /* \"Campaign.sol\":2103:2127  newRequest.approvalCount */\n      0x03\n      add\n        /* \"Campaign.sol\":2103:2130  newRequest.approvalCount= 0 */\n      dup2\n      swap1\n      sstore\n      pop\n        /* \"Campaign.sol\":1868:2138  {... */\n      pop\n        /* \"Campaign.sol\":1725:2138  function createRequest(... */\n      pop\n      pop\n      pop\n      jump\t// out\n        /* \"Campaign.sol\":1027:1058  uint public minimumContribution */\n    tag_48:\n      sload(0x03)\n      dup2\n      jump\t// out\n        /* \"Campaign.sol\":997:1020  uint public numRequests */\n    tag_52:\n      sload(0x02)\n      dup2\n      jump\t// out\n        /* \"Campaign.sol\":1410:1716  function contribute() public payable {... */\n    tag_55:\n        /* \"Campaign.sol\":1492:1511  minimumContribution */\n      sload(0x03)\n        /* \"Campaign.sol\":1480:1489  msg.value */\n      callvalue\n        /* \"Campaign.sol\":1480:1511  msg.value > minimumContribution */\n      gt\n        /* \"Campaign.sol\":1458:1575  require(... */\n      tag_90\n      jumpi\n      mload(0x40)\n      0x08c379a000000000000000000000000000000000000000000000000000000000\n      dup2\n      mstore\n      0x04\n      add\n      tag_91\n      swap1\n      tag_92\n      jump\t// in\n    tag_91:\n      mload(0x40)\n      dup1\n      swap2\n      sub\n      swap1\n      revert\n    tag_90:\n        /* \"Campaign.sol\":1592:1601  approvers */\n      0x05\n        /* \"Campaign.sol\":1592:1613  approvers[msg.sender] */\n      0x00\n        /* \"Campaign.sol\":1602:1612  msg.sender */\n      caller\n        /* \"Campaign.sol\":1592:1613  approvers[msg.sender] */\n      0xffffffffffffffffffffffffffffffffffffffff\n      and\n      0xffffffffffffffffffffffffffffffffffffffff\n      and\n      dup2\n      mstore\n      0x20\n      add\n      swap1\n      dup2\n      mstore\n      0x20\n      add\n      0x00\n      keccak256\n      0x00\n      swap1\n      sload\n      swap1\n      0x0100\n      exp\n      swap1\n      div\n      0xff\n      and\n        /* \"Campaign.sol\":1587:1700  if (!approvers[msg.sender]) {... */\n      tag_93\n      jumpi\n        /* \"Campaign.sol\":1654:1658  true */\n      0x01\n        /* \"Campaign.sol\":1630:1639  approvers */\n      0x05\n        /* \"Campaign.sol\":1630:1651  approvers[msg.sender] */\n      0x00\n        /* \"Campaign.sol\":1640:1650  msg.sender */\n      caller\n        /* \"Campaign.sol\":1630:1651  approvers[msg.sender] */\n      0xffffffffffffffffffffffffffffffffffffffff\n      and\n      0xffffffffffffffffffffffffffffffffffffffff\n      and\n      dup2\n      mstore\n      0x20\n      add\n      swap1\n      dup2\n      mstore\n      0x20\n      add\n      0x00\n      keccak256\n      0x00\n        /* \"Campaign.sol\":1630:1658  approvers[msg.sender] = true */\n      0x0100\n      exp\n      dup2\n      sload\n      dup2\n      0xff\n      mul\n      not\n      and\n      swap1\n      dup4\n      iszero\n      iszero\n      mul\n      or\n      swap1\n      sstore\n      pop\n        /* \"Campaign.sol\":1673:1687  approversCount */\n      0x04\n      0x00\n        /* \"Campaign.sol\":1673:1689  approversCount++ */\n      dup2\n      sload\n      dup1\n      swap3\n      swap2\n      swap1\n      tag_94\n      swap1\n      tag_86\n      jump\t// in\n    tag_94:\n      swap2\n      swap1\n      pop\n      sstore\n      pop\n        /* \"Campaign.sol\":1587:1700  if (!approvers[msg.sender]) {... */\n    tag_93:\n        /* \"Campaign.sol\":1410:1716  function contribute() public payable {... */\n      jump\t// out\n        /* \"Campaign.sol\":2146:2909  function approveRequest(uint index) public restricted... */\n    tag_59:\n        /* \"Campaign.sol\":818:825  manager */\n      0x01\n      0x00\n      swap1\n      sload\n      swap1\n      0x0100\n      exp\n      swap1\n      div\n      0xffffffffffffffffffffffffffffffffffffffff\n      and\n        /* \"Campaign.sol\":804:825  msg.sender == manager */\n      0xffffffffffffffffffffffffffffffffffffffff\n      and\n        /* \"Campaign.sol\":804:814  msg.sender */\n      caller\n        /* \"Campaign.sol\":804:825  msg.sender == manager */\n      0xffffffffffffffffffffffffffffffffffffffff\n      and\n      eq\n        /* \"Campaign.sol\":782:868  require(... */\n      tag_96\n      jumpi\n      mload(0x40)\n      0x08c379a000000000000000000000000000000000000000000000000000000000\n      dup2\n      mstore\n      0x04\n      add\n      tag_97\n      swap1\n      tag_63\n      jump\t// in\n    tag_97:\n      mload(0x40)\n      dup1\n      swap2\n      sub\n      swap1\n      revert\n    tag_96:\n        /* \"Campaign.sol\":2216:2239  Request storage request */\n      0x00\n        /* \"Campaign.sol\":2242:2250  requests */\n      dup1\n        /* \"Campaign.sol\":2242:2257  requests[index] */\n      0x00\n        /* \"Campaign.sol\":2251:2256  index */\n      dup4\n        /* \"Campaign.sol\":2242:2257  requests[index] */\n      dup2\n      mstore\n      0x20\n      add\n      swap1\n      dup2\n      mstore\n      0x20\n      add\n      0x00\n      keccak256\n        /* \"Campaign.sol\":2216:2257  Request storage request = requests[index] */\n      swap1\n      pop\n        /* \"Campaign.sol\":2342:2351  approvers */\n      0x05\n        /* \"Campaign.sol\":2342:2363  approvers[msg.sender] */\n      0x00\n        /* \"Campaign.sol\":2352:2362  msg.sender */\n      caller\n        /* \"Campaign.sol\":2342:2363  approvers[msg.sender] */\n      0xffffffffffffffffffffffffffffffffffffffff\n      and\n      0xffffffffffffffffffffffffffffffffffffffff\n      and\n      dup2\n      mstore\n      0x20\n      add\n      swap1\n      dup2\n      mstore\n      0x20\n      add\n      0x00\n      keccak256\n      0x00\n      swap1\n      sload\n      swap1\n      0x0100\n      exp\n      swap1\n      div\n      0xff\n      and\n        /* \"Campaign.sol\":2320:2407  require(... */\n      tag_99\n      jumpi\n      mload(0x40)\n      0x08c379a000000000000000000000000000000000000000000000000000000000\n      dup2\n      mstore\n      0x04\n      add\n      tag_100\n      swap1\n      tag_101\n      jump\t// in\n    tag_100:\n      mload(0x40)\n      dup1\n      swap2\n      sub\n      swap1\n      revert\n    tag_99:\n        /* \"Campaign.sol\":2576:2583  request */\n      dup1\n        /* \"Campaign.sol\":2576:2593  request.approvals */\n      0x04\n      add\n        /* \"Campaign.sol\":2576:2605  request.approvals[msg.sender] */\n      0x00\n        /* \"Campaign.sol\":2594:2604  msg.sender */\n      caller\n        /* \"Campaign.sol\":2576:2605  request.approvals[msg.sender] */\n      0xffffffffffffffffffffffffffffffffffffffff\n      and\n      0xffffffffffffffffffffffffffffffffffffffff\n      and\n      dup2\n      mstore\n      0x20\n      add\n      swap1\n      dup2\n      mstore\n      0x20\n      add\n      0x00\n      keccak256\n      0x00\n      swap1\n      sload\n      swap1\n      0x0100\n      exp\n      swap1\n      div\n      0xff\n      and\n        /* \"Campaign.sol\":2575:2605  !request.approvals[msg.sender] */\n      iszero\n        /* \"Campaign.sol\":2553:2699  require(... */\n      tag_102\n      jumpi\n      mload(0x40)\n      0x08c379a000000000000000000000000000000000000000000000000000000000\n      dup2\n      mstore\n      0x04\n      add\n      tag_103\n      swap1\n      tag_104\n      jump\t// in\n    tag_103:\n      mload(0x40)\n      dup1\n      swap2\n      sub\n      swap1\n      revert\n    tag_102:\n        /* \"Campaign.sol\":2761:2765  true */\n      0x01\n        /* \"Campaign.sol\":2721:2729  requests */\n      0x00\n        /* \"Campaign.sol\":2721:2736  requests[index] */\n      dup1\n        /* \"Campaign.sol\":2730:2735  index */\n      dup5\n        /* \"Campaign.sol\":2721:2736  requests[index] */\n      dup2\n      mstore\n      0x20\n      add\n      swap1\n      dup2\n      mstore\n      0x20\n      add\n      0x00\n      keccak256\n        /* \"Campaign.sol\":2721:2746  requests[index].approvals */\n      0x04\n      add\n        /* \"Campaign.sol\":2721:2758  requests[index].approvals[msg.sender] */\n      0x00\n        /* \"Campaign.sol\":2747:2757  msg.sender */\n      caller\n        /* \"Campaign.sol\":2721:2758  requests[index].approvals[msg.sender] */\n      0xffffffffffffffffffffffffffffffffffffffff\n      and\n      0xffffffffffffffffffffffffffffffffffffffff\n      and\n      dup2\n      mstore\n      0x20\n      add\n      swap1\n      dup2\n      mstore\n      0x20\n      add\n      0x00\n      keccak256\n      0x00\n        /* \"Campaign.sol\":2721:2765  requests[index].approvals[msg.sender] = true */\n      0x0100\n      exp\n      dup2\n      sload\n      dup2\n      0xff\n      mul\n      not\n      and\n      swap1\n      dup4\n      iszero\n      iszero\n      mul\n      or\n      swap1\n      sstore\n      pop\n        /* \"Campaign.sol\":2825:2833  requests */\n      0x00\n        /* \"Campaign.sol\":2825:2840  requests[index] */\n      dup1\n        /* \"Campaign.sol\":2834:2839  index */\n      dup4\n        /* \"Campaign.sol\":2825:2840  requests[index] */\n      dup2\n      mstore\n      0x20\n      add\n      swap1\n      dup2\n      mstore\n      0x20\n      add\n      0x00\n      keccak256\n        /* \"Campaign.sol\":2825:2854  requests[index].approvalCount */\n      0x03\n      add\n      0x00\n        /* \"Campaign.sol\":2825:2856  requests[index].approvalCount++ */\n      dup2\n      sload\n      dup1\n      swap3\n      swap2\n      swap1\n      tag_105\n      swap1\n      tag_86\n      jump\t// in\n    tag_105:\n      swap2\n      swap1\n      pop\n      sstore\n      pop\n        /* \"Campaign.sol\":2205:2909  {... */\n      pop\n        /* \"Campaign.sol\":2146:2909  function approveRequest(uint index) public restricted... */\n      pop\n      jump\t// out\n        /* \"#utility.yul\":7:82   */\n    tag_106:\n        /* \"#utility.yul\":40:46   */\n      0x00\n        /* \"#utility.yul\":73:75   */\n      0x40\n        /* \"#utility.yul\":67:76   */\n      mload\n        /* \"#utility.yul\":57:76   */\n      swap1\n      pop\n        /* \"#utility.yul\":7:82   */\n      swap1\n      jump\t// out\n        /* \"#utility.yul\":88:205   */\n    tag_107:\n        /* \"#utility.yul\":197:198   */\n      0x00\n        /* \"#utility.yul\":194:195   */\n      dup1\n        /* \"#utility.yul\":187:199   */\n      revert\n        /* \"#utility.yul\":211:328   */\n    tag_108:\n        /* \"#utility.yul\":320:321   */\n      0x00\n        /* \"#utility.yul\":317:318   */\n      dup1\n        /* \"#utility.yul\":310:322   */\n      revert\n        /* \"#utility.yul\":334:411   */\n    tag_109:\n        /* \"#utility.yul\":371:378   */\n      0x00\n        /* \"#utility.yul\":400:405   */\n      dup2\n        /* \"#utility.yul\":389:405   */\n      swap1\n      pop\n        /* \"#utility.yul\":334:411   */\n      swap2\n      swap1\n      pop\n      jump\t// out\n        /* \"#utility.yul\":417:539   */\n    tag_110:\n        /* \"#utility.yul\":490:514   */\n      tag_174\n        /* \"#utility.yul\":508:513   */\n      dup2\n        /* \"#utility.yul\":490:514   */\n      tag_109\n      jump\t// in\n    tag_174:\n        /* \"#utility.yul\":483:488   */\n      dup2\n        /* \"#utility.yul\":480:515   */\n      eq\n        /* \"#utility.yul\":470:533   */\n      tag_175\n      jumpi\n        /* \"#utility.yul\":529:530   */\n      0x00\n        /* \"#utility.yul\":526:527   */\n      dup1\n        /* \"#utility.yul\":519:531   */\n      revert\n        /* \"#utility.yul\":470:533   */\n    tag_175:\n        /* \"#utility.yul\":417:539   */\n      pop\n      jump\t// out\n        /* \"#utility.yul\":545:684   */\n    tag_111:\n        /* \"#utility.yul\":591:596   */\n      0x00\n        /* \"#utility.yul\":629:635   */\n      dup2\n        /* \"#utility.yul\":616:636   */\n      calldataload\n        /* \"#utility.yul\":607:636   */\n      swap1\n      pop\n        /* \"#utility.yul\":645:678   */\n      tag_177\n        /* \"#utility.yul\":672:677   */\n      dup2\n        /* \"#utility.yul\":645:678   */\n      tag_110\n      jump\t// in\n    tag_177:\n        /* \"#utility.yul\":545:684   */\n      swap3\n      swap2\n      pop\n      pop\n      jump\t// out\n        /* \"#utility.yul\":690:1019   */\n    tag_16:\n        /* \"#utility.yul\":749:755   */\n      0x00\n        /* \"#utility.yul\":798:800   */\n      0x20\n        /* \"#utility.yul\":786:795   */\n      dup3\n        /* \"#utility.yul\":777:784   */\n      dup5\n        /* \"#utility.yul\":773:796   */\n      sub\n        /* \"#utility.yul\":769:801   */\n      slt\n        /* \"#utility.yul\":766:885   */\n      iszero\n      tag_179\n      jumpi\n        /* \"#utility.yul\":804:883   */\n      tag_180\n      tag_107\n      jump\t// in\n    tag_180:\n        /* \"#utility.yul\":766:885   */\n    tag_179:\n        /* \"#utility.yul\":924:925   */\n      0x00\n        /* \"#utility.yul\":949:1002   */\n      tag_181\n        /* \"#utility.yul\":994:1001   */\n      dup5\n        /* \"#utility.yul\":985:991   */\n      dup3\n        /* \"#utility.yul\":974:983   */\n      dup6\n        /* \"#utility.yul\":970:992   */\n      add\n        /* \"#utility.yul\":949:1002   */\n      tag_111\n      jump\t// in\n    tag_181:\n        /* \"#utility.yul\":939:1002   */\n      swap2\n      pop\n        /* \"#utility.yul\":895:1012   */\n      pop\n        /* \"#utility.yul\":690:1019   */\n      swap3\n      swap2\n      pop\n      pop\n      jump\t// out\n        /* \"#utility.yul\":1025:1151   */\n    tag_112:\n        /* \"#utility.yul\":1062:1069   */\n      0x00\n        /* \"#utility.yul\":1102:1144   */\n      0xffffffffffffffffffffffffffffffffffffffff\n        /* \"#utility.yul\":1095:1100   */\n      dup3\n        /* \"#utility.yul\":1091:1145   */\n      and\n        /* \"#utility.yul\":1080:1145   */\n      swap1\n      pop\n        /* \"#utility.yul\":1025:1151   */\n      swap2\n      swap1\n      pop\n      jump\t// out\n        /* \"#utility.yul\":1157:1253   */\n    tag_113:\n        /* \"#utility.yul\":1194:1201   */\n      0x00\n        /* \"#utility.yul\":1223:1247   */\n      tag_184\n        /* \"#utility.yul\":1241:1246   */\n      dup3\n        /* \"#utility.yul\":1223:1247   */\n      tag_112\n      jump\t// in\n    tag_184:\n        /* \"#utility.yul\":1212:1247   */\n      swap1\n      pop\n        /* \"#utility.yul\":1157:1253   */\n      swap2\n      swap1\n      pop\n      jump\t// out\n        /* \"#utility.yul\":1259:1381   */\n    tag_114:\n        /* \"#utility.yul\":1332:1356   */\n      tag_186\n        /* \"#utility.yul\":1350:1355   */\n      dup2\n        /* \"#utility.yul\":1332:1356   */\n      tag_113\n      jump\t// in\n    tag_186:\n        /* \"#utility.yul\":1325:1330   */\n      dup2\n        /* \"#utility.yul\":1322:1357   */\n      eq\n        /* \"#utility.yul\":1312:1375   */\n      tag_187\n      jumpi\n        /* \"#utility.yul\":1371:1372   */\n      0x00\n        /* \"#utility.yul\":1368:1369   */\n      dup1\n        /* \"#utility.yul\":1361:1373   */\n      revert\n        /* \"#utility.yul\":1312:1375   */\n    tag_187:\n        /* \"#utility.yul\":1259:1381   */\n      pop\n      jump\t// out\n        /* \"#utility.yul\":1387:1526   */\n    tag_115:\n        /* \"#utility.yul\":1433:1438   */\n      0x00\n        /* \"#utility.yul\":1471:1477   */\n      dup2\n        /* \"#utility.yul\":1458:1478   */\n      calldataload\n        /* \"#utility.yul\":1449:1478   */\n      swap1\n      pop\n        /* \"#utility.yul\":1487:1520   */\n      tag_189\n        /* \"#utility.yul\":1514:1519   */\n      dup2\n        /* \"#utility.yul\":1487:1520   */\n      tag_114\n      jump\t// in\n    tag_189:\n        /* \"#utility.yul\":1387:1526   */\n      swap3\n      swap2\n      pop\n      pop\n      jump\t// out\n        /* \"#utility.yul\":1532:1861   */\n    tag_21:\n        /* \"#utility.yul\":1591:1597   */\n      0x00\n        /* \"#utility.yul\":1640:1642   */\n      0x20\n        /* \"#utility.yul\":1628:1637   */\n      dup3\n        /* \"#utility.yul\":1619:1626   */\n      dup5\n        /* \"#utility.yul\":1615:1638   */\n      sub\n        /* \"#utility.yul\":1611:1643   */\n      slt\n        /* \"#utility.yul\":1608:1727   */\n      iszero\n      tag_191\n      jumpi\n        /* \"#utility.yul\":1646:1725   */\n      tag_192\n      tag_107\n      jump\t// in\n    tag_192:\n        /* \"#utility.yul\":1608:1727   */\n    tag_191:\n        /* \"#utility.yul\":1766:1767   */\n      0x00\n        /* \"#utility.yul\":1791:1844   */\n      tag_193\n        /* \"#utility.yul\":1836:1843   */\n      dup5\n        /* \"#utility.yul\":1827:1833   */\n      dup3\n        /* \"#utility.yul\":1816:1825   */\n      dup6\n        /* \"#utility.yul\":1812:1834   */\n      add\n        /* \"#utility.yul\":1791:1844   */\n      tag_115\n      jump\t// in\n    tag_193:\n        /* \"#utility.yul\":1781:1844   */\n      swap2\n      pop\n        /* \"#utility.yul\":1737:1854   */\n      pop\n        /* \"#utility.yul\":1532:1861   */\n      swap3\n      swap2\n      pop\n      pop\n      jump\t// out\n        /* \"#utility.yul\":1867:1957   */\n    tag_116:\n        /* \"#utility.yul\":1901:1908   */\n      0x00\n        /* \"#utility.yul\":1944:1949   */\n      dup2\n        /* \"#utility.yul\":1937:1950   */\n      iszero\n        /* \"#utility.yul\":1930:1951   */\n      iszero\n        /* \"#utility.yul\":1919:1951   */\n      swap1\n      pop\n        /* \"#utility.yul\":1867:1957   */\n      swap2\n      swap1\n      pop\n      jump\t// out\n        /* \"#utility.yul\":1963:2072   */\n    tag_117:\n        /* \"#utility.yul\":2044:2065   */\n      tag_196\n        /* \"#utility.yul\":2059:2064   */\n      dup2\n        /* \"#utility.yul\":2044:2065   */\n      tag_116\n      jump\t// in\n    tag_196:\n        /* \"#utility.yul\":2039:2042   */\n      dup3\n        /* \"#utility.yul\":2032:2066   */\n      mstore\n        /* \"#utility.yul\":1963:2072   */\n      pop\n      pop\n      jump\t// out\n        /* \"#utility.yul\":2078:2288   */\n    tag_24:\n        /* \"#utility.yul\":2165:2169   */\n      0x00\n        /* \"#utility.yul\":2203:2205   */\n      0x20\n        /* \"#utility.yul\":2192:2201   */\n      dup3\n        /* \"#utility.yul\":2188:2206   */\n      add\n        /* \"#utility.yul\":2180:2206   */\n      swap1\n      pop\n        /* \"#utility.yul\":2216:2281   */\n      tag_198\n        /* \"#utility.yul\":2278:2279   */\n      0x00\n        /* \"#utility.yul\":2267:2276   */\n      dup4\n        /* \"#utility.yul\":2263:2280   */\n      add\n        /* \"#utility.yul\":2254:2260   */\n      dup5\n        /* \"#utility.yul\":2216:2281   */\n      tag_117\n      jump\t// in\n    tag_198:\n        /* \"#utility.yul\":2078:2288   */\n      swap3\n      swap2\n      pop\n      pop\n      jump\t// out\n        /* \"#utility.yul\":2294:2412   */\n    tag_118:\n        /* \"#utility.yul\":2381:2405   */\n      tag_200\n        /* \"#utility.yul\":2399:2404   */\n      dup2\n        /* \"#utility.yul\":2381:2405   */\n      tag_113\n      jump\t// in\n    tag_200:\n        /* \"#utility.yul\":2376:2379   */\n      dup3\n        /* \"#utility.yul\":2369:2406   */\n      mstore\n        /* \"#utility.yul\":2294:2412   */\n      pop\n      pop\n      jump\t// out\n        /* \"#utility.yul\":2418:2640   */\n    tag_29:\n        /* \"#utility.yul\":2511:2515   */\n      0x00\n        /* \"#utility.yul\":2549:2551   */\n      0x20\n        /* \"#utility.yul\":2538:2547   */\n      dup3\n        /* \"#utility.yul\":2534:2552   */\n      add\n        /* \"#utility.yul\":2526:2552   */\n      swap1\n      pop\n        /* \"#utility.yul\":2562:2633   */\n      tag_202\n        /* \"#utility.yul\":2630:2631   */\n      0x00\n        /* \"#utility.yul\":2619:2628   */\n      dup4\n        /* \"#utility.yul\":2615:2632   */\n      add\n        /* \"#utility.yul\":2606:2612   */\n      dup5\n        /* \"#utility.yul\":2562:2633   */\n      tag_118\n      jump\t// in\n    tag_202:\n        /* \"#utility.yul\":2418:2640   */\n      swap3\n      swap2\n      pop\n      pop\n      jump\t// out\n        /* \"#utility.yul\":2646:2745   */\n    tag_119:\n        /* \"#utility.yul\":2698:2704   */\n      0x00\n        /* \"#utility.yul\":2732:2737   */\n      dup2\n        /* \"#utility.yul\":2726:2738   */\n      mload\n        /* \"#utility.yul\":2716:2738   */\n      swap1\n      pop\n        /* \"#utility.yul\":2646:2745   */\n      swap2\n      swap1\n      pop\n      jump\t// out\n        /* \"#utility.yul\":2751:2920   */\n    tag_120:\n        /* \"#utility.yul\":2835:2846   */\n      0x00\n        /* \"#utility.yul\":2869:2875   */\n      dup3\n        /* \"#utility.yul\":2864:2867   */\n      dup3\n        /* \"#utility.yul\":2857:2876   */\n      mstore\n        /* \"#utility.yul\":2909:2913   */\n      0x20\n        /* \"#utility.yul\":2904:2907   */\n      dup3\n        /* \"#utility.yul\":2900:2914   */\n      add\n        /* \"#utility.yul\":2885:2914   */\n      swap1\n      pop\n        /* \"#utility.yul\":2751:2920   */\n      swap3\n      swap2\n      pop\n      pop\n      jump\t// out\n        /* \"#utility.yul\":2926:3172   */\n    tag_121:\n        /* \"#utility.yul\":3007:3008   */\n      0x00\n        /* \"#utility.yul\":3017:3130   */\n    tag_206:\n        /* \"#utility.yul\":3031:3037   */\n      dup4\n        /* \"#utility.yul\":3028:3029   */\n      dup2\n        /* \"#utility.yul\":3025:3038   */\n      lt\n        /* \"#utility.yul\":3017:3130   */\n      iszero\n      tag_208\n      jumpi\n        /* \"#utility.yul\":3116:3117   */\n      dup1\n        /* \"#utility.yul\":3111:3114   */\n      dup3\n        /* \"#utility.yul\":3107:3118   */\n      add\n        /* \"#utility.yul\":3101:3119   */\n      mload\n        /* \"#utility.yul\":3097:3098   */\n      dup2\n        /* \"#utility.yul\":3092:3095   */\n      dup5\n        /* \"#utility.yul\":3088:3099   */\n      add\n        /* \"#utility.yul\":3081:3120   */\n      mstore\n        /* \"#utility.yul\":3053:3055   */\n      0x20\n        /* \"#utility.yul\":3050:3051   */\n      dup2\n        /* \"#utility.yul\":3046:3056   */\n      add\n        /* \"#utility.yul\":3041:3056   */\n      swap1\n      pop\n        /* \"#utility.yul\":3017:3130   */\n      jump(tag_206)\n    tag_208:\n        /* \"#utility.yul\":3164:3165   */\n      0x00\n        /* \"#utility.yul\":3155:3161   */\n      dup5\n        /* \"#utility.yul\":3150:3153   */\n      dup5\n        /* \"#utility.yul\":3146:3162   */\n      add\n        /* \"#utility.yul\":3139:3166   */\n      mstore\n        /* \"#utility.yul\":2988:3172   */\n      pop\n        /* \"#utility.yul\":2926:3172   */\n      pop\n      pop\n      pop\n      jump\t// out\n        /* \"#utility.yul\":3178:3280   */\n    tag_122:\n        /* \"#utility.yul\":3219:3225   */\n      0x00\n        /* \"#utility.yul\":3270:3272   */\n      0x1f\n        /* \"#utility.yul\":3266:3273   */\n      not\n        /* \"#utility.yul\":3261:3263   */\n      0x1f\n        /* \"#utility.yul\":3254:3259   */\n      dup4\n        /* \"#utility.yul\":3250:3264   */\n      add\n        /* \"#utility.yul\":3246:3274   */\n      and\n        /* \"#utility.yul\":3236:3274   */\n      swap1\n      pop\n        /* \"#utility.yul\":3178:3280   */\n      swap2\n      swap1\n      pop\n      jump\t// out\n        /* \"#utility.yul\":3286:3663   */\n    tag_123:\n        /* \"#utility.yul\":3374:3377   */\n      0x00\n        /* \"#utility.yul\":3402:3441   */\n      tag_211\n        /* \"#utility.yul\":3435:3440   */\n      dup3\n        /* \"#utility.yul\":3402:3441   */\n      tag_119\n      jump\t// in\n    tag_211:\n        /* \"#utility.yul\":3457:3528   */\n      tag_212\n        /* \"#utility.yul\":3521:3527   */\n      dup2\n        /* \"#utility.yul\":3516:3519   */\n      dup6\n        /* \"#utility.yul\":3457:3528   */\n      tag_120\n      jump\t// in\n    tag_212:\n        /* \"#utility.yul\":3450:3528   */\n      swap4\n      pop\n        /* \"#utility.yul\":3537:3602   */\n      tag_213\n        /* \"#utility.yul\":3595:3601   */\n      dup2\n        /* \"#utility.yul\":3590:3593   */\n      dup6\n        /* \"#utility.yul\":3583:3587   */\n      0x20\n        /* \"#utility.yul\":3576:3581   */\n      dup7\n        /* \"#utility.yul\":3572:3588   */\n      add\n        /* \"#utility.yul\":3537:3602   */\n      tag_121\n      jump\t// in\n    tag_213:\n        /* \"#utility.yul\":3627:3656   */\n      tag_214\n        /* \"#utility.yul\":3649:3655   */\n      dup2\n        /* \"#utility.yul\":3627:3656   */\n      tag_122\n      jump\t// in\n    tag_214:\n        /* \"#utility.yul\":3622:3625   */\n      dup5\n        /* \"#utility.yul\":3618:3657   */\n      add\n        /* \"#utility.yul\":3611:3657   */\n      swap2\n      pop\n        /* \"#utility.yul\":3378:3663   */\n      pop\n        /* \"#utility.yul\":3286:3663   */\n      swap3\n      swap2\n      pop\n      pop\n      jump\t// out\n        /* \"#utility.yul\":3669:3787   */\n    tag_124:\n        /* \"#utility.yul\":3756:3780   */\n      tag_216\n        /* \"#utility.yul\":3774:3779   */\n      dup2\n        /* \"#utility.yul\":3756:3780   */\n      tag_109\n      jump\t// in\n    tag_216:\n        /* \"#utility.yul\":3751:3754   */\n      dup3\n        /* \"#utility.yul\":3744:3781   */\n      mstore\n        /* \"#utility.yul\":3669:3787   */\n      pop\n      pop\n      jump\t// out\n        /* \"#utility.yul\":3793:3897   */\n    tag_125:\n        /* \"#utility.yul\":3838:3845   */\n      0x00\n        /* \"#utility.yul\":3867:3891   */\n      tag_218\n        /* \"#utility.yul\":3885:3890   */\n      dup3\n        /* \"#utility.yul\":3867:3891   */\n      tag_112\n      jump\t// in\n    tag_218:\n        /* \"#utility.yul\":3856:3891   */\n      swap1\n      pop\n        /* \"#utility.yul\":3793:3897   */\n      swap2\n      swap1\n      pop\n      jump\t// out\n        /* \"#utility.yul\":3903:4045   */\n    tag_126:\n        /* \"#utility.yul\":4006:4038   */\n      tag_220\n        /* \"#utility.yul\":4032:4037   */\n      dup2\n        /* \"#utility.yul\":4006:4038   */\n      tag_125\n      jump\t// in\n    tag_220:\n        /* \"#utility.yul\":4001:4004   */\n      dup3\n        /* \"#utility.yul\":3994:4039   */\n      mstore\n        /* \"#utility.yul\":3903:4045   */\n      pop\n      pop\n      jump\t// out\n        /* \"#utility.yul\":4051:4826   */\n    tag_35:\n        /* \"#utility.yul\":4286:4290   */\n      0x00\n        /* \"#utility.yul\":4324:4327   */\n      0xa0\n        /* \"#utility.yul\":4313:4322   */\n      dup3\n        /* \"#utility.yul\":4309:4328   */\n      add\n        /* \"#utility.yul\":4301:4328   */\n      swap1\n      pop\n        /* \"#utility.yul\":4374:4383   */\n      dup2\n        /* \"#utility.yul\":4368:4372   */\n      dup2\n        /* \"#utility.yul\":4364:4384   */\n      sub\n        /* \"#utility.yul\":4360:4361   */\n      0x00\n        /* \"#utility.yul\":4349:4358   */\n      dup4\n        /* \"#utility.yul\":4345:4362   */\n      add\n        /* \"#utility.yul\":4338:4385   */\n      mstore\n        /* \"#utility.yul\":4402:4480   */\n      tag_222\n        /* \"#utility.yul\":4475:4479   */\n      dup2\n        /* \"#utility.yul\":4466:4472   */\n      dup9\n        /* \"#utility.yul\":4402:4480   */\n      tag_123\n      jump\t// in\n    tag_222:\n        /* \"#utility.yul\":4394:4480   */\n      swap1\n      pop\n        /* \"#utility.yul\":4490:4562   */\n      tag_223\n        /* \"#utility.yul\":4558:4560   */\n      0x20\n        /* \"#utility.yul\":4547:4556   */\n      dup4\n        /* \"#utility.yul\":4543:4561   */\n      add\n        /* \"#utility.yul\":4534:4540   */\n      dup8\n        /* \"#utility.yul\":4490:4562   */\n      tag_124\n      jump\t// in\n    tag_223:\n        /* \"#utility.yul\":4572:4660   */\n      tag_224\n        /* \"#utility.yul\":4656:4658   */\n      0x40\n        /* \"#utility.yul\":4645:4654   */\n      dup4\n        /* \"#utility.yul\":4641:4659   */\n      add\n        /* \"#utility.yul\":4632:4638   */\n      dup7\n        /* \"#utility.yul\":4572:4660   */\n      tag_126\n      jump\t// in\n    tag_224:\n        /* \"#utility.yul\":4670:4736   */\n      tag_225\n        /* \"#utility.yul\":4732:4734   */\n      0x60\n        /* \"#utility.yul\":4721:4730   */\n      dup4\n        /* \"#utility.yul\":4717:4735   */\n      add\n        /* \"#utility.yul\":4708:4714   */\n      dup6\n        /* \"#utility.yul\":4670:4736   */\n      tag_117\n      jump\t// in\n    tag_225:\n        /* \"#utility.yul\":4746:4819   */\n      tag_226\n        /* \"#utility.yul\":4814:4817   */\n      0x80\n        /* \"#utility.yul\":4803:4812   */\n      dup4\n        /* \"#utility.yul\":4799:4818   */\n      add\n        /* \"#utility.yul\":4790:4796   */\n      dup5\n        /* \"#utility.yul\":4746:4819   */\n      tag_124\n      jump\t// in\n    tag_226:\n        /* \"#utility.yul\":4051:4826   */\n      swap7\n      swap6\n      pop\n      pop\n      pop\n      pop\n      pop\n      pop\n      jump\t// out\n        /* \"#utility.yul\":4832:5054   */\n    tag_40:\n        /* \"#utility.yul\":4925:4929   */\n      0x00\n        /* \"#utility.yul\":4963:4965   */\n      0x20\n        /* \"#utility.yul\":4952:4961   */\n      dup3\n        /* \"#utility.yul\":4948:4966   */\n      add\n        /* \"#utility.yul\":4940:4966   */\n      swap1\n      pop\n        /* \"#utility.yul\":4976:5047   */\n      tag_228\n        /* \"#utility.yul\":5044:5045   */\n      0x00\n        /* \"#utility.yul\":5033:5042   */\n      dup4\n        /* \"#utility.yul\":5029:5046   */\n      add\n        /* \"#utility.yul\":5020:5026   */\n      dup5\n        /* \"#utility.yul\":4976:5047   */\n      tag_124\n      jump\t// in\n    tag_228:\n        /* \"#utility.yul\":4832:5054   */\n      swap3\n      swap2\n      pop\n      pop\n      jump\t// out\n        /* \"#utility.yul\":5060:5177   */\n    tag_127:\n        /* \"#utility.yul\":5169:5170   */\n      0x00\n        /* \"#utility.yul\":5166:5167   */\n      dup1\n        /* \"#utility.yul\":5159:5171   */\n      revert\n        /* \"#utility.yul\":5183:5300   */\n    tag_128:\n        /* \"#utility.yul\":5292:5293   */\n      0x00\n        /* \"#utility.yul\":5289:5290   */\n      dup1\n        /* \"#utility.yul\":5282:5294   */\n      revert\n        /* \"#utility.yul\":5306:5486   */\n    tag_129:\n        /* \"#utility.yul\":5354:5431   */\n      0x4e487b7100000000000000000000000000000000000000000000000000000000\n        /* \"#utility.yul\":5351:5352   */\n      0x00\n        /* \"#utility.yul\":5344:5432   */\n      mstore\n        /* \"#utility.yul\":5451:5455   */\n      0x41\n        /* \"#utility.yul\":5448:5449   */\n      0x04\n        /* \"#utility.yul\":5441:5456   */\n      mstore\n        /* \"#utility.yul\":5475:5479   */\n      0x24\n        /* \"#utility.yul\":5472:5473   */\n      0x00\n        /* \"#utility.yul\":5465:5480   */\n      revert\n        /* \"#utility.yul\":5492:5773   */\n    tag_130:\n        /* \"#utility.yul\":5575:5602   */\n      tag_233\n        /* \"#utility.yul\":5597:5601   */\n      dup3\n        /* \"#utility.yul\":5575:5602   */\n      tag_122\n      jump\t// in\n    tag_233:\n        /* \"#utility.yul\":5567:5573   */\n      dup2\n        /* \"#utility.yul\":5563:5603   */\n      add\n        /* \"#utility.yul\":5705:5711   */\n      dup2\n        /* \"#utility.yul\":5693:5703   */\n      dup2\n        /* \"#utility.yul\":5690:5712   */\n      lt\n        /* \"#utility.yul\":5669:5687   */\n      0xffffffffffffffff\n        /* \"#utility.yul\":5657:5667   */\n      dup3\n        /* \"#utility.yul\":5654:5688   */\n      gt\n        /* \"#utility.yul\":5651:5713   */\n      or\n        /* \"#utility.yul\":5648:5736   */\n      iszero\n      tag_234\n      jumpi\n        /* \"#utility.yul\":5716:5734   */\n      tag_235\n      tag_129\n      jump\t// in\n    tag_235:\n        /* \"#utility.yul\":5648:5736   */\n    tag_234:\n        /* \"#utility.yul\":5756:5766   */\n      dup1\n        /* \"#utility.yul\":5752:5754   */\n      0x40\n        /* \"#utility.yul\":5745:5767   */\n      mstore\n        /* \"#utility.yul\":5535:5773   */\n      pop\n        /* \"#utility.yul\":5492:5773   */\n      pop\n      pop\n      jump\t// out\n        /* \"#utility.yul\":5779:5908   */\n    tag_131:\n        /* \"#utility.yul\":5813:5819   */\n      0x00\n        /* \"#utility.yul\":5840:5860   */\n      tag_237\n      tag_106\n      jump\t// in\n    tag_237:\n        /* \"#utility.yul\":5830:5860   */\n      swap1\n      pop\n        /* \"#utility.yul\":5869:5902   */\n      tag_238\n        /* \"#utility.yul\":5897:5901   */\n      dup3\n        /* \"#utility.yul\":5889:5895   */\n      dup3\n        /* \"#utility.yul\":5869:5902   */\n      tag_130\n      jump\t// in\n    tag_238:\n        /* \"#utility.yul\":5779:5908   */\n      swap2\n      swap1\n      pop\n      jump\t// out\n        /* \"#utility.yul\":5914:6222   */\n    tag_132:\n        /* \"#utility.yul\":5976:5980   */\n      0x00\n        /* \"#utility.yul\":6066:6084   */\n      0xffffffffffffffff\n        /* \"#utility.yul\":6058:6064   */\n      dup3\n        /* \"#utility.yul\":6055:6085   */\n      gt\n        /* \"#utility.yul\":6052:6108   */\n      iszero\n      tag_240\n      jumpi\n        /* \"#utility.yul\":6088:6106   */\n      tag_241\n      tag_129\n      jump\t// in\n    tag_241:\n        /* \"#utility.yul\":6052:6108   */\n    tag_240:\n        /* \"#utility.yul\":6126:6155   */\n      tag_242\n        /* \"#utility.yul\":6148:6154   */\n      dup3\n        /* \"#utility.yul\":6126:6155   */\n      tag_122\n      jump\t// in\n    tag_242:\n        /* \"#utility.yul\":6118:6155   */\n      swap1\n      pop\n        /* \"#utility.yul\":6210:6214   */\n      0x20\n        /* \"#utility.yul\":6204:6208   */\n      dup2\n        /* \"#utility.yul\":6200:6215   */\n      add\n        /* \"#utility.yul\":6192:6215   */\n      swap1\n      pop\n        /* \"#utility.yul\":5914:6222   */\n      swap2\n      swap1\n      pop\n      jump\t// out\n        /* \"#utility.yul\":6228:6374   */\n    tag_133:\n        /* \"#utility.yul\":6325:6331   */\n      dup3\n        /* \"#utility.yul\":6320:6323   */\n      dup2\n        /* \"#utility.yul\":6315:6318   */\n      dup4\n        /* \"#utility.yul\":6302:6332   */\n      calldatacopy\n        /* \"#utility.yul\":6366:6367   */\n      0x00\n        /* \"#utility.yul\":6357:6363   */\n      dup4\n        /* \"#utility.yul\":6352:6355   */\n      dup4\n        /* \"#utility.yul\":6348:6364   */\n      add\n        /* \"#utility.yul\":6341:6368   */\n      mstore\n        /* \"#utility.yul\":6228:6374   */\n      pop\n      pop\n      pop\n      jump\t// out\n        /* \"#utility.yul\":6380:6805   */\n    tag_134:\n        /* \"#utility.yul\":6458:6463   */\n      0x00\n        /* \"#utility.yul\":6483:6549   */\n      tag_245\n        /* \"#utility.yul\":6499:6548   */\n      tag_246\n        /* \"#utility.yul\":6541:6547   */\n      dup5\n        /* \"#utility.yul\":6499:6548   */\n      tag_132\n      jump\t// in\n    tag_246:\n        /* \"#utility.yul\":6483:6549   */\n      tag_131\n      jump\t// in\n    tag_245:\n        /* \"#utility.yul\":6474:6549   */\n      swap1\n      pop\n        /* \"#utility.yul\":6572:6578   */\n      dup3\n        /* \"#utility.yul\":6565:6570   */\n      dup2\n        /* \"#utility.yul\":6558:6579   */\n      mstore\n        /* \"#utility.yul\":6610:6614   */\n      0x20\n        /* \"#utility.yul\":6603:6608   */\n      dup2\n        /* \"#utility.yul\":6599:6615   */\n      add\n        /* \"#utility.yul\":6648:6651   */\n      dup5\n        /* \"#utility.yul\":6639:6645   */\n      dup5\n        /* \"#utility.yul\":6634:6637   */\n      dup5\n        /* \"#utility.yul\":6630:6646   */\n      add\n        /* \"#utility.yul\":6627:6652   */\n      gt\n        /* \"#utility.yul\":6624:6736   */\n      iszero\n      tag_247\n      jumpi\n        /* \"#utility.yul\":6655:6734   */\n      tag_248\n      tag_128\n      jump\t// in\n    tag_248:\n        /* \"#utility.yul\":6624:6736   */\n    tag_247:\n        /* \"#utility.yul\":6745:6799   */\n      tag_249\n        /* \"#utility.yul\":6792:6798   */\n      dup5\n        /* \"#utility.yul\":6787:6790   */\n      dup3\n        /* \"#utility.yul\":6782:6785   */\n      dup6\n        /* \"#utility.yul\":6745:6799   */\n      tag_133\n      jump\t// in\n    tag_249:\n        /* \"#utility.yul\":6464:6805   */\n      pop\n        /* \"#utility.yul\":6380:6805   */\n      swap4\n      swap3\n      pop\n      pop\n      pop\n      jump\t// out\n        /* \"#utility.yul\":6825:7165   */\n    tag_135:\n        /* \"#utility.yul\":6881:6886   */\n      0x00\n        /* \"#utility.yul\":6930:6933   */\n      dup3\n        /* \"#utility.yul\":6923:6927   */\n      0x1f\n        /* \"#utility.yul\":6915:6921   */\n      dup4\n        /* \"#utility.yul\":6911:6928   */\n      add\n        /* \"#utility.yul\":6907:6934   */\n      slt\n        /* \"#utility.yul\":6897:7019   */\n      tag_251\n      jumpi\n        /* \"#utility.yul\":6938:7017   */\n      tag_252\n      tag_127\n      jump\t// in\n    tag_252:\n        /* \"#utility.yul\":6897:7019   */\n    tag_251:\n        /* \"#utility.yul\":7055:7061   */\n      dup2\n        /* \"#utility.yul\":7042:7062   */\n      calldataload\n        /* \"#utility.yul\":7080:7159   */\n      tag_253\n        /* \"#utility.yul\":7155:7158   */\n      dup5\n        /* \"#utility.yul\":7147:7153   */\n      dup3\n        /* \"#utility.yul\":7140:7144   */\n      0x20\n        /* \"#utility.yul\":7132:7138   */\n      dup7\n        /* \"#utility.yul\":7128:7145   */\n      add\n        /* \"#utility.yul\":7080:7159   */\n      tag_134\n      jump\t// in\n    tag_253:\n        /* \"#utility.yul\":7071:7159   */\n      swap2\n      pop\n        /* \"#utility.yul\":6887:7165   */\n      pop\n        /* \"#utility.yul\":6825:7165   */\n      swap3\n      swap2\n      pop\n      pop\n      jump\t// out\n        /* \"#utility.yul\":7171:7309   */\n    tag_136:\n        /* \"#utility.yul\":7252:7284   */\n      tag_255\n        /* \"#utility.yul\":7278:7283   */\n      dup2\n        /* \"#utility.yul\":7252:7284   */\n      tag_125\n      jump\t// in\n    tag_255:\n        /* \"#utility.yul\":7245:7250   */\n      dup2\n        /* \"#utility.yul\":7242:7285   */\n      eq\n        /* \"#utility.yul\":7232:7303   */\n      tag_256\n      jumpi\n        /* \"#utility.yul\":7299:7300   */\n      0x00\n        /* \"#utility.yul\":7296:7297   */\n      dup1\n        /* \"#utility.yul\":7289:7301   */\n      revert\n        /* \"#utility.yul\":7232:7303   */\n    tag_256:\n        /* \"#utility.yul\":7171:7309   */\n      pop\n      jump\t// out\n        /* \"#utility.yul\":7315:7470   */\n    tag_137:\n        /* \"#utility.yul\":7369:7374   */\n      0x00\n        /* \"#utility.yul\":7407:7413   */\n      dup2\n        /* \"#utility.yul\":7394:7414   */\n      calldataload\n        /* \"#utility.yul\":7385:7414   */\n      swap1\n      pop\n        /* \"#utility.yul\":7423:7464   */\n      tag_258\n        /* \"#utility.yul\":7458:7463   */\n      dup2\n        /* \"#utility.yul\":7423:7464   */\n      tag_136\n      jump\t// in\n    tag_258:\n        /* \"#utility.yul\":7315:7470   */\n      swap3\n      swap2\n      pop\n      pop\n      jump\t// out\n        /* \"#utility.yul\":7476:8291   */\n    tag_44:\n        /* \"#utility.yul\":7571:7577   */\n      0x00\n        /* \"#utility.yul\":7579:7585   */\n      dup1\n        /* \"#utility.yul\":7587:7593   */\n      0x00\n        /* \"#utility.yul\":7636:7638   */\n      0x60\n        /* \"#utility.yul\":7624:7633   */\n      dup5\n        /* \"#utility.yul\":7615:7622   */\n      dup7\n        /* \"#utility.yul\":7611:7634   */\n      sub\n        /* \"#utility.yul\":7607:7639   */\n      slt\n        /* \"#utility.yul\":7604:7723   */\n      iszero\n      tag_260\n      jumpi\n        /* \"#utility.yul\":7642:7721   */\n      tag_261\n      tag_107\n      jump\t// in\n    tag_261:\n        /* \"#utility.yul\":7604:7723   */\n    tag_260:\n        /* \"#utility.yul\":7790:7791   */\n      0x00\n        /* \"#utility.yul\":7779:7788   */\n      dup5\n        /* \"#utility.yul\":7775:7792   */\n      add\n        /* \"#utility.yul\":7762:7793   */\n      calldataload\n        /* \"#utility.yul\":7820:7838   */\n      0xffffffffffffffff\n        /* \"#utility.yul\":7812:7818   */\n      dup2\n        /* \"#utility.yul\":7809:7839   */\n      gt\n        /* \"#utility.yul\":7806:7923   */\n      iszero\n      tag_262\n      jumpi\n        /* \"#utility.yul\":7842:7921   */\n      tag_263\n      tag_108\n      jump\t// in\n    tag_263:\n        /* \"#utility.yul\":7806:7923   */\n    tag_262:\n        /* \"#utility.yul\":7947:8010   */\n      tag_264\n        /* \"#utility.yul\":8002:8009   */\n      dup7\n        /* \"#utility.yul\":7993:7999   */\n      dup3\n        /* \"#utility.yul\":7982:7991   */\n      dup8\n        /* \"#utility.yul\":7978:8000   */\n      add\n        /* \"#utility.yul\":7947:8010   */\n      tag_135\n      jump\t// in\n    tag_264:\n        /* \"#utility.yul\":7937:8010   */\n      swap4\n      pop\n        /* \"#utility.yul\":7733:8020   */\n      pop\n        /* \"#utility.yul\":8059:8061   */\n      0x20\n        /* \"#utility.yul\":8085:8138   */\n      tag_265\n        /* \"#utility.yul\":8130:8137   */\n      dup7\n        /* \"#utility.yul\":8121:8127   */\n      dup3\n        /* \"#utility.yul\":8110:8119   */\n      dup8\n        /* \"#utility.yul\":8106:8128   */\n      add\n        /* \"#utility.yul\":8085:8138   */\n      tag_111\n      jump\t// in\n    tag_265:\n        /* \"#utility.yul\":8075:8138   */\n      swap3\n      pop\n        /* \"#utility.yul\":8030:8148   */\n      pop\n        /* \"#utility.yul\":8187:8189   */\n      0x40\n        /* \"#utility.yul\":8213:8274   */\n      tag_266\n        /* \"#utility.yul\":8266:8273   */\n      dup7\n        /* \"#utility.yul\":8257:8263   */\n      dup3\n        /* \"#utility.yul\":8246:8255   */\n      dup8\n        /* \"#utility.yul\":8242:8264   */\n      add\n        /* \"#utility.yul\":8213:8274   */\n      tag_137\n      jump\t// in\n    tag_266:\n        /* \"#utility.yul\":8203:8274   */\n      swap2\n      pop\n        /* \"#utility.yul\":8158:8284   */\n      pop\n        /* \"#utility.yul\":7476:8291   */\n      swap3\n      pop\n      swap3\n      pop\n      swap3\n      jump\t// out\n        /* \"#utility.yul\":8297:8462   */\n    tag_138:\n        /* \"#utility.yul\":8437:8454   */\n      0x4e6f7420746865206d616e616765720000000000000000000000000000000000\n        /* \"#utility.yul\":8433:8434   */\n      0x00\n        /* \"#utility.yul\":8425:8431   */\n      dup3\n        /* \"#utility.yul\":8421:8435   */\n      add\n        /* \"#utility.yul\":8414:8455   */\n      mstore\n        /* \"#utility.yul\":8297:8462   */\n      pop\n      jump\t// out\n        /* \"#utility.yul\":8468:8834   */\n    tag_139:\n        /* \"#utility.yul\":8610:8613   */\n      0x00\n        /* \"#utility.yul\":8631:8698   */\n      tag_269\n        /* \"#utility.yul\":8695:8697   */\n      0x0f\n        /* \"#utility.yul\":8690:8693   */\n      dup4\n        /* \"#utility.yul\":8631:8698   */\n      tag_120\n      jump\t// in\n    tag_269:\n        /* \"#utility.yul\":8624:8698   */\n      swap2\n      pop\n        /* \"#utility.yul\":8707:8800   */\n      tag_270\n        /* \"#utility.yul\":8796:8799   */\n      dup3\n        /* \"#utility.yul\":8707:8800   */\n      tag_138\n      jump\t// in\n    tag_270:\n        /* \"#utility.yul\":8825:8827   */\n      0x20\n        /* \"#utility.yul\":8820:8823   */\n      dup3\n        /* \"#utility.yul\":8816:8828   */\n      add\n        /* \"#utility.yul\":8809:8828   */\n      swap1\n      pop\n        /* \"#utility.yul\":8468:8834   */\n      swap2\n      swap1\n      pop\n      jump\t// out\n        /* \"#utility.yul\":8840:9259   */\n    tag_63:\n        /* \"#utility.yul\":9006:9010   */\n      0x00\n        /* \"#utility.yul\":9044:9046   */\n      0x20\n        /* \"#utility.yul\":9033:9042   */\n      dup3\n        /* \"#utility.yul\":9029:9047   */\n      add\n        /* \"#utility.yul\":9021:9047   */\n      swap1\n      pop\n        /* \"#utility.yul\":9093:9102   */\n      dup2\n        /* \"#utility.yul\":9087:9091   */\n      dup2\n        /* \"#utility.yul\":9083:9103   */\n      sub\n        /* \"#utility.yul\":9079:9080   */\n      0x00\n        /* \"#utility.yul\":9068:9077   */\n      dup4\n        /* \"#utility.yul\":9064:9081   */\n      add\n        /* \"#utility.yul\":9057:9104   */\n      mstore\n        /* \"#utility.yul\":9121:9252   */\n      tag_272\n        /* \"#utility.yul\":9247:9251   */\n      dup2\n        /* \"#utility.yul\":9121:9252   */\n      tag_139\n      jump\t// in\n    tag_272:\n        /* \"#utility.yul\":9113:9252   */\n      swap1\n      pop\n        /* \"#utility.yul\":8840:9259   */\n      swap2\n      swap1\n      pop\n      jump\t// out\n        /* \"#utility.yul\":9265:9445   */\n    tag_140:\n        /* \"#utility.yul\":9313:9390   */\n      0x4e487b7100000000000000000000000000000000000000000000000000000000\n        /* \"#utility.yul\":9310:9311   */\n      0x00\n        /* \"#utility.yul\":9303:9391   */\n      mstore\n        /* \"#utility.yul\":9410:9414   */\n      0x12\n        /* \"#utility.yul\":9407:9408   */\n      0x04\n        /* \"#utility.yul\":9400:9415   */\n      mstore\n        /* \"#utility.yul\":9434:9438   */\n      0x24\n        /* \"#utility.yul\":9431:9432   */\n      0x00\n        /* \"#utility.yul\":9424:9439   */\n      revert\n        /* \"#utility.yul\":9451:9631   */\n    tag_141:\n        /* \"#utility.yul\":9499:9576   */\n      0x4e487b7100000000000000000000000000000000000000000000000000000000\n        /* \"#utility.yul\":9496:9497   */\n      0x00\n        /* \"#utility.yul\":9489:9577   */\n      mstore\n        /* \"#utility.yul\":9596:9600   */\n      0x11\n        /* \"#utility.yul\":9593:9594   */\n      0x04\n        /* \"#utility.yul\":9586:9601   */\n      mstore\n        /* \"#utility.yul\":9620:9624   */\n      0x24\n        /* \"#utility.yul\":9617:9618   */\n      0x00\n        /* \"#utility.yul\":9610:9625   */\n      revert\n        /* \"#utility.yul\":9637:9822   */\n    tag_66:\n        /* \"#utility.yul\":9677:9678   */\n      0x00\n        /* \"#utility.yul\":9694:9714   */\n      tag_276\n        /* \"#utility.yul\":9712:9713   */\n      dup3\n        /* \"#utility.yul\":9694:9714   */\n      tag_109\n      jump\t// in\n    tag_276:\n        /* \"#utility.yul\":9689:9714   */\n      swap2\n      pop\n        /* \"#utility.yul\":9728:9748   */\n      tag_277\n        /* \"#utility.yul\":9746:9747   */\n      dup4\n        /* \"#utility.yul\":9728:9748   */\n      tag_109\n      jump\t// in\n    tag_277:\n        /* \"#utility.yul\":9723:9748   */\n      swap3\n      pop\n        /* \"#utility.yul\":9767:9768   */\n      dup3\n        /* \"#utility.yul\":9757:9792   */\n      tag_278\n      jumpi\n        /* \"#utility.yul\":9772:9790   */\n      tag_279\n      tag_140\n      jump\t// in\n    tag_279:\n        /* \"#utility.yul\":9757:9792   */\n    tag_278:\n        /* \"#utility.yul\":9814:9815   */\n      dup3\n        /* \"#utility.yul\":9811:9812   */\n      dup3\n        /* \"#utility.yul\":9807:9816   */\n      div\n        /* \"#utility.yul\":9802:9816   */\n      swap1\n      pop\n        /* \"#utility.yul\":9637:9822   */\n      swap3\n      swap2\n      pop\n      pop\n      jump\t// out\n        /* \"#utility.yul\":9828:9998   */\n    tag_142:\n        /* \"#utility.yul\":9968:9990   */\n      0x4e6f7420656e6f75676820617070726f76657273000000000000000000000000\n        /* \"#utility.yul\":9964:9965   */\n      0x00\n        /* \"#utility.yul\":9956:9962   */\n      dup3\n        /* \"#utility.yul\":9952:9966   */\n      add\n        /* \"#utility.yul\":9945:9991   */\n      mstore\n        /* \"#utility.yul\":9828:9998   */\n      pop\n      jump\t// out\n        /* \"#utility.yul\":10004:10370   */\n    tag_143:\n        /* \"#utility.yul\":10146:10149   */\n      0x00\n        /* \"#utility.yul\":10167:10234   */\n      tag_282\n        /* \"#utility.yul\":10231:10233   */\n      0x14\n        /* \"#utility.yul\":10226:10229   */\n      dup4\n        /* \"#utility.yul\":10167:10234   */\n      tag_120\n      jump\t// in\n    tag_282:\n        /* \"#utility.yul\":10160:10234   */\n      swap2\n      pop\n        /* \"#utility.yul\":10243:10336   */\n      tag_283\n        /* \"#utility.yul\":10332:10335   */\n      dup3\n        /* \"#utility.yul\":10243:10336   */\n      tag_142\n      jump\t// in\n    tag_283:\n        /* \"#utility.yul\":10361:10363   */\n      0x20\n        /* \"#utility.yul\":10356:10359   */\n      dup3\n        /* \"#utility.yul\":10352:10364   */\n      add\n        /* \"#utility.yul\":10345:10364   */\n      swap1\n      pop\n        /* \"#utility.yul\":10004:10370   */\n      swap2\n      swap1\n      pop\n      jump\t// out\n        /* \"#utility.yul\":10376:10795   */\n    tag_69:\n        /* \"#utility.yul\":10542:10546   */\n      0x00\n        /* \"#utility.yul\":10580:10582   */\n      0x20\n        /* \"#utility.yul\":10569:10578   */\n      dup3\n        /* \"#utility.yul\":10565:10583   */\n      add\n        /* \"#utility.yul\":10557:10583   */\n      swap1\n      pop\n        /* \"#utility.yul\":10629:10638   */\n      dup2\n        /* \"#utility.yul\":10623:10627   */\n      dup2\n        /* \"#utility.yul\":10619:10639   */\n      sub\n        /* \"#utility.yul\":10615:10616   */\n      0x00\n        /* \"#utility.yul\":10604:10613   */\n      dup4\n        /* \"#utility.yul\":10600:10617   */\n      add\n        /* \"#utility.yul\":10593:10640   */\n      mstore\n        /* \"#utility.yul\":10657:10788   */\n      tag_285\n        /* \"#utility.yul\":10783:10787   */\n      dup2\n        /* \"#utility.yul\":10657:10788   */\n      tag_143\n      jump\t// in\n    tag_285:\n        /* \"#utility.yul\":10649:10788   */\n      swap1\n      pop\n        /* \"#utility.yul\":10376:10795   */\n      swap2\n      swap1\n      pop\n      jump\t// out\n        /* \"#utility.yul\":10801:10976   */\n    tag_144:\n        /* \"#utility.yul\":10941:10968   */\n      0x5265717565737420616c72656164792066696e616c697a656400000000000000\n        /* \"#utility.yul\":10937:10938   */\n      0x00\n        /* \"#utility.yul\":10929:10935   */\n      dup3\n        /* \"#utility.yul\":10925:10939   */\n      add\n        /* \"#utility.yul\":10918:10969   */\n      mstore\n        /* \"#utility.yul\":10801:10976   */\n      pop\n      jump\t// out\n        /* \"#utility.yul\":10982:11348   */\n    tag_145:\n        /* \"#utility.yul\":11124:11127   */\n      0x00\n        /* \"#utility.yul\":11145:11212   */\n      tag_288\n        /* \"#utility.yul\":11209:11211   */\n      0x19\n        /* \"#utility.yul\":11204:11207   */\n      dup4\n        /* \"#utility.yul\":11145:11212   */\n      tag_120\n      jump\t// in\n    tag_288:\n        /* \"#utility.yul\":11138:11212   */\n      swap2\n      pop\n        /* \"#utility.yul\":11221:11314   */\n      tag_289\n        /* \"#utility.yul\":11310:11313   */\n      dup3\n        /* \"#utility.yul\":11221:11314   */\n      tag_144\n      jump\t// in\n    tag_289:\n        /* \"#utility.yul\":11339:11341   */\n      0x20\n        /* \"#utility.yul\":11334:11337   */\n      dup3\n        /* \"#utility.yul\":11330:11342   */\n      add\n        /* \"#utility.yul\":11323:11342   */\n      swap1\n      pop\n        /* \"#utility.yul\":10982:11348   */\n      swap2\n      swap1\n      pop\n      jump\t// out\n        /* \"#utility.yul\":11354:11773   */\n    tag_72:\n        /* \"#utility.yul\":11520:11524   */\n      0x00\n        /* \"#utility.yul\":11558:11560   */\n      0x20\n        /* \"#utility.yul\":11547:11556   */\n      dup3\n        /* \"#utility.yul\":11543:11561   */\n      add\n        /* \"#utility.yul\":11535:11561   */\n      swap1\n      pop\n        /* \"#utility.yul\":11607:11616   */\n      dup2\n        /* \"#utility.yul\":11601:11605   */\n      dup2\n        /* \"#utility.yul\":11597:11617   */\n      sub\n        /* \"#utility.yul\":11593:11594   */\n      0x00\n        /* \"#utility.yul\":11582:11591   */\n      dup4\n        /* \"#utility.yul\":11578:11595   */\n      add\n        /* \"#utility.yul\":11571:11618   */\n      mstore\n        /* \"#utility.yul\":11635:11766   */\n      tag_291\n        /* \"#utility.yul\":11761:11765   */\n      dup2\n        /* \"#utility.yul\":11635:11766   */\n      tag_145\n      jump\t// in\n    tag_291:\n        /* \"#utility.yul\":11627:11766   */\n      swap1\n      pop\n        /* \"#utility.yul\":11354:11773   */\n      swap2\n      swap1\n      pop\n      jump\t// out\n        /* \"#utility.yul\":11779:11959   */\n    tag_146:\n        /* \"#utility.yul\":11827:11904   */\n      0x4e487b7100000000000000000000000000000000000000000000000000000000\n        /* \"#utility.yul\":11824:11825   */\n      0x00\n        /* \"#utility.yul\":11817:11905   */\n      mstore\n        /* \"#utility.yul\":11924:11928   */\n      0x22\n        /* \"#utility.yul\":11921:11922   */\n      0x04\n        /* \"#utility.yul\":11914:11929   */\n      mstore\n        /* \"#utility.yul\":11948:11952   */\n      0x24\n        /* \"#utility.yul\":11945:11946   */\n      0x00\n        /* \"#utility.yul\":11938:11953   */\n      revert\n        /* \"#utility.yul\":11965:12285   */\n    tag_76:\n        /* \"#utility.yul\":12009:12015   */\n      0x00\n        /* \"#utility.yul\":12046:12047   */\n      0x02\n        /* \"#utility.yul\":12040:12044   */\n      dup3\n        /* \"#utility.yul\":12036:12048   */\n      div\n        /* \"#utility.yul\":12026:12048   */\n      swap1\n      pop\n        /* \"#utility.yul\":12093:12094   */\n      0x01\n        /* \"#utility.yul\":12087:12091   */\n      dup3\n        /* \"#utility.yul\":12083:12095   */\n      and\n        /* \"#utility.yul\":12114:12132   */\n      dup1\n        /* \"#utility.yul\":12104:12185   */\n      tag_294\n      jumpi\n        /* \"#utility.yul\":12170:12174   */\n      0x7f\n        /* \"#utility.yul\":12162:12168   */\n      dup3\n        /* \"#utility.yul\":12158:12175   */\n      and\n        /* \"#utility.yul\":12148:12175   */\n      swap2\n      pop\n        /* \"#utility.yul\":12104:12185   */\n    tag_294:\n        /* \"#utility.yul\":12232:12234   */\n      0x20\n        /* \"#utility.yul\":12224:12230   */\n      dup3\n        /* \"#utility.yul\":12221:12235   */\n      lt\n        /* \"#utility.yul\":12201:12219   */\n      dup2\n        /* \"#utility.yul\":12198:12236   */\n      sub\n        /* \"#utility.yul\":12195:12279   */\n      tag_295\n      jumpi\n        /* \"#utility.yul\":12251:12269   */\n      tag_296\n      tag_146\n      jump\t// in\n    tag_296:\n        /* \"#utility.yul\":12195:12279   */\n    tag_295:\n        /* \"#utility.yul\":12016:12285   */\n      pop\n        /* \"#utility.yul\":11965:12285   */\n      swap2\n      swap1\n      pop\n      jump\t// out\n        /* \"#utility.yul\":12291:12524   */\n    tag_86:\n        /* \"#utility.yul\":12330:12333   */\n      0x00\n        /* \"#utility.yul\":12353:12377   */\n      tag_298\n        /* \"#utility.yul\":12371:12376   */\n      dup3\n        /* \"#utility.yul\":12353:12377   */\n      tag_109\n      jump\t// in\n    tag_298:\n        /* \"#utility.yul\":12344:12377   */\n      swap2\n      pop\n        /* \"#utility.yul\":12399:12465   */\n      0xffffffffffffffffffffffffffffffffffffffffffffffffffffffffffffffff\n        /* \"#utility.yul\":12392:12397   */\n      dup3\n        /* \"#utility.yul\":12389:12466   */\n      sub\n        /* \"#utility.yul\":12386:12489   */\n      tag_299\n      jumpi\n        /* \"#utility.yul\":12469:12487   */\n      tag_300\n      tag_141\n      jump\t// in\n    tag_300:\n        /* \"#utility.yul\":12386:12489   */\n    tag_299:\n        /* \"#utility.yul\":12516:12517   */\n      0x01\n        /* \"#utility.yul\":12509:12514   */\n      dup3\n        /* \"#utility.yul\":12505:12518   */\n      add\n        /* \"#utility.yul\":12498:12518   */\n      swap1\n      pop\n        /* \"#utility.yul\":12291:12524   */\n      swap2\n      swap1\n      pop\n      jump\t// out\n        /* \"#utility.yul\":12530:12671   */\n    tag_147:\n        /* \"#utility.yul\":12579:12583   */\n      0x00\n        /* \"#utility.yul\":12602:12605   */\n      dup2\n        /* \"#utility.yul\":12594:12605   */\n      swap1\n      pop\n        /* \"#utility.yul\":12625:12628   */\n      dup2\n        /* \"#utility.yul\":12622:12623   */\n      0x00\n        /* \"#utility.yul\":12615:12629   */\n      mstore\n        /* \"#utility.yul\":12659:12663   */\n      0x20\n        /* \"#utility.yul\":12656:12657   */\n      0x00\n        /* \"#utility.yul\":12646:12664   */\n      keccak256\n        /* \"#utility.yul\":12638:12664   */\n      swap1\n      pop\n        /* \"#utility.yul\":12530:12671   */\n      swap2\n      swap1\n      pop\n      jump\t// out\n        /* \"#utility.yul\":12677:12770   */\n    tag_148:\n        /* \"#utility.yul\":12714:12720   */\n      0x00\n        /* \"#utility.yul\":12761:12763   */\n      0x20\n        /* \"#utility.yul\":12756:12758   */\n      0x1f\n        /* \"#utility.yul\":12749:12754   */\n      dup4\n        /* \"#utility.yul\":12745:12759   */\n      add\n        /* \"#utility.yul\":12741:12764   */\n      div\n        /* \"#utility.yul\":12731:12764   */\n      swap1\n      pop\n        /* \"#utility.yul\":12677:12770   */\n      swap2\n      swap1\n      pop\n      jump\t// out\n        /* \"#utility.yul\":12776:12883   */\n    tag_149:\n        /* \"#utility.yul\":12820:12828   */\n      0x00\n        /* \"#utility.yul\":12870:12875   */\n      dup3\n        /* \"#utility.yul\":12864:12868   */\n      dup3\n        /* \"#utility.yul\":12860:12876   */\n      shl\n        /* \"#utility.yul\":12839:12876   */\n      swap1\n      pop\n        /* \"#utility.yul\":12776:12883   */\n      swap3\n      swap2\n      pop\n      pop\n      jump\t// out\n        /* \"#utility.yul\":12889:13282   */\n    tag_150:\n        /* \"#utility.yul\":12958:12964   */\n      0x00\n        /* \"#utility.yul\":13008:13009   */\n      0x08\n        /* \"#utility.yul\":12996:13006   */\n      dup4\n        /* \"#utility.yul\":12992:13010   */\n      mul\n        /* \"#utility.yul\":13031:13128   */\n      tag_305\n        /* \"#utility.yul\":13061:13127   */\n      0xffffffffffffffffffffffffffffffffffffffffffffffffffffffffffffffff\n        /* \"#utility.yul\":13050:13059   */\n      dup3\n        /* \"#utility.yul\":13031:13128   */\n      tag_149\n      jump\t// in\n    tag_305:\n        /* \"#utility.yul\":13149:13188   */\n      tag_306\n        /* \"#utility.yul\":13179:13187   */\n      dup7\n        /* \"#utility.yul\":13168:13177   */\n      dup4\n        /* \"#utility.yul\":13149:13188   */\n      tag_149\n      jump\t// in\n    tag_306:\n        /* \"#utility.yul\":13137:13188   */\n      swap6\n      pop\n        /* \"#utility.yul\":13221:13225   */\n      dup1\n        /* \"#utility.yul\":13217:13226   */\n      not\n        /* \"#utility.yul\":13210:13215   */\n      dup5\n        /* \"#utility.yul\":13206:13227   */\n      and\n        /* \"#utility.yul\":13197:13227   */\n      swap4\n      pop\n        /* \"#utility.yul\":13270:13274   */\n      dup1\n        /* \"#utility.yul\":13260:13268   */\n      dup7\n        /* \"#utility.yul\":13256:13275   */\n      and\n        /* \"#utility.yul\":13249:13254   */\n      dup5\n        /* \"#utility.yul\":13246:13276   */\n      or\n        /* \"#utility.yul\":13236:13276   */\n      swap3\n      pop\n        /* \"#utility.yul\":12965:13282   */\n      pop\n      pop\n        /* \"#utility.yul\":12889:13282   */\n      swap4\n      swap3\n      pop\n      pop\n      pop\n      jump\t// out\n        /* \"#utility.yul\":13288:13348   */\n    tag_151:\n        /* \"#utility.yul\":13316:13319   */\n      0x00\n        /* \"#utility.yul\":13337:13342   */\n      dup2\n        /* \"#utility.yul\":13330:13342   */\n      swap1\n      pop\n        /* \"#utility.yul\":13288:13348   */\n      swap2\n      swap1\n      pop\n      jump\t// out\n        /* \"#utility.yul\":13354:13496   */\n    tag_152:\n        /* \"#utility.yul\":13404:13413   */\n      0x00\n        /* \"#utility.yul\":13437:13490   */\n      tag_309\n        /* \"#utility.yul\":13455:13489   */\n      tag_310\n        /* \"#utility.yul\":13464:13488   */\n      tag_311\n        /* \"#utility.yul\":13482:13487   */\n      dup5\n        /* \"#utility.yul\":13464:13488   */\n      tag_109\n      jump\t// in\n    tag_311:\n        /* \"#utility.yul\":13455:13489   */\n      tag_151\n      jump\t// in\n    tag_310:\n        /* \"#utility.yul\":13437:13490   */\n      tag_109\n      jump\t// in\n    tag_309:\n        /* \"#utility.yul\":13424:13490   */\n      swap1\n      pop\n        /* \"#utility.yul\":13354:13496   */\n      swap2\n      swap1\n      pop\n      jump\t// out\n        /* \"#utility.yul\":13502:13577   */\n    tag_153:\n        /* \"#utility.yul\":13545:13548   */\n      0x00\n        /* \"#utility.yul\":13566:13571   */\n      dup2\n        /* \"#utility.yul\":13559:13571   */\n      swap1\n      pop\n        /* \"#utility.yul\":13502:13577   */\n      swap2\n      swap1\n      pop\n      jump\t// out\n        /* \"#utility.yul\":13583:13852   */\n    tag_154:\n        /* \"#utility.yul\":13693:13732   */\n      tag_314\n        /* \"#utility.yul\":13724:13731   */\n      dup4\n        /* \"#utility.yul\":13693:13732   */\n      tag_152\n      jump\t// in\n    tag_314:\n        /* \"#utility.yul\":13754:13845   */\n      tag_315\n        /* \"#utility.yul\":13803:13844   */\n      tag_316\n        /* \"#utility.yul\":13827:13843   */\n      dup3\n        /* \"#utility.yul\":13803:13844   */\n      tag_153\n      jump\t// in\n    tag_316:\n        /* \"#utility.yul\":13795:13801   */\n      dup5\n        /* \"#utility.yul\":13788:13792   */\n      dup5\n        /* \"#utility.yul\":13782:13793   */\n      sload\n        /* \"#utility.yul\":13754:13845   */\n      tag_150\n      jump\t// in\n    tag_315:\n        /* \"#utility.yul\":13748:13752   */\n      dup3\n        /* \"#utility.yul\":13741:13846   */\n      sstore\n        /* \"#utility.yul\":13659:13852   */\n      pop\n        /* \"#utility.yul\":13583:13852   */\n      pop\n      pop\n      pop\n      jump\t// out\n        /* \"#utility.yul\":13858:13931   */\n    tag_155:\n        /* \"#utility.yul\":13903:13906   */\n      0x00\n        /* \"#utility.yul\":13858:13931   */\n      swap1\n      jump\t// out\n        /* \"#utility.yul\":13937:14126   */\n    tag_156:\n        /* \"#utility.yul\":14014:14046   */\n      tag_319\n      tag_155\n      jump\t// in\n    tag_319:\n        /* \"#utility.yul\":14055:14120   */\n      tag_320\n        /* \"#utility.yul\":14113:14119   */\n      dup2\n        /* \"#utility.yul\":14105:14111   */\n      dup5\n        /* \"#utility.yul\":14099:14103   */\n      dup5\n        /* \"#utility.yul\":14055:14120   */\n      tag_154\n      jump\t// in\n    tag_320:\n        /* \"#utility.yul\":13990:14126   */\n      pop\n        /* \"#utility.yul\":13937:14126   */\n      pop\n      pop\n      jump\t// out\n        /* \"#utility.yul\":14132:14318   */\n    tag_157:\n        /* \"#utility.yul\":14192:14312   */\n    tag_322:\n        /* \"#utility.yul\":14209:14212   */\n      dup2\n        /* \"#utility.yul\":14202:14207   */\n      dup2\n        /* \"#utility.yul\":14199:14213   */\n      lt\n        /* \"#utility.yul\":14192:14312   */\n      iszero\n      tag_324\n      jumpi\n        /* \"#utility.yul\":14263:14302   */\n      tag_325\n        /* \"#utility.yul\":14300:14301   */\n      0x00\n        /* \"#utility.yul\":14293:14298   */\n      dup3\n        /* \"#utility.yul\":14263:14302   */\n      tag_156\n      jump\t// in\n    tag_325:\n        /* \"#utility.yul\":14236:14237   */\n      0x01\n        /* \"#utility.yul\":14229:14234   */\n      dup2\n        /* \"#utility.yul\":14225:14238   */\n      add\n        /* \"#utility.yul\":14216:14238   */\n      swap1\n      pop\n        /* \"#utility.yul\":14192:14312   */\n      jump(tag_322)\n    tag_324:\n        /* \"#utility.yul\":14132:14318   */\n      pop\n      pop\n      jump\t// out\n        /* \"#utility.yul\":14324:14867   */\n    tag_158:\n        /* \"#utility.yul\":14425:14427   */\n      0x1f\n        /* \"#utility.yul\":14420:14423   */\n      dup3\n        /* \"#utility.yul\":14417:14428   */\n      gt\n        /* \"#utility.yul\":14414:14860   */\n      iszero\n      tag_327\n      jumpi\n        /* \"#utility.yul\":14459:14497   */\n      tag_328\n        /* \"#utility.yul\":14491:14496   */\n      dup2\n        /* \"#utility.yul\":14459:14497   */\n      tag_147\n      jump\t// in\n    tag_328:\n        /* \"#utility.yul\":14543:14572   */\n      tag_329\n        /* \"#utility.yul\":14561:14571   */\n      dup5\n        /* \"#utility.yul\":14543:14572   */\n      tag_148\n      jump\t// in\n    tag_329:\n        /* \"#utility.yul\":14533:14541   */\n      dup2\n        /* \"#utility.yul\":14529:14573   */\n      add\n        /* \"#utility.yul\":14726:14728   */\n      0x20\n        /* \"#utility.yul\":14714:14724   */\n      dup6\n        /* \"#utility.yul\":14711:14729   */\n      lt\n        /* \"#utility.yul\":14708:14757   */\n      iszero\n      tag_330\n      jumpi\n        /* \"#utility.yul\":14747:14755   */\n      dup2\n        /* \"#utility.yul\":14732:14755   */\n      swap1\n      pop\n        /* \"#utility.yul\":14708:14757   */\n    tag_330:\n        /* \"#utility.yul\":14770:14850   */\n      tag_331\n        /* \"#utility.yul\":14826:14848   */\n      tag_332\n        /* \"#utility.yul\":14844:14847   */\n      dup6\n        /* \"#utility.yul\":14826:14848   */\n      tag_148\n      jump\t// in\n    tag_332:\n        /* \"#utility.yul\":14816:14824   */\n      dup4\n        /* \"#utility.yul\":14812:14849   */\n      add\n        /* \"#utility.yul\":14799:14810   */\n      dup3\n        /* \"#utility.yul\":14770:14850   */\n      tag_157\n      jump\t// in\n    tag_331:\n        /* \"#utility.yul\":14429:14860   */\n      pop\n      pop\n        /* \"#utility.yul\":14414:14860   */\n    tag_327:\n        /* \"#utility.yul\":14324:14867   */\n      pop\n      pop\n      pop\n      jump\t// out\n        /* \"#utility.yul\":14873:14990   */\n    tag_159:\n        /* \"#utility.yul\":14927:14935   */\n      0x00\n        /* \"#utility.yul\":14977:14982   */\n      dup3\n        /* \"#utility.yul\":14971:14975   */\n      dup3\n        /* \"#utility.yul\":14967:14983   */\n      shr\n        /* \"#utility.yul\":14946:14983   */\n      swap1\n      pop\n        /* \"#utility.yul\":14873:14990   */\n      swap3\n      swap2\n      pop\n      pop\n      jump\t// out\n        /* \"#utility.yul\":14996:15165   */\n    tag_160:\n        /* \"#utility.yul\":15040:15046   */\n      0x00\n        /* \"#utility.yul\":15073:15124   */\n      tag_335\n        /* \"#utility.yul\":15121:15122   */\n      0x00\n        /* \"#utility.yul\":15117:15123   */\n      not\n        /* \"#utility.yul\":15109:15114   */\n      dup5\n        /* \"#utility.yul\":15106:15107   */\n      0x08\n        /* \"#utility.yul\":15102:15115   */\n      mul\n        /* \"#utility.yul\":15073:15124   */\n      tag_159\n      jump\t// in\n    tag_335:\n        /* \"#utility.yul\":15069:15125   */\n      not\n        /* \"#utility.yul\":15154:15158   */\n      dup1\n        /* \"#utility.yul\":15148:15152   */\n      dup4\n        /* \"#utility.yul\":15144:15159   */\n      and\n        /* \"#utility.yul\":15134:15159   */\n      swap2\n      pop\n        /* \"#utility.yul\":15047:15165   */\n      pop\n        /* \"#utility.yul\":14996:15165   */\n      swap3\n      swap2\n      pop\n      pop\n      jump\t// out\n        /* \"#utility.yul\":15170:15465   */\n    tag_161:\n        /* \"#utility.yul\":15246:15250   */\n      0x00\n        /* \"#utility.yul\":15392:15421   */\n      tag_337\n        /* \"#utility.yul\":15417:15420   */\n      dup4\n        /* \"#utility.yul\":15411:15415   */\n      dup4\n        /* \"#utility.yul\":15392:15421   */\n      tag_160\n      jump\t// in\n    tag_337:\n        /* \"#utility.yul\":15384:15421   */\n      swap2\n      pop\n        /* \"#utility.yul\":15454:15457   */\n      dup3\n        /* \"#utility.yul\":15451:15452   */\n      0x02\n        /* \"#utility.yul\":15447:15458   */\n      mul\n        /* \"#utility.yul\":15441:15445   */\n      dup3\n        /* \"#utility.yul\":15438:15459   */\n      or\n        /* \"#utility.yul\":15430:15459   */\n      swap1\n      pop\n        /* \"#utility.yul\":15170:15465   */\n      swap3\n      swap2\n      pop\n      pop\n      jump\t// out\n        /* \"#utility.yul\":15470:16865   */\n    tag_88:\n        /* \"#utility.yul\":15587:15624   */\n      tag_339\n        /* \"#utility.yul\":15620:15623   */\n      dup3\n        /* \"#utility.yul\":15587:15624   */\n      tag_119\n      jump\t// in\n    tag_339:\n        /* \"#utility.yul\":15689:15707   */\n      0xffffffffffffffff\n        /* \"#utility.yul\":15681:15687   */\n      dup2\n        /* \"#utility.yul\":15678:15708   */\n      gt\n        /* \"#utility.yul\":15675:15731   */\n      iszero\n      tag_340\n      jumpi\n        /* \"#utility.yul\":15711:15729   */\n      tag_341\n      tag_129\n      jump\t// in\n    tag_341:\n        /* \"#utility.yul\":15675:15731   */\n    tag_340:\n        /* \"#utility.yul\":15755:15793   */\n      tag_342\n        /* \"#utility.yul\":15787:15791   */\n      dup3\n        /* \"#utility.yul\":15781:15792   */\n      sload\n        /* \"#utility.yul\":15755:15793   */\n      tag_76\n      jump\t// in\n    tag_342:\n        /* \"#utility.yul\":15840:15907   */\n      tag_343\n        /* \"#utility.yul\":15900:15906   */\n      dup3\n        /* \"#utility.yul\":15892:15898   */\n      dup3\n        /* \"#utility.yul\":15886:15890   */\n      dup6\n        /* \"#utility.yul\":15840:15907   */\n      tag_158\n      jump\t// in\n    tag_343:\n        /* \"#utility.yul\":15934:15935   */\n      0x00\n        /* \"#utility.yul\":15958:15962   */\n      0x20\n        /* \"#utility.yul\":15945:15962   */\n      swap1\n      pop\n        /* \"#utility.yul\":15990:15992   */\n      0x1f\n        /* \"#utility.yul\":15982:15988   */\n      dup4\n        /* \"#utility.yul\":15979:15993   */\n      gt\n        /* \"#utility.yul\":16007:16008   */\n      0x01\n        /* \"#utility.yul\":16002:16620   */\n      dup2\n      eq\n      tag_345\n      jumpi\n        /* \"#utility.yul\":16664:16665   */\n      0x00\n        /* \"#utility.yul\":16681:16687   */\n      dup5\n        /* \"#utility.yul\":16678:16755   */\n      iszero\n      tag_346\n      jumpi\n        /* \"#utility.yul\":16730:16739   */\n      dup3\n        /* \"#utility.yul\":16725:16728   */\n      dup8\n        /* \"#utility.yul\":16721:16740   */\n      add\n        /* \"#utility.yul\":16715:16741   */\n      mload\n        /* \"#utility.yul\":16706:16741   */\n      swap1\n      pop\n        /* \"#utility.yul\":16678:16755   */\n    tag_346:\n        /* \"#utility.yul\":16781:16848   */\n      tag_347\n        /* \"#utility.yul\":16841:16847   */\n      dup6\n        /* \"#utility.yul\":16834:16839   */\n      dup3\n        /* \"#utility.yul\":16781:16848   */\n      tag_161\n      jump\t// in\n    tag_347:\n        /* \"#utility.yul\":16775:16779   */\n      dup7\n        /* \"#utility.yul\":16768:16849   */\n      sstore\n        /* \"#utility.yul\":16637:16859   */\n      pop\n        /* \"#utility.yul\":15972:16859   */\n      jump(tag_344)\n        /* \"#utility.yul\":16002:16620   */\n    tag_345:\n        /* \"#utility.yul\":16054:16058   */\n      0x1f\n        /* \"#utility.yul\":16050:16059   */\n      not\n        /* \"#utility.yul\":16042:16048   */\n      dup5\n        /* \"#utility.yul\":16038:16060   */\n      and\n        /* \"#utility.yul\":16088:16125   */\n      tag_348\n        /* \"#utility.yul\":16120:16124   */\n      dup7\n        /* \"#utility.yul\":16088:16125   */\n      tag_147\n      jump\t// in\n    tag_348:\n        /* \"#utility.yul\":16147:16148   */\n      0x00\n        /* \"#utility.yul\":16161:16369   */\n    tag_349:\n        /* \"#utility.yul\":16175:16182   */\n      dup3\n        /* \"#utility.yul\":16172:16173   */\n      dup2\n        /* \"#utility.yul\":16169:16183   */\n      lt\n        /* \"#utility.yul\":16161:16369   */\n      iszero\n      tag_351\n      jumpi\n        /* \"#utility.yul\":16254:16263   */\n      dup5\n        /* \"#utility.yul\":16249:16252   */\n      dup10\n        /* \"#utility.yul\":16245:16264   */\n      add\n        /* \"#utility.yul\":16239:16265   */\n      mload\n        /* \"#utility.yul\":16231:16237   */\n      dup3\n        /* \"#utility.yul\":16224:16266   */\n      sstore\n        /* \"#utility.yul\":16305:16306   */\n      0x01\n        /* \"#utility.yul\":16297:16303   */\n      dup3\n        /* \"#utility.yul\":16293:16307   */\n      add\n        /* \"#utility.yul\":16283:16307   */\n      swap2\n      pop\n        /* \"#utility.yul\":16352:16354   */\n      0x20\n        /* \"#utility.yul\":16341:16350   */\n      dup6\n        /* \"#utility.yul\":16337:16355   */\n      add\n        /* \"#utility.yul\":16324:16355   */\n      swap5\n      pop\n        /* \"#utility.yul\":16198:16202   */\n      0x20\n        /* \"#utility.yul\":16195:16196   */\n      dup2\n        /* \"#utility.yul\":16191:16203   */\n      add\n        /* \"#utility.yul\":16186:16203   */\n      swap1\n      pop\n        /* \"#utility.yul\":16161:16369   */\n      jump(tag_349)\n    tag_351:\n        /* \"#utility.yul\":16397:16403   */\n      dup7\n        /* \"#utility.yul\":16388:16395   */\n      dup4\n        /* \"#utility.yul\":16385:16404   */\n      lt\n        /* \"#utility.yul\":16382:16561   */\n      iszero\n      tag_352\n      jumpi\n        /* \"#utility.yul\":16455:16464   */\n      dup5\n        /* \"#utility.yul\":16450:16453   */\n      dup10\n        /* \"#utility.yul\":16446:16465   */\n      add\n        /* \"#utility.yul\":16440:16466   */\n      mload\n        /* \"#utility.yul\":16498:16546   */\n      tag_353\n        /* \"#utility.yul\":16540:16544   */\n      0x1f\n        /* \"#utility.yul\":16532:16538   */\n      dup10\n        /* \"#utility.yul\":16528:16545   */\n      and\n        /* \"#utility.yul\":16517:16526   */\n      dup3\n        /* \"#utility.yul\":16498:16546   */\n      tag_160\n      jump\t// in\n    tag_353:\n        /* \"#utility.yul\":16490:16496   */\n      dup4\n        /* \"#utility.yul\":16483:16547   */\n      sstore\n        /* \"#utility.yul\":16405:16561   */\n      pop\n        /* \"#utility.yul\":16382:16561   */\n    tag_352:\n        /* \"#utility.yul\":16607:16608   */\n      0x01\n        /* \"#utility.yul\":16603:16604   */\n      0x02\n        /* \"#utility.yul\":16595:16601   */\n      dup9\n        /* \"#utility.yul\":16591:16605   */\n      mul\n        /* \"#utility.yul\":16587:16609   */\n      add\n        /* \"#utility.yul\":16581:16585   */\n      dup9\n        /* \"#utility.yul\":16574:16610   */\n      sstore\n        /* \"#utility.yul\":16009:16620   */\n      pop\n      pop\n      pop\n        /* \"#utility.yul\":15972:16859   */\n    tag_344:\n      pop\n        /* \"#utility.yul\":15562:16865   */\n      pop\n      pop\n      pop\n        /* \"#utility.yul\":15470:16865   */\n      pop\n      pop\n      jump\t// out\n        /* \"#utility.yul\":16871:17093   */\n    tag_162:\n        /* \"#utility.yul\":17011:17045   */\n      0x546865206d696e696d756d20636f6e747269627574696f6e206973206e6f7420\n        /* \"#utility.yul\":17007:17008   */\n      0x00\n        /* \"#utility.yul\":16999:17005   */\n      dup3\n        /* \"#utility.yul\":16995:17009   */\n      add\n        /* \"#utility.yul\":16988:17046   */\n      mstore\n        /* \"#utility.yul\":17080:17085   */\n      0x6d65740000000000000000000000000000000000000000000000000000000000\n        /* \"#utility.yul\":17075:17077   */\n      0x20\n        /* \"#utility.yul\":17067:17073   */\n      dup3\n        /* \"#utility.yul\":17063:17078   */\n      add\n        /* \"#utility.yul\":17056:17086   */\n      mstore\n        /* \"#utility.yul\":16871:17093   */\n      pop\n      jump\t// out\n        /* \"#utility.yul\":17099:17465   */\n    tag_163:\n        /* \"#utility.yul\":17241:17244   */\n      0x00\n        /* \"#utility.yul\":17262:17329   */\n      tag_356\n        /* \"#utility.yul\":17326:17328   */\n      0x23\n        /* \"#utility.yul\":17321:17324   */\n      dup4\n        /* \"#utility.yul\":17262:17329   */\n      tag_120\n      jump\t// in\n    tag_356:\n        /* \"#utility.yul\":17255:17329   */\n      swap2\n      pop\n        /* \"#utility.yul\":17338:17431   */\n      tag_357\n        /* \"#utility.yul\":17427:17430   */\n      dup3\n        /* \"#utility.yul\":17338:17431   */\n      tag_162\n      jump\t// in\n    tag_357:\n        /* \"#utility.yul\":17456:17458   */\n      0x40\n        /* \"#utility.yul\":17451:17454   */\n      dup3\n        /* \"#utility.yul\":17447:17459   */\n      add\n        /* \"#utility.yul\":17440:17459   */\n      swap1\n      pop\n        /* \"#utility.yul\":17099:17465   */\n      swap2\n      swap1\n      pop\n      jump\t// out\n        /* \"#utility.yul\":17471:17890   */\n    tag_92:\n        /* \"#utility.yul\":17637:17641   */\n      0x00\n        /* \"#utility.yul\":17675:17677   */\n      0x20\n        /* \"#utility.yul\":17664:17673   */\n      dup3\n        /* \"#utility.yul\":17660:17678   */\n      add\n        /* \"#utility.yul\":17652:17678   */\n      swap1\n      pop\n        /* \"#utility.yul\":17724:17733   */\n      dup2\n        /* \"#utility.yul\":17718:17722   */\n      dup2\n        /* \"#utility.yul\":17714:17734   */\n      sub\n        /* \"#utility.yul\":17710:17711   */\n      0x00\n        /* \"#utility.yul\":17699:17708   */\n      dup4\n        /* \"#utility.yul\":17695:17712   */\n      add\n        /* \"#utility.yul\":17688:17735   */\n      mstore\n        /* \"#utility.yul\":17752:17883   */\n      tag_359\n        /* \"#utility.yul\":17878:17882   */\n      dup2\n        /* \"#utility.yul\":17752:17883   */\n      tag_163\n      jump\t// in\n    tag_359:\n        /* \"#utility.yul\":17744:17883   */\n      swap1\n      pop\n        /* \"#utility.yul\":17471:17890   */\n      swap2\n      swap1\n      pop\n      jump\t// out\n        /* \"#utility.yul\":17896:18061   */\n    tag_164:\n        /* \"#utility.yul\":18036:18053   */\n      0x4e6f7420616e20617070726f7665720000000000000000000000000000000000\n        /* \"#utility.yul\":18032:18033   */\n      0x00\n        /* \"#utility.yul\":18024:18030   */\n      dup3\n        /* \"#utility.yul\":18020:18034   */\n      add\n        /* \"#utility.yul\":18013:18054   */\n      mstore\n        /* \"#utility.yul\":17896:18061   */\n      pop\n      jump\t// out\n        /* \"#utility.yul\":18067:18433   */\n    tag_165:\n        /* \"#utility.yul\":18209:18212   */\n      0x00\n        /* \"#utility.yul\":18230:18297   */\n      tag_362\n        /* \"#utility.yul\":18294:18296   */\n      0x0f\n        /* \"#utility.yul\":18289:18292   */\n      dup4\n        /* \"#utility.yul\":18230:18297   */\n      tag_120\n      jump\t// in\n    tag_362:\n        /* \"#utility.yul\":18223:18297   */\n      swap2\n      pop\n        /* \"#utility.yul\":18306:18399   */\n      tag_363\n        /* \"#utility.yul\":18395:18398   */\n      dup3\n        /* \"#utility.yul\":18306:18399   */\n      tag_164\n      jump\t// in\n    tag_363:\n        /* \"#utility.yul\":18424:18426   */\n      0x20\n        /* \"#utility.yul\":18419:18422   */\n      dup3\n        /* \"#utility.yul\":18415:18427   */\n      add\n        /* \"#utility.yul\":18408:18427   */\n      swap1\n      pop\n        /* \"#utility.yul\":18067:18433   */\n      swap2\n      swap1\n      pop\n      jump\t// out\n        /* \"#utility.yul\":18439:18858   */\n    tag_101:\n        /* \"#utility.yul\":18605:18609   */\n      0x00\n        /* \"#utility.yul\":18643:18645   */\n      0x20\n        /* \"#utility.yul\":18632:18641   */\n      dup3\n        /* \"#utility.yul\":18628:18646   */\n      add\n        /* \"#utility.yul\":18620:18646   */\n      swap1\n      pop\n        /* \"#utility.yul\":18692:18701   */\n      dup2\n        /* \"#utility.yul\":18686:18690   */\n      dup2\n        /* \"#utility.yul\":18682:18702   */\n      sub\n        /* \"#utility.yul\":18678:18679   */\n      0x00\n        /* \"#utility.yul\":18667:18676   */\n      dup4\n        /* \"#utility.yul\":18663:18680   */\n      add\n        /* \"#utility.yul\":18656:18703   */\n      mstore\n        /* \"#utility.yul\":18720:18851   */\n      tag_365\n        /* \"#utility.yul\":18846:18850   */\n      dup2\n        /* \"#utility.yul\":18720:18851   */\n      tag_165\n      jump\t// in\n    tag_365:\n        /* \"#utility.yul\":18712:18851   */\n      swap1\n      pop\n        /* \"#utility.yul\":18439:18858   */\n      swap2\n      swap1\n      pop\n      jump\t// out\n        /* \"#utility.yul\":18864:19030   */\n    tag_166:\n        /* \"#utility.yul\":19004:19022   */\n      0x416c726561647920617070726f76656400000000000000000000000000000000\n        /* \"#utility.yul\":19000:19001   */\n      0x00\n        /* \"#utility.yul\":18992:18998   */\n      dup3\n        /* \"#utility.yul\":18988:19002   */\n      add\n        /* \"#utility.yul\":18981:19023   */\n      mstore\n        /* \"#utility.yul\":18864:19030   */\n      pop\n      jump\t// out\n        /* \"#utility.yul\":19036:19402   */\n    tag_167:\n        /* \"#utility.yul\":19178:19181   */\n      0x00\n        /* \"#utility.yul\":19199:19266   */\n      tag_368\n        /* \"#utility.yul\":19263:19265   */\n      0x10\n        /* \"#utility.yul\":19258:19261   */\n      dup4\n        /* \"#utility.yul\":19199:19266   */\n      tag_120\n      jump\t// in\n    tag_368:\n        /* \"#utility.yul\":19192:19266   */\n      swap2\n      pop\n        /* \"#utility.yul\":19275:19368   */\n      tag_369\n        /* \"#utility.yul\":19364:19367   */\n      dup3\n        /* \"#utility.yul\":19275:19368   */\n      tag_166\n      jump\t// in\n    tag_369:\n        /* \"#utility.yul\":19393:19395   */\n      0x20\n        /* \"#utility.yul\":19388:19391   */\n      dup3\n        /* \"#utility.yul\":19384:19396   */\n      add\n        /* \"#utility.yul\":19377:19396   */\n      swap1\n      pop\n        /* \"#utility.yul\":19036:19402   */\n      swap2\n      swap1\n      pop\n      jump\t// out\n        /* \"#utility.yul\":19408:19827   */\n    tag_104:\n        /* \"#utility.yul\":19574:19578   */\n      0x00\n        /* \"#utility.yul\":19612:19614   */\n      0x20\n        /* \"#utility.yul\":19601:19610   */\n      dup3\n        /* \"#utility.yul\":19597:19615   */\n      add\n        /* \"#utility.yul\":19589:19615   */\n      swap1\n      pop\n        /* \"#utility.yul\":19661:19670   */\n      dup2\n        /* \"#utility.yul\":19655:19659   */\n      dup2\n        /* \"#utility.yul\":19651:19671   */\n      sub\n        /* \"#utility.yul\":19647:19648   */\n      0x00\n        /* \"#utility.yul\":19636:19645   */\n      dup4\n        /* \"#utility.yul\":19632:19649   */\n      add\n        /* \"#utility.yul\":19625:19672   */\n      mstore\n        /* \"#utility.yul\":19689:19820   */\n      tag_371\n        /* \"#utility.yul\":19815:19819   */\n      dup2\n        /* \"#utility.yul\":19689:19820   */\n      tag_167\n      jump\t// in\n    tag_371:\n        /* \"#utility.yul\":19681:19820   */\n      swap1\n      pop\n        /* \"#utility.yul\":19408:19827   */\n      swap2\n      swap1\n      pop\n      jump\t// out\n\n    auxdata: 0xa264697066735822122046a1ea34c17a49815994bf691ef5b241d3c7bbf1f56ef7c47c45068cfae637d364736f6c63430008140033\n}\n","bytecode":{"linkReferences":{},"object":"608060405234801562000010575f80fd5b50604051620015e3380380620015e3833981810160405281019062000036919062000122565b8060015f6101000a81548173ffffffffffffffffffffffffffffffffffffffff021916908373ffffffffffffffffffffffffffffffffffffffff16021790555081600381905550505062000167565b5f80fd5b5f819050919050565b6200009d8162000089565b8114620000a8575f80fd5b50565b5f81519050620000bb8162000092565b92915050565b5f73ffffffffffffffffffffffffffffffffffffffff82169050919050565b5f620000ec82620000c1565b9050919050565b620000fe81620000e0565b811462000109575f80fd5b50565b5f815190506200011c81620000f3565b92915050565b5f80604083850312156200013b576200013a62000085565b5b5f6200014a85828601620000ab565b92505060206200015d858286016200010c565b9150509250929050565b61146e80620001755f395ff3fe608060405260043610610090575f3560e01c80638a9cfd55116100585780638a9cfd551461018c578063937e09b1146101b45780639fb42b1f146101de578063d7bb99ba14610208578063d7d1bbdb1461021257610090565b806303441006146100945780630a144391146100bc578063481c6a75146100f857806381d12c581461012257806382fde09314610162575b5f80fd5b34801561009f575f80fd5b506100ba60048036038101906100b59190610a11565b61023a565b005b3480156100c7575f80fd5b506100e260048036038101906100dd9190610a96565b61040e565b6040516100ef9190610adb565b60405180910390f35b348015610103575f80fd5b5061010c61042b565b6040516101199190610b03565b60405180910390f35b34801561012d575f80fd5b5061014860048036038101906101439190610a11565b610450565b604051610159959493929190610bd5565b60405180910390f35b34801561016d575f80fd5b50610176610533565b6040516101839190610c2d565b60405180910390f35b348015610197575f80fd5b506101b260048036038101906101ad9190610d9c565b610539565b005b3480156101bf575f80fd5b506101c8610677565b6040516101d59190610c2d565b60405180910390f35b3480156101e9575f80fd5b506101f261067d565b6040516101ff9190610c2d565b60405180910390f35b610210610683565b005b34801561021d575f80fd5b5061023860048036038101906102339190610a11565b610784565b005b60015f9054906101000a900473ffffffffffffffffffffffffffffffffffffffff1673ffffffffffffffffffffffffffffffffffffffff163373ffffffffffffffffffffffffffffffffffffffff16146102c9576040517f08c379a00000000000000000000000000000000000000000000000000000000081526004016102c090610e52565b60405180910390fd5b5f805f8381526020019081526020015f20905060026004546102eb9190610eca565b816003015411610330576040517f08c379a000000000000000000000000000000000000000000000000000000000815260040161032790610f44565b60405180910390fd5b8060020160149054906101000a900460ff1615610382576040517f08c379a000000000000000000000000000000000000000000000000000000000815260040161037990610fac565b60405180910390fd5b806002015f9054906101000a900473ffffffffffffffffffffffffffffffffffffffff1673ffffffffffffffffffffffffffffffffffffffff166108fc826001015490811502906040515f60405180830381858888f193505050501580156103ec573d5f803e3d5ffd5b5060018160020160146101000a81548160ff0219169083151502179055505050565b6005602052805f5260405f205f915054906101000a900460ff1681565b60015f9054906101000a900473ffffffffffffffffffffffffffffffffffffffff1681565b5f602052805f5260405f205f91509050805f01805461046e90610ff7565b80601f016020809104026020016040519081016040528092919081815260200182805461049a90610ff7565b80156104e55780601f106104bc576101008083540402835291602001916104e5565b820191905f5260205f20905b8154815290600101906020018083116104c857829003601f168201915b505050505090806001015490806002015f9054906101000a900473ffffffffffffffffffffffffffffffffffffffff16908060020160149054906101000a900460ff16908060030154905085565b60045481565b60015f9054906101000a900473ffffffffffffffffffffffffffffffffffffffff1673ffffffffffffffffffffffffffffffffffffffff163373ffffffffffffffffffffffffffffffffffffffff16146105c8576040517f08c379a00000000000000000000000000000000000000000000000000000000081526004016105bf90610e52565b60405180910390fd5b5f805f60025f8154809291906105dd90611027565b9190505581526020019081526020015f20905083815f019081610600919061120b565b5082816001018190555081816002015f6101000a81548173ffffffffffffffffffffffffffffffffffffffff021916908373ffffffffffffffffffffffffffffffffffffffff1602179055505f8160020160146101000a81548160ff0219169083151502179055505f816003018190555050505050565b60035481565b60025481565b60035434116106c7576040517f08c379a00000000000000000000000000000000000000000000000000000000081526004016106be9061134a565b60405180910390fd5b60055f3373ffffffffffffffffffffffffffffffffffffffff1673ffffffffffffffffffffffffffffffffffffffff1681526020019081526020015f205f9054906101000a900460ff1661078257600160055f3373ffffffffffffffffffffffffffffffffffffffff1673ffffffffffffffffffffffffffffffffffffffff1681526020019081526020015f205f6101000a81548160ff02191690831515021790555060045f81548092919061077c90611027565b91905055505b565b60015f9054906101000a900473ffffffffffffffffffffffffffffffffffffffff1673ffffffffffffffffffffffffffffffffffffffff163373ffffffffffffffffffffffffffffffffffffffff1614610813576040517f08c379a000000000000000000000000000000000000000000000000000000000815260040161080a90610e52565b60405180910390fd5b5f805f8381526020019081526020015f20905060055f3373ffffffffffffffffffffffffffffffffffffffff1673ffffffffffffffffffffffffffffffffffffffff1681526020019081526020015f205f9054906101000a900460ff166108af576040517f08c379a00000000000000000000000000000000000000000000000000000000081526004016108a6906113b2565b60405180910390fd5b806004015f3373ffffffffffffffffffffffffffffffffffffffff1673ffffffffffffffffffffffffffffffffffffffff1681526020019081526020015f205f9054906101000a900460ff161561093b576040517f08c379a00000000000000000000000000000000000000000000000000000000081526004016109329061141a565b60405180910390fd5b60015f808481526020019081526020015f206004015f3373ffffffffffffffffffffffffffffffffffffffff1673ffffffffffffffffffffffffffffffffffffffff1681526020019081526020015f205f6101000a81548160ff0219169083151502179055505f808381526020019081526020015f206003015f8154809291906109c490611027565b91905055505050565b5f604051905090565b5f80fd5b5f80fd5b5f819050919050565b6109f0816109de565b81146109fa575f80fd5b50565b5f81359050610a0b816109e7565b92915050565b5f60208284031215610a2657610a256109d6565b5b5f610a33848285016109fd565b91505092915050565b5f73ffffffffffffffffffffffffffffffffffffffff82169050919050565b5f610a6582610a3c565b9050919050565b610a7581610a5b565b8114610a7f575f80fd5b50565b5f81359050610a9081610a6c565b92915050565b5f60208284031215610aab57610aaa6109d6565b5b5f610ab884828501610a82565b91505092915050565b5f8115159050919050565b610ad581610ac1565b82525050565b5f602082019050610aee5f830184610acc565b92915050565b610afd81610a5b565b82525050565b5f602082019050610b165f830184610af4565b92915050565b5f81519050919050565b5f82825260208201905092915050565b5f5b83811015610b53578082015181840152602081019050610b38565b5f8484015250505050565b5f601f19601f8301169050919050565b5f610b7882610b1c565b610b828185610b26565b9350610b92818560208601610b36565b610b9b81610b5e565b840191505092915050565b610baf816109de565b82525050565b5f610bbf82610a3c565b9050919050565b610bcf81610bb5565b82525050565b5f60a0820190508181035f830152610bed8188610b6e565b9050610bfc6020830187610ba6565b610c096040830186610bc6565b610c166060830185610acc565b610c236080830184610ba6565b9695505050505050565b5f602082019050610c405f830184610ba6565b92915050565b5f80fd5b5f80fd5b7f4e487b71000000000000000000000000000000000000000000000000000000005f52604160045260245ffd5b610c8482610b5e565b810181811067ffffffffffffffff82111715610ca357610ca2610c4e565b5b80604052505050565b5f610cb56109cd565b9050610cc18282610c7b565b919050565b5f67ffffffffffffffff821115610ce057610cdf610c4e565b5b610ce982610b5e565b9050602081019050919050565b828183375f83830152505050565b5f610d16610d1184610cc6565b610cac565b905082815260208101848484011115610d3257610d31610c4a565b5b610d3d848285610cf6565b509392505050565b5f82601f830112610d5957610d58610c46565b5b8135610d69848260208601610d04565b91505092915050565b610d7b81610bb5565b8114610d85575f80fd5b50565b5f81359050610d9681610d72565b92915050565b5f805f60608486031215610db357610db26109d6565b5b5f84013567ffffffffffffffff811115610dd057610dcf6109da565b5b610ddc86828701610d45565b9350506020610ded868287016109fd565b9250506040610dfe86828701610d88565b9150509250925092565b7f4e6f7420746865206d616e6167657200000000000000000000000000000000005f82015250565b5f610e3c600f83610b26565b9150610e4782610e08565b602082019050919050565b5f6020820190508181035f830152610e6981610e30565b9050919050565b7f4e487b71000000000000000000000000000000000000000000000000000000005f52601260045260245ffd5b7f4e487b71000000000000000000000000000000000000000000000000000000005f52601160045260245ffd5b5f610ed4826109de565b9150610edf836109de565b925082610eef57610eee610e70565b5b828204905092915050565b7f4e6f7420656e6f75676820617070726f766572730000000000000000000000005f82015250565b5f610f2e601483610b26565b9150610f3982610efa565b602082019050919050565b5f6020820190508181035f830152610f5b81610f22565b9050919050565b7f5265717565737420616c72656164792066696e616c697a6564000000000000005f82015250565b5f610f96601983610b26565b9150610fa182610f62565b602082019050919050565b5f6020820190508181035f830152610fc381610f8a565b9050919050565b7f4e487b71000000000000000000000000000000000000000000000000000000005f52602260045260245ffd5b5f600282049050600182168061100e57607f821691505b60208210810361102157611020610fca565b5b50919050565b5f611031826109de565b91507fffffffffffffffffffffffffffffffffffffffffffffffffffffffffffffffff820361106357611062610e9d565b5b600182019050919050565b5f819050815f5260205f209050919050565b5f6020601f8301049050919050565b5f82821b905092915050565b5f600883026110ca7fffffffffffffffffffffffffffffffffffffffffffffffffffffffffffffffff8261108f565b6110d4868361108f565b95508019841693508086168417925050509392505050565b5f819050919050565b5f61110f61110a611105846109de565b6110ec565b6109de565b9050919050565b5f819050919050565b611128836110f5565b61113c61113482611116565b84845461109b565b825550505050565b5f90565b611150611144565b61115b81848461111f565b505050565b5b8181101561117e576111735f82611148565b600181019050611161565b5050565b601f8211156111c3576111948161106e565b61119d84611080565b810160208510156111ac578190505b6111c06111b885611080565b830182611160565b50505b505050565b5f82821c905092915050565b5f6111e35f19846008026111c8565b1980831691505092915050565b5f6111fb83836111d4565b9150826002028217905092915050565b61121482610b1c565b67ffffffffffffffff81111561122d5761122c610c4e565b5b6112378254610ff7565b611242828285611182565b5f60209050601f831160018114611273575f8415611261578287015190505b61126b85826111f0565b8655506112d2565b601f1984166112818661106e565b5f5b828110156112a857848901518255600182019150602085019450602081019050611283565b868310156112c557848901516112c1601f8916826111d4565b8355505b6001600288020188555050505b505050505050565b7f546865206d696e696d756d20636f6e747269627574696f6e206973206e6f74205f8201527f6d65740000000000000000000000000000000000000000000000000000000000602082015250565b5f611334602383610b26565b915061133f826112da565b604082019050919050565b5f6020820190508181035f83015261136181611328565b9050919050565b7f4e6f7420616e20617070726f76657200000000000000000000000000000000005f82015250565b5f61139c600f83610b26565b91506113a782611368565b602082019050919050565b5f6020820190508181035f8301526113c981611390565b9050919050565b7f416c726561647920617070726f766564000000000000000000000000000000005f82015250565b5f611404601083610b26565b915061140f826113d0565b602082019050919050565b5f6020820190508181035f830152611431816113f8565b905091905056fea264697066735822122046a1ea34c17a49815994bf691ef5b241d3c7bbf1f56ef7c47c45068cfae637d364736f6c63430008140033","opcodes":"PUSH1 0x80 PUSH1 0x40 MSTORE CALLVALUE DUP1 ISZERO PUSH3 0x10 JUMPI PUSH0 DUP1 REVERT JUMPDEST POP PUSH1 0x40 MLOAD PUSH3 0x15E3 CODESIZE SUB DUP1 PUSH3 0x15E3 DUP4 CODECOPY DUP2 DUP2 ADD PUSH1 0x40 MSTORE DUP2 ADD SWAP1 PUSH3 0x36 SWAP2 SWAP1 PUSH3 0x122 JUMP JUMPDEST DUP1 PUSH1 0x1 PUSH0 PUSH2 0x100 EXP DUP2 SLOAD DUP2 PUSH20 0xFFFFFFFFFFFFFFFFFFFFFFFFFFFFFFFFFFFFFFFF MUL NOT AND SWAP1 DUP4 PUSH20 0xFFFFFFFFFFFFFFFFFFFFFFFFFFFFFFFFFFFFFFFF AND MUL OR SWAP1 SSTORE POP DUP2 PUSH1 0x3 DUP2 SWAP1 SSTORE POP POP POP PUSH3 0x167 JUMP JUMPDEST PUSH0 DUP1 REVERT JUMPDEST PUSH0 DUP2 SWAP1 POP SWAP2 SWAP1 POP JUMP JUMPDEST PUSH3 0x9D DUP2 PUSH3 0x89 JUMP JUMPDEST DUP2 EQ PUSH3 0xA8 JUMPI PUSH0 DUP1 REVERT JUMPDEST POP JUMP JUMPDEST PUSH0 DUP2 MLOAD SWAP1 POP PUSH3 0xBB DUP2 PUSH3 0x92 JUMP JUMPDEST SWAP3 SWAP2 POP POP JUMP JUMPDEST PUSH0 PUSH20 0xFFFFFFFFFFFFFFFFFFFFFFFFFFFFFFFFFFFFFFFF DUP3 AND SWAP1 POP SWAP2 SWAP1 POP JUMP JUMPDEST PUSH0 PUSH3 0xEC DUP3 PUSH3 0xC1 JUMP JUMPDEST SWAP1 POP SWAP2 SWAP1 POP JUMP JUMPDEST PUSH3 0xFE DUP2 PUSH3 0xE0 JUMP JUMPDEST DUP2 EQ PUSH3 0x109 JUMPI PUSH0 DUP1 REVERT JUMPDEST POP JUMP JUMPDEST PUSH0 DUP2 MLOAD SWAP1 POP PUSH3 0x11C DUP2 PUSH3 0xF3 JUMP JUMPDEST SWAP3 SWAP2 POP POP JUMP JUMPDEST PUSH0 DUP1 PUSH1 0x40 DUP4 DUP6 SUB SLT ISZERO PUSH3 0x13B JUMPI PUSH3 0x13A PUSH3 0x85 JUMP JUMPDEST JUMPDEST PUSH0 PUSH3 0x14A DUP6 DUP3 DUP7 ADD PUSH3 0xAB JUMP JUMPDEST SWAP3 POP POP PUSH1 0x20 PUSH3 0x15D DUP6 DUP3 DUP7 ADD PUSH3 0x10C JUMP JUMPDEST SWAP2 POP POP SWAP3 POP SWAP3 SWAP1 POP JUMP JUMPDEST PUSH2 0x146E DUP1 PUSH3 0x175 PUSH0 CODECOPY PUSH0 RETURN INVALID PUSH1 0x80 PUSH1 0x40 MSTORE PUSH1 0x4 CALLDATASIZE LT PUSH2 0x90 JUMPI PUSH0 CALLDATALOAD PUSH1 0xE0 SHR DUP1 PUSH4 0x8A9CFD55 GT PUSH2 0x58 JUMPI DUP1 PUSH4 0x8A9CFD55 EQ PUSH2 0x18C JUMPI DUP1 PUSH4 0x937E09B1 EQ PUSH2 0x1B4 JUMPI DUP1 PUSH4 0x9FB42B1F EQ PUSH2 0x1DE JUMPI DUP1 PUSH4 0xD7BB99BA EQ PUSH2 0x208 JUMPI DUP1 PUSH4 0xD7D1BBDB EQ PUSH2 0x212 JUMPI PUSH2 0x90 JUMP JUMPDEST DUP1 PUSH4 0x3441006 EQ PUSH2 0x94 JUMPI DUP1 PUSH4 0xA144391 EQ PUSH2 0xBC JUMPI DUP1 PUSH4 0x481C6A75 EQ PUSH2 0xF8 JUMPI DUP1 PUSH4 0x81D12C58 EQ PUSH2 0x122 JUMPI DUP1 PUSH4 0x82FDE093 EQ PUSH2 0x162 JUMPI JUMPDEST PUSH0 DUP1 REVERT JUMPDEST CALLVALUE DUP1 ISZERO PUSH2 0x9F JUMPI PUSH0 DUP1 REVERT JUMPDEST POP PUSH2 0xBA PUSH1 0x4 DUP1 CALLDATASIZE SUB DUP2 ADD SWAP1 PUSH2 0xB5 SWAP2 SWAP1 PUSH2 0xA11 JUMP JUMPDEST PUSH2 0x23A JUMP JUMPDEST STOP JUMPDEST CALLVALUE DUP1 ISZERO PUSH2 0xC7 JUMPI PUSH0 DUP1 REVERT JUMPDEST POP PUSH2 0xE2 PUSH1 0x4 DUP1 CALLDATASIZE SUB DUP2 ADD SWAP1 PUSH2 0xDD SWAP2 SWAP1 PUSH2 0xA96 JUMP JUMPDEST PUSH2 0x40E JUMP JUMPDEST PUSH1 0x40 MLOAD PUSH2 0xEF SWAP2 SWAP1 PUSH2 0xADB JUMP JUMPDEST PUSH1 0x40 MLOAD DUP1 SWAP2 SUB SWAP1 RETURN JUMPDEST CALLVALUE DUP1 ISZERO PUSH2 0x103 JUMPI PUSH0 DUP1 REVERT JUMPDEST POP PUSH2 0x10C PUSH2 0x42B JUMP JUMPDEST PUSH1 0x40 MLOAD PUSH2 0x119 SWAP2 SWAP1 PUSH2 0xB03 JUMP JUMPDEST PUSH1 0x40 MLOAD DUP1 SWAP2 SUB SWAP1 RETURN JUMPDEST CALLVALUE DUP1 ISZERO PUSH2 0x12D JUMPI PUSH0 DUP1 REVERT JUMPDEST POP PUSH2 0x148 PUSH1 0x4 DUP1 CALLDATASIZE SUB DUP2 ADD SWAP1 PUSH2 0x143 SWAP2 SWAP1 PUSH2 0xA11 JUMP JUMPDEST PUSH2 0x450 JUMP JUMPDEST PUSH1 0x40 MLOAD PUSH2 0x159 SWAP6 SWAP5 SWAP4 SWAP3 SWAP2 SWAP1 PUSH2 0xBD5 JUMP JUMPDEST PUSH1 0x40 MLOAD DUP1 SWAP2 SUB SWAP1 RETURN JUMPDEST CALLVALUE DUP1 ISZERO PUSH2 0x16D JUMPI PUSH0 DUP1 REVERT JUMPDEST POP PUSH2 0x176 PUSH2 0x533 JUMP JUMPDEST PUSH1 0x40 MLOAD PUSH2 0x183 SWAP2 SWAP1 PUSH2 0xC2D JUMP JUMPDEST PUSH1 0x40 MLOAD DUP1 SWAP2 SUB SWAP1 RETURN JUMPDEST CALLVALUE DUP1 ISZERO PUSH2 0x197 JUMPI PUSH0 DUP1 REVERT JUMPDEST POP PUSH2 0x1B2 PUSH1 0x4 DUP1 CALLDATASIZE SUB DUP2 ADD SWAP1 PUSH2 0x1AD SWAP2 SWAP1 PUSH2 0xD9C JUMP JUMPDEST PUSH2 0x539 JUMP JUMPDEST STOP JUMPDEST CALLVALUE DUP1 ISZERO PUSH2 0x1BF JUMPI PUSH0 DUP1 REVERT JUMPDEST POP PUSH2 0x1C8 PUSH2 0x677 JUMP JUMPDEST PUSH1 0x40 MLOAD PUSH2 0x1D5 SWAP2 SWAP1 PUSH2 0xC2D JUMP JUMPDEST PUSH1 0x40 MLOAD DUP1 SWAP2 SUB SWAP1 RETURN JUMPDEST CALLVALUE DUP1 ISZERO PUSH2 0x1E9 JUMPI PUSH0 DUP1 REVERT JUMPDEST POP PUSH2 0x1F2 PUSH2 0x67D JUMP JUMPDEST PUSH1 0x40 MLOAD PUSH2 0x1FF SWAP2 SWAP1 PUSH2 0xC2D JUMP JUMPDEST PUSH1 0x40 MLOAD DUP1 SWAP2 SUB SWAP1 RETURN JUMPDEST PUSH2 0x210 PUSH2 0x683 JUMP JUMPDEST STOP JUMPDEST CALLVALUE DUP1 ISZERO PUSH2 0x21D JUMPI PUSH0 DUP1 REVERT JUMPDEST POP PUSH2 0x238 PUSH1 0x4 DUP1 CALLDATASIZE SUB DUP2 ADD SWAP1 PUSH2 0x233 SWAP2 SWAP1 PUSH2 0xA11 JUMP JUMPDEST PUSH2 0x784 JUMP JUMPDEST STOP JUMPDEST PUSH1 0x1 PUSH0 SWAP1 SLOAD SWAP1 PUSH2 0x100 EXP SWAP1 DIV PUSH20 0xFFFFFFFFFFFFFFFFFFFFFFFFFFFFFFFFFFFFFFFF AND PUSH20 0xFFFFFFFFFFFFFFFFFFFFFFFFFFFFFFFFFFFFFFFF AND CALLER PUSH20 0xFFFFFFFFFFFFFFFFFFFFFFFFFFFFFFFFFFFFFFFF AND EQ PUSH2 0x2C9 JUMPI PUSH1 0x40 MLOAD PUSH32 0x8C379A000000000000000000000000000000000000000000000000000000000 DUP2 MSTORE PUSH1 0x4 ADD PUSH2 0x2C0 SWAP1 PUSH2 0xE52 JUMP JUMPDEST PUSH1 0x40 MLOAD DUP1 SWAP2 SUB SWAP1 REVERT JUMPDEST PUSH0 DUP1 PUSH0 DUP4 DUP2 MSTORE PUSH1 0x20 ADD SWAP1 DUP2 MSTORE PUSH1 0x20 ADD PUSH0 KECCAK256 SWAP1 POP PUSH1 0x2 PUSH1 0x4 SLOAD PUSH2 0x2EB SWAP2 SWAP1 PUSH2 0xECA JUMP JUMPDEST DUP2 PUSH1 0x3 ADD SLOAD GT PUSH2 0x330 JUMPI PUSH1 0x40 MLOAD PUSH32 0x8C379A000000000000000000000000000000000000000000000000000000000 DUP2 MSTORE PUSH1 0x4 ADD PUSH2 0x327 SWAP1 PUSH2 0xF44 JUMP JUMPDEST PUSH1 0x40 MLOAD DUP1 SWAP2 SUB SWAP1 REVERT JUMPDEST DUP1 PUSH1 0x2 ADD PUSH1 0x14 SWAP1 SLOAD SWAP1 PUSH2 0x100 EXP SWAP1 DIV PUSH1 0xFF AND ISZERO PUSH2 0x382 JUMPI PUSH1 0x40 MLOAD PUSH32 0x8C379A000000000000000000000000000000000000000000000000000000000 DUP2 MSTORE PUSH1 0x4 ADD PUSH2 0x379 SWAP1 PUSH2 0xFAC JUMP JUMPDEST PUSH1 0x40 MLOAD DUP1 SWAP2 SUB SWAP1 REVERT JUMPDEST DUP1 PUSH1 0x2 ADD PUSH0 SWAP1 SLOAD SWAP1 PUSH2 0x100 EXP SWAP1 DIV PUSH20 0xFFFFFFFFFFFFFFFFFFFFFFFFFFFFFFFFFFFFFFFF AND PUSH20 0xFFFFFFFFFFFFFFFFFFFFFFFFFFFFFFFFFFFFFFFF AND PUSH2 0x8FC DUP3 PUSH1 0x1 ADD SLOAD SWAP1 DUP2 ISZERO MUL SWAP1 PUSH1 0x40 MLOAD PUSH0 PUSH1 0x40 MLOAD DUP1 DUP4 SUB DUP2 DUP6 DUP9 DUP9 CALL SWAP4 POP POP POP POP ISZERO DUP1 ISZERO PUSH2 0x3EC JUMPI RETURNDATASIZE PUSH0 DUP1 RETURNDATACOPY RETURNDATASIZE PUSH0 REVERT JUMPDEST POP PUSH1 0x1 DUP2 PUSH1 0x2 ADD PUSH1 0x14 PUSH2 0x100 EXP DUP2 SLOAD DUP2 PUSH1 0xFF MUL NOT AND SWAP1 DUP4 ISZERO ISZERO MUL OR SWAP1 SSTORE POP POP POP JUMP JUMPDEST PUSH1 0x5 PUSH1 0x20 MSTORE DUP1 PUSH0 MSTORE PUSH1 0x40 PUSH0 KECCAK256 PUSH0 SWAP2 POP SLOAD SWAP1 PUSH2 0x100 EXP SWAP1 DIV PUSH1 0xFF AND DUP2 JUMP JUMPDEST PUSH1 0x1 PUSH0 SWAP1 SLOAD SWAP1 PUSH2 0x100 EXP SWAP1 DIV PUSH20 0xFFFFFFFFFFFFFFFFFFFFFFFFFFFFFFFFFFFFFFFF AND DUP2 JUMP JUMPDEST PUSH0 PUSH1 0x20 MSTORE DUP1 PUSH0 MSTORE PUSH1 0x40 PUSH0 KECCAK256 PUSH0 SWAP2 POP SWAP1 POP DUP1 PUSH0 ADD DUP1 SLOAD PUSH2 0x46E SWAP1 PUSH2 0xFF7 JUMP JUMPDEST DUP1 PUSH1 0x1F ADD PUSH1 0x20 DUP1 SWAP2 DIV MUL PUSH1 0x20 ADD PUSH1 0x40 MLOAD SWAP1 DUP2 ADD PUSH1 0x40 MSTORE DUP1 SWAP3 SWAP2 SWAP1 DUP2 DUP2 MSTORE PUSH1 0x20 ADD DUP3 DUP1 SLOAD PUSH2 0x49A SWAP1 PUSH2 0xFF7 JUMP JUMPDEST DUP1 ISZERO PUSH2 0x4E5 JUMPI DUP1 PUSH1 0x1F LT PUSH2 0x4BC JUMPI PUSH2 0x100 DUP1 DUP4 SLOAD DIV MUL DUP4 MSTORE SWAP2 PUSH1 0x20 ADD SWAP2 PUSH2 0x4E5 JUMP JUMPDEST DUP3 ADD SWAP2 SWAP1 PUSH0 MSTORE PUSH1 0x20 PUSH0 KECCAK256 SWAP1 JUMPDEST DUP2 SLOAD DUP2 MSTORE SWAP1 PUSH1 0x1 ADD SWAP1 PUSH1 0x20 ADD DUP1 DUP4 GT PUSH2 0x4C8 JUMPI DUP3 SWAP1 SUB PUSH1 0x1F AND DUP3 ADD SWAP2 JUMPDEST POP POP POP POP POP SWAP1 DUP1 PUSH1 0x1 ADD SLOAD SWAP1 DUP1 PUSH1 0x2 ADD PUSH0 SWAP1 SLOAD SWAP1 PUSH2 0x100 EXP SWAP1 DIV PUSH20 0xFFFFFFFFFFFFFFFFFFFFFFFFFFFFFFFFFFFFFFFF AND SWAP1 DUP1 PUSH1 0x2 ADD PUSH1 0x14 SWAP1 SLOAD SWAP1 PUSH2 0x100 EXP SWAP1 DIV PUSH1 0xFF AND SWAP1 DUP1 PUSH1 0x3 ADD SLOAD SWAP1 POP DUP6 JUMP JUMPDEST PUSH1 0x4 SLOAD DUP2 JUMP JUMPDEST PUSH1 0x1 PUSH0 SWAP1 SLOAD SWAP1 PUSH2 0x100 EXP SWAP1 DIV PUSH20 0xFFFFFFFFFFFFFFFFFFFFFFFFFFFFFFFFFFFFFFFF AND PUSH20 0xFFFFFFFFFFFFFFFFFFFFFFFFFFFFFFFFFFFFFFFF AND CALLER PUSH20 0xFFFFFFFFFFFFFFFFFFFFFFFFFFFFFFFFFFFFFFFF AND EQ PUSH2 0x5C8 JUMPI PUSH1 0x40 MLOAD PUSH32 0x8C379A000000000000000000000000000000000000000000000000000000000 DUP2 MSTORE PUSH1 0x4 ADD PUSH2 0x5BF SWAP1 PUSH2 0xE52 JUMP JUMPDEST PUSH1 0x40 MLOAD DUP1 SWAP2 SUB SWAP1 REVERT JUMPDEST PUSH0 DUP1 PUSH0 PUSH1 0x2 PUSH0 DUP2 SLOAD DUP1 SWAP3 SWAP2 SWAP1 PUSH2 0x5DD SWAP1 PUSH2 0x1027 JUMP JUMPDEST SWAP2 SWAP1 POP SSTORE DUP2 MSTORE PUSH1 0x20 ADD SWAP1 DUP2 MSTORE PUSH1 0x20 ADD PUSH0 KECCAK256 SWAP1 POP DUP4 DUP2 PUSH0 ADD SWAP1 DUP2 PUSH2 0x600 SWAP2 SWAP1 PUSH2 0x120B JUMP JUMPDEST POP DUP3 DUP2 PUSH1 0x1 ADD DUP2 SWAP1 SSTORE POP DUP2 DUP2 PUSH1 0x2 ADD PUSH0 PUSH2 0x100 EXP DUP2 SLOAD DUP2 PUSH20 0xFFFFFFFFFFFFFFFFFFFFFFFFFFFFFFFFFFFFFFFF MUL NOT AND SWAP1 DUP4 PUSH20 0xFFFFFFFFFFFFFFFFFFFFFFFFFFFFFFFFFFFFFFFF AND MUL OR SWAP1 SSTORE POP PUSH0 DUP2 PUSH1 0x2 ADD PUSH1 0x14 PUSH2 0x100 EXP DUP2 SLOAD DUP2 PUSH1 0xFF MUL NOT AND SWAP1 DUP4 ISZERO ISZERO MUL OR SWAP1 SSTORE POP PUSH0 DUP2 PUSH1 0x3 ADD DUP2 SWAP1 SSTORE POP POP POP POP POP JUMP JUMPDEST PUSH1 0x3 SLOAD DUP2 JUMP JUMPDEST PUSH1 0x2 SLOAD DUP2 JUMP JUMPDEST PUSH1 0x3 SLOAD CALLVALUE GT PUSH2 0x6C7 JUMPI PUSH1 0x40 MLOAD PUSH32 0x8C379A000000000000000000000000000000000000000000000000000000000 DUP2 MSTORE PUSH1 0x4 ADD PUSH2 0x6BE SWAP1 PUSH2 0x134A JUMP JUMPDEST PUSH1 0x40 MLOAD DUP1 SWAP2 SUB SWAP1 REVERT JUMPDEST PUSH1 0x5 PUSH0 CALLER PUSH20 0xFFFFFFFFFFFFFFFFFFFFFFFFFFFFFFFFFFFFFFFF AND PUSH20 0xFFFFFFFFFFFFFFFFFFFFFFFFFFFFFFFFFFFFFFFF AND DUP2 MSTORE PUSH1 0x20 ADD SWAP1 DUP2 MSTORE PUSH1 0x20 ADD PUSH0 KECCAK256 PUSH0 SWAP1 SLOAD SWAP1 PUSH2 0x100 EXP SWAP1 DIV PUSH1 0xFF AND PUSH2 0x782 JUMPI PUSH1 0x1 PUSH1 0x5 PUSH0 CALLER PUSH20 0xFFFFFFFFFFFFFFFFFFFFFFFFFFFFFFFFFFFFFFFF AND PUSH20 0xFFFFFFFFFFFFFFFFFFFFFFFFFFFFFFFFFFFFFFFF AND DUP2 MSTORE PUSH1 0x20 ADD SWAP1 DUP2 MSTORE PUSH1 0x20 ADD PUSH0 KECCAK256 PUSH0 PUSH2 0x100 EXP DUP2 SLOAD DUP2 PUSH1 0xFF MUL NOT AND SWAP1 DUP4 ISZERO ISZERO MUL OR SWAP1 SSTORE POP PUSH1 0x4 PUSH0 DUP2 SLOAD DUP1 SWAP3 SWAP2 SWAP1 PUSH2 0x77C SWAP1 PUSH2 0x1027 JUMP JUMPDEST SWAP2 SWAP1 POP SSTORE POP JUMPDEST JUMP JUMPDEST PUSH1 0x1 PUSH0 SWAP1 SLOAD SWAP1 PUSH2 0x100 EXP SWAP1 DIV PUSH20 0xFFFFFFFFFFFFFFFFFFFFFFFFFFFFFFFFFFFFFFFF AND PUSH20 0xFFFFFFFFFFFFFFFFFFFFFFFFFFFFFFFFFFFFFFFF AND CALLER PUSH20 0xFFFFFFFFFFFFFFFFFFFFFFFFFFFFFFFFFFFFFFFF AND EQ PUSH2 0x813 JUMPI PUSH1 0x40 MLOAD PUSH32 0x8C379A000000000000000000000000000000000000000000000000000000000 DUP2 MSTORE PUSH1 0x4 ADD PUSH2 0x80A SWAP1 PUSH2 0xE52 JUMP JUMPDEST PUSH1 0x40 MLOAD DUP1 SWAP2 SUB SWAP1 REVERT JUMPDEST PUSH0 DUP1 PUSH0 DUP4 DUP2 MSTORE PUSH1 0x20 ADD SWAP1 DUP2 MSTORE PUSH1 0x20 ADD PUSH0 KECCAK256 SWAP1 POP PUSH1 0x5 PUSH0 CALLER PUSH20 0xFFFFFFFFFFFFFFFFFFFFFFFFFFFFFFFFFFFFFFFF AND PUSH20 0xFFFFFFFFFFFFFFFFFFFFFFFFFFFFFFFFFFFFFFFF AND DUP2 MSTORE PUSH1 0x20 ADD SWAP1 DUP2 MSTORE PUSH1 0x20 ADD PUSH0 KECCAK256 PUSH0 SWAP1 SLOAD SWAP1 PUSH2 0x100 EXP SWAP1 DIV PUSH1 0xFF AND PUSH2 0x8AF JUMPI PUSH1 0x40 MLOAD PUSH32 0x8C379A000000000000000000000000000000000000000000000000000000000 DUP2 MSTORE PUSH1 0x4 ADD PUSH2 0x8A6 SWAP1 PUSH2 0x13B2 JUMP JUMPDEST PUSH1 0x40 MLOAD DUP1 SWAP2 SUB SWAP1 REVERT JUMPDEST DUP1 PUSH1 0x4 ADD PUSH0 CALLER PUSH20 0xFFFFFFFFFFFFFFFFFFFFFFFFFFFFFFFFFFFFFFFF AND PUSH20 0xFFFFFFFFFFFFFFFFFFFFFFFFFFFFFFFFFFFFFFFF AND DUP2 MSTORE PUSH1 0x20 ADD SWAP1 DUP2 MSTORE PUSH1 0x20 ADD PUSH0 KECCAK256 PUSH0 SWAP1 SLOAD SWAP1 PUSH2 0x100 EXP SWAP1 DIV PUSH1 0xFF AND ISZERO PUSH2 0x93B JUMPI PUSH1 0x40 MLOAD PUSH32 0x8C379A000000000000000000000000000000000000000000000000000000000 DUP2 MSTORE PUSH1 0x4 ADD PUSH2 0x932 SWAP1 PUSH2 0x141A JUMP JUMPDEST PUSH1 0x40 MLOAD DUP1 SWAP2 SUB SWAP1 REVERT JUMPDEST PUSH1 0x1 PUSH0 DUP1 DUP5 DUP2 MSTORE PUSH1 0x20 ADD SWAP1 DUP2 MSTORE PUSH1 0x20 ADD PUSH0 KECCAK256 PUSH1 0x4 ADD PUSH0 CALLER PUSH20 0xFFFFFFFFFFFFFFFFFFFFFFFFFFFFFFFFFFFFFFFF AND PUSH20 0xFFFFFFFFFFFFFFFFFFFFFFFFFFFFFFFFFFFFFFFF AND DUP2 MSTORE PUSH1 0x20 ADD SWAP1 DUP2 MSTORE PUSH1 0x20 ADD PUSH0 KECCAK256 PUSH0 PUSH2 0x100 EXP DUP2 SLOAD DUP2 PUSH1 0xFF MUL NOT AND SWAP1 DUP4 ISZERO ISZERO MUL OR SWAP1 SSTORE POP PUSH0 DUP1 DUP4 DUP2 MSTORE PUSH1 0x20 ADD SWAP1 DUP2 MSTORE PUSH1 0x20 ADD PUSH0 KECCAK256 PUSH1 0x3 ADD PUSH0 DUP2 SLOAD DUP1 SWAP3 SWAP2 SWAP1 PUSH2 0x9C4 SWAP1 PUSH2 0x1027 JUMP JUMPDEST SWAP2 SWAP1 POP SSTORE POP POP POP JUMP JUMPDEST PUSH0 PUSH1 0x40 MLOAD SWAP1 POP SWAP1 JUMP JUMPDEST PUSH0 DUP1 REVERT JUMPDEST PUSH0 DUP1 REVERT JUMPDEST PUSH0 DUP2 SWAP1 POP SWAP2 SWAP1 POP JUMP JUMPDEST PUSH2 0x9F0 DUP2 PUSH2 0x9DE JUMP JUMPDEST DUP2 EQ PUSH2 0x9FA JUMPI PUSH0 DUP1 REVERT JUMPDEST POP JUMP JUMPDEST PUSH0 DUP2 CALLDATALOAD SWAP1 POP PUSH2 0xA0B DUP2 PUSH2 0x9E7 JUMP JUMPDEST SWAP3 SWAP2 POP POP JUMP JUMPDEST PUSH0 PUSH1 0x20 DUP3 DUP5 SUB SLT ISZERO PUSH2 0xA26 JUMPI PUSH2 0xA25 PUSH2 0x9D6 JUMP JUMPDEST JUMPDEST PUSH0 PUSH2 0xA33 DUP5 DUP3 DUP6 ADD PUSH2 0x9FD JUMP JUMPDEST SWAP2 POP POP SWAP3 SWAP2 POP POP JUMP JUMPDEST PUSH0 PUSH20 0xFFFFFFFFFFFFFFFFFFFFFFFFFFFFFFFFFFFFFFFF DUP3 AND SWAP1 POP SWAP2 SWAP1 POP JUMP JUMPDEST PUSH0 PUSH2 0xA65 DUP3 PUSH2 0xA3C JUMP JUMPDEST SWAP1 POP SWAP2 SWAP1 POP JUMP JUMPDEST PUSH2 0xA75 DUP2 PUSH2 0xA5B JUMP JUMPDEST DUP2 EQ PUSH2 0xA7F JUMPI PUSH0 DUP1 REVERT JUMPDEST POP JUMP JUMPDEST PUSH0 DUP2 CALLDATALOAD SWAP1 POP PUSH2 0xA90 DUP2 PUSH2 0xA6C JUMP JUMPDEST SWAP3 SWAP2 POP POP JUMP JUMPDEST PUSH0 PUSH1 0x20 DUP3 DUP5 SUB SLT ISZERO PUSH2 0xAAB JUMPI PUSH2 0xAAA PUSH2 0x9D6 JUMP JUMPDEST JUMPDEST PUSH0 PUSH2 0xAB8 DUP5 DUP3 DUP6 ADD PUSH2 0xA82 JUMP JUMPDEST SWAP2 POP POP SWAP3 SWAP2 POP POP JUMP JUMPDEST PUSH0 DUP2 ISZERO ISZERO SWAP1 POP SWAP2 SWAP1 POP JUMP JUMPDEST PUSH2 0xAD5 DUP2 PUSH2 0xAC1 JUMP JUMPDEST DUP3 MSTORE POP POP JUMP JUMPDEST PUSH0 PUSH1 0x20 DUP3 ADD SWAP1 POP PUSH2 0xAEE PUSH0 DUP4 ADD DUP5 PUSH2 0xACC JUMP JUMPDEST SWAP3 SWAP2 POP POP JUMP JUMPDEST PUSH2 0xAFD DUP2 PUSH2 0xA5B JUMP JUMPDEST DUP3 MSTORE POP POP JUMP JUMPDEST PUSH0 PUSH1 0x20 DUP3 ADD SWAP1 POP PUSH2 0xB16 PUSH0 DUP4 ADD DUP5 PUSH2 0xAF4 JUMP JUMPDEST SWAP3 SWAP2 POP POP JUMP JUMPDEST PUSH0 DUP2 MLOAD SWAP1 POP SWAP2 SWAP1 POP JUMP JUMPDEST PUSH0 DUP3 DUP3 MSTORE PUSH1 0x20 DUP3 ADD SWAP1 POP SWAP3 SWAP2 POP POP JUMP JUMPDEST PUSH0 JUMPDEST DUP4 DUP2 LT ISZERO PUSH2 0xB53 JUMPI DUP1 DUP3 ADD MLOAD DUP2 DUP5 ADD MSTORE PUSH1 0x20 DUP2 ADD SWAP1 POP PUSH2 0xB38 JUMP JUMPDEST PUSH0 DUP5 DUP5 ADD MSTORE POP POP POP POP JUMP JUMPDEST PUSH0 PUSH1 0x1F NOT PUSH1 0x1F DUP4 ADD AND SWAP1 POP SWAP2 SWAP1 POP JUMP JUMPDEST PUSH0 PUSH2 0xB78 DUP3 PUSH2 0xB1C JUMP JUMPDEST PUSH2 0xB82 DUP2 DUP6 PUSH2 0xB26 JUMP JUMPDEST SWAP4 POP PUSH2 0xB92 DUP2 DUP6 PUSH1 0x20 DUP7 ADD PUSH2 0xB36 JUMP JUMPDEST PUSH2 0xB9B DUP2 PUSH2 0xB5E JUMP JUMPDEST DUP5 ADD SWAP2 POP POP SWAP3 SWAP2 POP POP JUMP JUMPDEST PUSH2 0xBAF DUP2 PUSH2 0x9DE JUMP JUMPDEST DUP3 MSTORE POP POP JUMP JUMPDEST PUSH0 PUSH2 0xBBF DUP3 PUSH2 0xA3C JUMP JUMPDEST SWAP1 POP SWAP2 SWAP1 POP JUMP JUMPDEST PUSH2 0xBCF DUP2 PUSH2 0xBB5 JUMP JUMPDEST DUP3 MSTORE POP POP JUMP JUMPDEST PUSH0 PUSH1 0xA0 DUP3 ADD SWAP1 POP DUP2 DUP2 SUB PUSH0 DUP4 ADD MSTORE PUSH2 0xBED DUP2 DUP9 PUSH2 0xB6E JUMP JUMPDEST SWAP1 POP PUSH2 0xBFC PUSH1 0x20 DUP4 ADD DUP8 PUSH2 0xBA6 JUMP JUMPDEST PUSH2 0xC09 PUSH1 0x40 DUP4 ADD DUP7 PUSH2 0xBC6 JUMP JUMPDEST PUSH2 0xC16 PUSH1 0x60 DUP4 ADD DUP6 PUSH2 0xACC JUMP JUMPDEST PUSH2 0xC23 PUSH1 0x80 DUP4 ADD DUP5 PUSH2 0xBA6 JUMP JUMPDEST SWAP7 SWAP6 POP POP POP POP POP POP JUMP JUMPDEST PUSH0 PUSH1 0x20 DUP3 ADD SWAP1 POP PUSH2 0xC40 PUSH0 DUP4 ADD DUP5 PUSH2 0xBA6 JUMP JUMPDEST SWAP3 SWAP2 POP POP JUMP JUMPDEST PUSH0 DUP1 REVERT JUMPDEST PUSH0 DUP1 REVERT JUMPDEST PUSH32 0x4E487B7100000000000000000000000000000000000000000000000000000000 PUSH0 MSTORE PUSH1 0x41 PUSH1 0x4 MSTORE PUSH1 0x24 PUSH0 REVERT JUMPDEST PUSH2 0xC84 DUP3 PUSH2 0xB5E JUMP JUMPDEST DUP2 ADD DUP2 DUP2 LT PUSH8 0xFFFFFFFFFFFFFFFF DUP3 GT OR ISZERO PUSH2 0xCA3 JUMPI PUSH2 0xCA2 PUSH2 0xC4E JUMP JUMPDEST JUMPDEST DUP1 PUSH1 0x40 MSTORE POP POP POP JUMP JUMPDEST PUSH0 PUSH2 0xCB5 PUSH2 0x9CD JUMP JUMPDEST SWAP1 POP PUSH2 0xCC1 DUP3 DUP3 PUSH2 0xC7B JUMP JUMPDEST SWAP2 SWAP1 POP JUMP JUMPDEST PUSH0 PUSH8 0xFFFFFFFFFFFFFFFF DUP3 GT ISZERO PUSH2 0xCE0 JUMPI PUSH2 0xCDF PUSH2 0xC4E JUMP JUMPDEST JUMPDEST PUSH2 0xCE9 DUP3 PUSH2 0xB5E JUMP JUMPDEST SWAP1 POP PUSH1 0x20 DUP2 ADD SWAP1 POP SWAP2 SWAP1 POP JUMP JUMPDEST DUP3 DUP2 DUP4 CALLDATACOPY PUSH0 DUP4 DUP4 ADD MSTORE POP POP POP JUMP JUMPDEST PUSH0 PUSH2 0xD16 PUSH2 0xD11 DUP5 PUSH2 0xCC6 JUMP JUMPDEST PUSH2 0xCAC JUMP JUMPDEST SWAP1 POP DUP3 DUP2 MSTORE PUSH1 0x20 DUP2 ADD DUP5 DUP5 DUP5 ADD GT ISZERO PUSH2 0xD32 JUMPI PUSH2 0xD31 PUSH2 0xC4A JUMP JUMPDEST JUMPDEST PUSH2 0xD3D DUP5 DUP3 DUP6 PUSH2 0xCF6 JUMP JUMPDEST POP SWAP4 SWAP3 POP POP POP JUMP JUMPDEST PUSH0 DUP3 PUSH1 0x1F DUP4 ADD SLT PUSH2 0xD59 JUMPI PUSH2 0xD58 PUSH2 0xC46 JUMP JUMPDEST JUMPDEST DUP2 CALLDATALOAD PUSH2 0xD69 DUP5 DUP3 PUSH1 0x20 DUP7 ADD PUSH2 0xD04 JUMP JUMPDEST SWAP2 POP POP SWAP3 SWAP2 POP POP JUMP JUMPDEST PUSH2 0xD7B DUP2 PUSH2 0xBB5 JUMP JUMPDEST DUP2 EQ PUSH2 0xD85 JUMPI PUSH0 DUP1 REVERT JUMPDEST POP JUMP JUMPDEST PUSH0 DUP2 CALLDATALOAD SWAP1 POP PUSH2 0xD96 DUP2 PUSH2 0xD72 JUMP JUMPDEST SWAP3 SWAP2 POP POP JUMP JUMPDEST PUSH0 DUP1 PUSH0 PUSH1 0x60 DUP5 DUP7 SUB SLT ISZERO PUSH2 0xDB3 JUMPI PUSH2 0xDB2 PUSH2 0x9D6 JUMP JUMPDEST JUMPDEST PUSH0 DUP5 ADD CALLDATALOAD PUSH8 0xFFFFFFFFFFFFFFFF DUP2 GT ISZERO PUSH2 0xDD0 JUMPI PUSH2 0xDCF PUSH2 0x9DA JUMP JUMPDEST JUMPDEST PUSH2 0xDDC DUP7 DUP3 DUP8 ADD PUSH2 0xD45 JUMP JUMPDEST SWAP4 POP POP PUSH1 0x20 PUSH2 0xDED DUP7 DUP3 DUP8 ADD PUSH2 0x9FD JUMP JUMPDEST SWAP3 POP POP PUSH1 0x40 PUSH2 0xDFE DUP7 DUP3 DUP8 ADD PUSH2 0xD88 JUMP JUMPDEST SWAP2 POP POP SWAP3 POP SWAP3 POP SWAP3 JUMP JUMPDEST PUSH32 0x4E6F7420746865206D616E616765720000000000000000000000000000000000 PUSH0 DUP3 ADD MSTORE POP JUMP JUMPDEST PUSH0 PUSH2 0xE3C PUSH1 0xF DUP4 PUSH2 0xB26 JUMP JUMPDEST SWAP2 POP PUSH2 0xE47 DUP3 PUSH2 0xE08 JUMP JUMPDEST PUSH1 0x20 DUP3 ADD SWAP1 POP SWAP2 SWAP1 POP JUMP JUMPDEST PUSH0 PUSH1 0x20 DUP3 ADD SWAP1 POP DUP2 DUP2 SUB PUSH0 DUP4 ADD MSTORE PUSH2 0xE69 DUP2 PUSH2 0xE30 JUMP JUMPDEST SWAP1 POP SWAP2 SWAP1 POP JUMP JUMPDEST PUSH32 0x4E487B7100000000000000000000000000000000000000000000000000000000 PUSH0 MSTORE PUSH1 0x12 PUSH1 0x4 MSTORE PUSH1 0x24 PUSH0 REVERT JUMPDEST PUSH32 0x4E487B7100000000000000000000000000000000000000000000000000000000 PUSH0 MSTORE PUSH1 0x11 PUSH1 0x4 MSTORE PUSH1 0x24 PUSH0 REVERT JUMPDEST PUSH0 PUSH2 0xED4 DUP3 PUSH2 0x9DE JUMP JUMPDEST SWAP2 POP PUSH2 0xEDF DUP4 PUSH2 0x9DE JUMP JUMPDEST SWAP3 POP DUP3 PUSH2 0xEEF JUMPI PUSH2 0xEEE PUSH2 0xE70 JUMP JUMPDEST JUMPDEST DUP3 DUP3 DIV SWAP1 POP SWAP3 SWAP2 POP POP JUMP JUMPDEST PUSH32 0x4E6F7420656E6F75676820617070726F76657273000000000000000000000000 PUSH0 DUP3 ADD MSTORE POP JUMP JUMPDEST PUSH0 PUSH2 0xF2E PUSH1 0x14 DUP4 PUSH2 0xB26 JUMP JUMPDEST SWAP2 POP PUSH2 0xF39 DUP3 PUSH2 0xEFA JUMP JUMPDEST PUSH1 0x20 DUP3 ADD SWAP1 POP SWAP2 SWAP1 POP JUMP JUMPDEST PUSH0 PUSH1 0x20 DUP3 ADD SWAP1 POP DUP2 DUP2 SUB PUSH0 DUP4 ADD MSTORE PUSH2 0xF5B DUP2 PUSH2 0xF22 JUMP JUMPDEST SWAP1 POP SWAP2 SWAP1 POP JUMP JUMPDEST PUSH32 0x5265717565737420616C72656164792066696E616C697A656400000000000000 PUSH0 DUP3 ADD MSTORE POP JUMP JUMPDEST PUSH0 PUSH2 0xF96 PUSH1 0x19 DUP4 PUSH2 0xB26 JUMP JUMPDEST SWAP2 POP PUSH2 0xFA1 DUP3 PUSH2 0xF62 JUMP JUMPDEST PUSH1 0x20 DUP3 ADD SWAP1 POP SWAP2 SWAP1 POP JUMP JUMPDEST PUSH0 PUSH1 0x20 DUP3 ADD SWAP1 POP DUP2 DUP2 SUB PUSH0 DUP4 ADD MSTORE PUSH2 0xFC3 DUP2 PUSH2 0xF8A JUMP JUMPDEST SWAP1 POP SWAP2 SWAP1 POP JUMP JUMPDEST PUSH32 0x4E487B7100000000000000000000000000000000000000000000000000000000 PUSH0 MSTORE PUSH1 0x22 PUSH1 0x4 MSTORE PUSH1 0x24 PUSH0 REVERT JUMPDEST PUSH0 PUSH1 0x2 DUP3 DIV SWAP1 POP PUSH1 0x1 DUP3 AND DUP1 PUSH2 0x100E JUMPI PUSH1 0x7F DUP3 AND SWAP2 POP JUMPDEST PUSH1 0x20 DUP3 LT DUP2 SUB PUSH2 0x1021 JUMPI PUSH2 0x1020 PUSH2 0xFCA JUMP JUMPDEST JUMPDEST POP SWAP2 SWAP1 POP JUMP JUMPDEST PUSH0 PUSH2 0x1031 DUP3 PUSH2 0x9DE JUMP JUMPDEST SWAP2 POP PUSH32 0xFFFFFFFFFFFFFFFFFFFFFFFFFFFFFFFFFFFFFFFFFFFFFFFFFFFFFFFFFFFFFFFF DUP3 SUB PUSH2 0x1063 JUMPI PUSH2 0x1062 PUSH2 0xE9D JUMP JUMPDEST JUMPDEST PUSH1 0x1 DUP3 ADD SWAP1 POP SWAP2 SWAP1 POP JUMP JUMPDEST PUSH0 DUP2 SWAP1 POP DUP2 PUSH0 MSTORE PUSH1 0x20 PUSH0 KECCAK256 SWAP1 POP SWAP2 SWAP1 POP JUMP JUMPDEST PUSH0 PUSH1 0x20 PUSH1 0x1F DUP4 ADD DIV SWAP1 POP SWAP2 SWAP1 POP JUMP JUMPDEST PUSH0 DUP3 DUP3 SHL SWAP1 POP SWAP3 SWAP2 POP POP JUMP JUMPDEST PUSH0 PUSH1 0x8 DUP4 MUL PUSH2 0x10CA PUSH32 0xFFFFFFFFFFFFFFFFFFFFFFFFFFFFFFFFFFFFFFFFFFFFFFFFFFFFFFFFFFFFFFFF DUP3 PUSH2 0x108F JUMP JUMPDEST PUSH2 0x10D4 DUP7 DUP4 PUSH2 0x108F JUMP JUMPDEST SWAP6 POP DUP1 NOT DUP5 AND SWAP4 POP DUP1 DUP7 AND DUP5 OR SWAP3 POP POP POP SWAP4 SWAP3 POP POP POP JUMP JUMPDEST PUSH0 DUP2 SWAP1 POP SWAP2 SWAP1 POP JUMP JUMPDEST PUSH0 PUSH2 0x110F PUSH2 0x110A PUSH2 0x1105 DUP5 PUSH2 0x9DE JUMP JUMPDEST PUSH2 0x10EC JUMP JUMPDEST PUSH2 0x9DE JUMP JUMPDEST SWAP1 POP SWAP2 SWAP1 POP JUMP JUMPDEST PUSH0 DUP2 SWAP1 POP SWAP2 SWAP1 POP JUMP JUMPDEST PUSH2 0x1128 DUP4 PUSH2 0x10F5 JUMP JUMPDEST PUSH2 0x113C PUSH2 0x1134 DUP3 PUSH2 0x1116 JUMP JUMPDEST DUP5 DUP5 SLOAD PUSH2 0x109B JUMP JUMPDEST DUP3 SSTORE POP POP POP POP JUMP JUMPDEST PUSH0 SWAP1 JUMP JUMPDEST PUSH2 0x1150 PUSH2 0x1144 JUMP JUMPDEST PUSH2 0x115B DUP2 DUP5 DUP5 PUSH2 0x111F JUMP JUMPDEST POP POP POP JUMP JUMPDEST JUMPDEST DUP2 DUP2 LT ISZERO PUSH2 0x117E JUMPI PUSH2 0x1173 PUSH0 DUP3 PUSH2 0x1148 JUMP JUMPDEST PUSH1 0x1 DUP2 ADD SWAP1 POP PUSH2 0x1161 JUMP JUMPDEST POP POP JUMP JUMPDEST PUSH1 0x1F DUP3 GT ISZERO PUSH2 0x11C3 JUMPI PUSH2 0x1194 DUP2 PUSH2 0x106E JUMP JUMPDEST PUSH2 0x119D DUP5 PUSH2 0x1080 JUMP JUMPDEST DUP2 ADD PUSH1 0x20 DUP6 LT ISZERO PUSH2 0x11AC JUMPI DUP2 SWAP1 POP JUMPDEST PUSH2 0x11C0 PUSH2 0x11B8 DUP6 PUSH2 0x1080 JUMP JUMPDEST DUP4 ADD DUP3 PUSH2 0x1160 JUMP JUMPDEST POP POP JUMPDEST POP POP POP JUMP JUMPDEST PUSH0 DUP3 DUP3 SHR SWAP1 POP SWAP3 SWAP2 POP POP JUMP JUMPDEST PUSH0 PUSH2 0x11E3 PUSH0 NOT DUP5 PUSH1 0x8 MUL PUSH2 0x11C8 JUMP JUMPDEST NOT DUP1 DUP4 AND SWAP2 POP POP SWAP3 SWAP2 POP POP JUMP JUMPDEST PUSH0 PUSH2 0x11FB DUP4 DUP4 PUSH2 0x11D4 JUMP JUMPDEST SWAP2 POP DUP3 PUSH1 0x2 MUL DUP3 OR SWAP1 POP SWAP3 SWAP2 POP POP JUMP JUMPDEST PUSH2 0x1214 DUP3 PUSH2 0xB1C JUMP JUMPDEST PUSH8 0xFFFFFFFFFFFFFFFF DUP2 GT ISZERO PUSH2 0x122D JUMPI PUSH2 0x122C PUSH2 0xC4E JUMP JUMPDEST JUMPDEST PUSH2 0x1237 DUP3 SLOAD PUSH2 0xFF7 JUMP JUMPDEST PUSH2 0x1242 DUP3 DUP3 DUP6 PUSH2 0x1182 JUMP JUMPDEST PUSH0 PUSH1 0x20 SWAP1 POP PUSH1 0x1F DUP4 GT PUSH1 0x1 DUP2 EQ PUSH2 0x1273 JUMPI PUSH0 DUP5 ISZERO PUSH2 0x1261 JUMPI DUP3 DUP8 ADD MLOAD SWAP1 POP JUMPDEST PUSH2 0x126B DUP6 DUP3 PUSH2 0x11F0 JUMP JUMPDEST DUP7 SSTORE POP PUSH2 0x12D2 JUMP JUMPDEST PUSH1 0x1F NOT DUP5 AND PUSH2 0x1281 DUP7 PUSH2 0x106E JUMP JUMPDEST PUSH0 JUMPDEST DUP3 DUP2 LT ISZERO PUSH2 0x12A8 JUMPI DUP5 DUP10 ADD MLOAD DUP3 SSTORE PUSH1 0x1 DUP3 ADD SWAP2 POP PUSH1 0x20 DUP6 ADD SWAP5 POP PUSH1 0x20 DUP2 ADD SWAP1 POP PUSH2 0x1283 JUMP JUMPDEST DUP7 DUP4 LT ISZERO PUSH2 0x12C5 JUMPI DUP5 DUP10 ADD MLOAD PUSH2 0x12C1 PUSH1 0x1F DUP10 AND DUP3 PUSH2 0x11D4 JUMP JUMPDEST DUP4 SSTORE POP JUMPDEST PUSH1 0x1 PUSH1 0x2 DUP9 MUL ADD DUP9 SSTORE POP POP POP JUMPDEST POP POP POP POP POP POP JUMP JUMPDEST PUSH32 0x546865206D696E696D756D20636F6E747269627574696F6E206973206E6F7420 PUSH0 DUP3 ADD MSTORE PUSH32 0x6D65740000000000000000000000000000000000000000000000000000000000 PUSH1 0x20 DUP3 ADD MSTORE POP JUMP JUMPDEST PUSH0 PUSH2 0x1334 PUSH1 0x23 DUP4 PUSH2 0xB26 JUMP JUMPDEST SWAP2 POP PUSH2 0x133F DUP3 PUSH2 0x12DA JUMP JUMPDEST PUSH1 0x40 DUP3 ADD SWAP1 POP SWAP2 SWAP1 POP JUMP JUMPDEST PUSH0 PUSH1 0x20 DUP3 ADD SWAP1 POP DUP2 DUP2 SUB PUSH0 DUP4 ADD MSTORE PUSH2 0x1361 DUP2 PUSH2 0x1328 JUMP JUMPDEST SWAP1 POP SWAP2 SWAP1 POP JUMP JUMPDEST PUSH32 0x4E6F7420616E20617070726F7665720000000000000000000000000000000000 PUSH0 DUP3 ADD MSTORE POP JUMP JUMPDEST PUSH0 PUSH2 0x139C PUSH1 0xF DUP4 PUSH2 0xB26 JUMP JUMPDEST SWAP2 POP PUSH2 0x13A7 DUP3 PUSH2 0x1368 JUMP JUMPDEST PUSH1 0x20 DUP3 ADD SWAP1 POP SWAP2 SWAP1 POP JUMP JUMPDEST PUSH0 PUSH1 0x20 DUP3 ADD SWAP1 POP DUP2 DUP2 SUB PUSH0 DUP4 ADD MSTORE PUSH2 0x13C9 DUP2 PUSH2 0x1390 JUMP JUMPDEST SWAP1 POP SWAP2 SWAP1 POP JUMP JUMPDEST PUSH32 0x416C726561647920617070726F76656400000000000000000000000000000000 PUSH0 DUP3 ADD MSTORE POP JUMP JUMPDEST PUSH0 PUSH2 0x1404 PUSH1 0x10 DUP4 PUSH2 0xB26 JUMP JUMPDEST SWAP2 POP PUSH2 0x140F DUP3 PUSH2 0x13D0 JUMP JUMPDEST PUSH1 0x20 DUP3 ADD SWAP1 POP SWAP2 SWAP1 POP JUMP JUMPDEST PUSH0 PUSH1 0x20 DUP3 ADD SWAP1 POP DUP2 DUP2 SUB PUSH0 DUP4 ADD MSTORE PUSH2 0x1431 DUP2 PUSH2 0x13F8 JUMP JUMPDEST SWAP1 POP SWAP2 SWAP1 POP JUMP INVALID LOG2 PUSH5 0x6970667358 0x22 SLT KECCAK256 CHAINID LOG1 0xEA CALLVALUE 0xC1 PUSH27 0x49815994BF691EF5B241D3C7BBF1F56EF7C47C45068CFAE637D364 PUSH20 0x6F6C634300081400330000000000000000000000 "},"gasEstimates":{"creation":{"codeDepositCost":"1046000","executionCost":"infinite","totalCost":"infinite"},"external":{"approveRequest(uint256)":"infinite","approvers(address)":"2856","approversCount()":"2514","contribute()":"53253","createRequest(string,uint256,address)":"infinite","finalizeRequest(uint256)":"infinite","manager()":"2553","minimumContribution()":"2447","numRequests()":"2469","requests(uint256)":"infinite"}},"methodIdentifiers":{"approveRequest(uint256)":"d7d1bbdb","approvers(address)":"0a144391","approversCount()":"82fde093","contribute()":"d7bb99ba","createRequest(string,uint256,address)":"8a9cfd55","finalizeRequest(uint256)":"03441006","manager()":"481c6a75","minimumContribution()":"937e09b1","numRequests()":"9fb42b1f","requests(uint256)":"81d12c58"}},"storageLayout":{"storage":[{"astId":72,"contract":"Campaign.sol:Campaign","label":"requests","offset":0,"slot":"0","type":"t_mapping(t_uint256,t_struct(Request)55_storage)"},{"astId":74,"contract":"Campaign.sol:Campaign","label":"manager","offset":0,"slot":"1","type":"t_address"},{"astId":76,"contract":"Campaign.sol:Campaign","label":"numRequests","offset":0,"slot":"2","type":"t_uint256"},{"astId":78,"contract":"Campaign.sol:Campaign","label":"minimumContribution","offset":0,"slot":"3","type":"t_uint256"},{"astId":80,"contract":"Campaign.sol:Campaign","label":"approversCount","offset":0,"slot":"4","type":"t_uint256"},{"astId":84,"contract":"Campaign.sol:Campaign","label":"approvers","offset":0,"slot":"5","type":"t_mapping(t_address,t_bool)"}],"types":{"t_address":{"encoding":"inplace","label":"address","numberOfBytes":"20"},"t_address_payable":{"encoding":"inplace","label":"address payable","numberOfBytes":"20"},"t_bool":{"encoding":"inplace","label":"bool","numberOfBytes":"1"},"t_mapping(t_address,t_bool)":{"encoding":"mapping","key":"t_address","label":"mapping(address => bool)","numberOfBytes":"32","value":"t_bool"},"t_mapping(t_uint256,t_struct(Request)55_storage)":{"encoding":"mapping","key":"t_uint256","label":"mapping(uint256 => struct Campaign.Request)","numberOfBytes":"32","value":"t_struct(Request)55_storage"},"t_string_storage":{"encoding":"bytes","label":"string","numberOfBytes":"32"},"t_struct(Request)55_storage":{"encoding":"inplace","label":"struct Campaign.Request","members":[{"astId":42,"contract":"Campaign.sol:Campaign","label":"description","offset":0,"slot":"0","type":"t_string_storage"},{"astId":44,"contract":"Campaign.sol:Campaign","label":"value","offset":0,"slot":"1","type":"t_uint256"},{"astId":46,"contract":"Campaign.sol:Campaign","label":"recipient","offset":0,"slot":"2","type":"t_address_payable"},{"astId":48,"contract":"Campaign.sol:Campaign","label":"complete","offset":20,"slot":"2","type":"t_bool"},{"astId":50,"contract":"Campaign.sol:Campaign","label":"approvalCount","offset":0,"slot":"3","type":"t_uint256"},{"astId":54,"contract":"Campaign.sol:Campaign","label":"approvals","offset":0,"slot":"4","type":"t_mapping(t_address,t_bool)"}],"numberOfBytes":"160"},"t_uint256":{"encoding":"inplace","label":"uint256","numberOfBytes":"32"}}},"userdoc":{"kind":"user","methods":{},"version":1}}